:020000040800F2
:10000000F006002031020008FB060008F306000895
:10001000F7060008DF040008A31000080000000035
:10002000000000000000000000000000A10800081F
:10003000E3040008000000007507000891090008AB
:100040004B0200084B0200084B0200084B0200085C
:100050004B0200084B020008E50400088505000873
:100060004B0200084B0200084B0200084B0200083C
:100070004B0200084B0200084B0200084B0200082C
:100080004B0200084B0200084B0200084B0200081C
:100090004B0200084B0200084B0200084B0200080C
:1000A0004B0200084B0200084B0200084B020008FC
:1000B0004B0200084B0200084B0200084B020008EC
:1000C0004B0200084B0200084B0200084B020008DC
:1000D0004B0200084B020008C90D00084B02000843
:1000E0004B0200084B0200084B0200084B020008BC
:1000F0004B0200084B0200084B0200084B020008AC
:100100004B0200084B0200084B0200084B0200089B
:100110004B0200084B0200084B020008FD090008D2
:100120004B0200084B0200084B0200084B0200087B
:100130004B0200084B0200084B0200084B0200086B
:100140004B0200084B0200084B0200084B0200085B
:100150004B0200084B0200084B0200084B0200084B
:100160004B0200084B0200084B0200084B0200083B
:100170004B0200084B0200084B0200084B0200082B
:100180004B0200084B02000800F002F800F041F8B2
:100190000AA090E8000C82448344AAF10107DA45E2
:1001A00001D100F036F8AFF2090EBAE80F0013F0F3
:1001B000010F18BFFB1A43F001031847581A00003B
:1001C000781A0000103A24BF78C878C1FAD85207CC
:1001D00024BF30C830C144BF04680C6070470000C1
:1001E0000023002400250026103A28BF78C1FBD840
:1001F000520728BF30C148BF0B607047642900F028
:100200007F80002070471FB501F0FFFC1FBD10B5B7
:1002100010BD00F02AF91146FFF7F5FF01F0DEF8F6
:1002200000F048F903B4FFF7F2FF03BC00F050F907
:100230000948804709480047FEE7FEE7FEE7FEE77A
:10024000FEE7FEE7FEE7FEE7FEE7FEE704480549B6
:10025000054A064B7047000095090008890100080F
:10026000F0000020F0060020F0020020F002002044
:100270000FB41CB5074B06AA7B446946009005984D
:1002800000F0DBF80020694600F0EAF81CBC5DF8DD
:1002900014FB0000E50100002DE9F0410E46044684
:1002A000002020622046E168884730B3252805D029
:1002B000D4E901219047206A401CF2E7E16820461A
:1002C00000278847050018D0A5F14100192802D859
:1002D00020354FF400673246294620462760FFF755
:1002E0008DFF40B1012804D0F61D26F00706083620
:1002F000D8E7361DD6E72846DAE7206ABDE8F08160
:100300002DE9F0410646002410687529314616A5EE
:1003100010D0AFF30080002802DA404213A507E0B6
:1003200031688A0701D512A502E0490704D511A555
:10033000012401E0AFF3008000210A2206F1240726
:1003400009E0B0FBF2FCB0FBF2F302FB1C00303022
:1003500078541846491C0028F3D123462A463046D3
:10036000BDE8F04100F00BB8000000002D000000D7
:100370002B000000200000007047704770472DE9F7
:10038000F0470D4699469246044600F1240801685C
:10039000880604D5E06921F01001216000E0012009
:1003A000A84201DD471B00E00027A1697A1902EB92
:1003B0000900081AA0612078C00602D42046AFF3D5
:1003C0000080002608E0D4E901211AF806009047D1
:1003D000206A401C761C20624E45F4DB2078C00663
:1003E0000AD52046AFF3008006E0D4E90121302091
:1003F0009047206A401C2062381EA7F10107F4DCF8
:1004000007E0D4E9012118F805009047206A401C54
:100410002062281EA5F10105F3DC2046AFF3008021
:100420002078000602D50220BDE8F0870120FBE716
:1004300001694A1C02610878704700B58FB0CDE9A8
:1004400001310021059105497944CDE90310114698
:100450006846FFF721FF0FB000BD0000E5FFFFFF7A
:100460000A6802F8010B0A607047754600F02CF824
:10047000AE4605006946534620F00700854618B091
:1004800020B5FFF7E3FEBDE820404FF000064FF037
:1004900000074FF000084FF0000B21F00701AC46B9
:1004A000ACE8C009ACE8C009ACE8C009ACE8C009D8
:1004B0008D46704710B50446AFF300802046BDE876
:1004C0001040FFF7AFBE00000048704790000020CA
:1004D00001491820ABBEFEE726000200704700BFAE
:1004E000FEE7704710B5012000F072F8002831D007
:1004F00042F2107000F04CFE0121174800F0DFF8C6
:1005000028BB16480088401C1449088014A200210A
:10051000084600F00BFF17A20021012000F006FFA3
:1005200013E000F079FF15490870084690F90000C3
:1005300000F0BAFD42F2107000F02AFE1048007878
:1005400018B100200E49087000E0EAE700BF012062
:1005500000F038F810BD0000000C02400A00002036
:100560004E686170206D6174206B6861753A20205F
:100570000000000020202020202000002700002074
:100580002800002010B5022000F022F890B142F2BD
:10059000107000F0FDFD0221074800F090F830B91E
:1005A0000120064908708102054800F09CF80220ED
:1005B00000F008F810BD0000000C02401A000020F6
:1005C000000402400149086070470000143C0140EB
:1005D00001460020034A12680A400AB1012000E0E7
:1005E00000207047143C0140F0B50A46002100236A
:1005F000002400BF3DE0012505FA01F3156805EA76
:1006000003049C4234D105684F000326BE40B54325
:10061000056015794E00B5400668354305601579CB
:10062000012D02D01579022D16D185684F000326C1
:10063000BE40B543856055794E00B5408668354368
:100640008560456801268E40B543456045689679CA
:100650008E40B6B235434560C5684F000326BE40A4
:10066000B543C560D5794E00B540C6683543C56011
:10067000491C1029BFD3F0BDF0B5002300244D075D
:10068000ED0E02FA05F3CE1000F1200555F82650C4
:100690004E07F70E0F26BE40B543CF1000F12006DF
:1006A00046F82750CE1000F1200555F8265045EAAF
:1006B0000304CE1000F1200545F82640F0BD0246A7
:1006C000002013690B400BB1012000E000207047AF
:1006D0000246002053690B400BB1012000E00020CE
:1006E0007047418370470183704742694A404261C5
:1006F000704700BFFEE700BFFEE7704770B50021FE
:1007000000230F22C4781CB3174C246804F4E0645F
:10071000C4F5E064C4F30721C1F10404E3B20A4163
:1007200044789C40E1B28478144021430C07210EA8
:100730000E4C05786155047804F01F050124AC4087
:1007400005786D11AD0005F1E025C5F8004109E01F
:10075000047804F01F050124AC40054D067876119D
:1007600045F8264070BD00000CED00E000E400E01C
:1007700080E100E07047000029B1064A1268024398
:10078000044B1A6004E0034A12688243014B1A606A
:10079000704700003038024029B1064A126802430F
:1007A000044B1A6004E0034A12688243014B1A604A
:1007B0007047000040380240F0B5002100220024BC
:1007C000022500260223324F3F6807F00C0121B1B9
:1007D000042905D0082937D105E02E4F076036E0FF
:1007E0002D4F076033E02A4F3F1F3F68C7F3805605
:1007F000274F3F1F3F6807F03F036EB1264FB7FBFF
:10080000F3F7DFF88CC0ACF1040CDCF800C0CCF3DB
:10081000881C07FB0CF40CE01E4FB7FBF3F7DFF866
:1008200070C0ACF1040CDCF800C0CCF3881C07FBF2
:100830000CF4174F3F1F3F68C7F301477F1C7D0033
:10084000B4FBF5F7076002E0124F076000BF00BF7E
:100850000F4F3F6807F0F0010909104F7A5C0768F5
:10086000D74047600A4F3F6807F4E051890A0B4FB1
:100870007A5C4768D7408760054F3F6807F460415E
:10088000490B064F7A5C4768D740C760F0BD00004F
:10089000083802400024F40000127A0030000020E2
:1008A000704700000CB500200190009034480068AB
:1008B00040F480303249086000BF3148006800F4DD
:1008C000003000900198401C0190009818B90198E0
:1008D000B0F5A04FF1D12A48006800F4003010B103
:1008E0000120009001E0002000900098012846D1EE
:1008F00023484030006840F0805021494031086072
:100900002048006840F440401E4908601C480830F8
:1009100000681B49083108600846006840F4004040
:1009200008600846006840F4A05008601648091F97
:100930000860081F006840F08070091F086000BF51
:100940000F48006800F000700028F9D040F20570F0
:100950000E4908600A480830006820F00300084982
:10096000083108600846006840F00200086000BFD7
:1009700003480830006800F00C000828F8D10CBDCE
:10098000003802400070004008544007003C02401C
:100990007047000010B51548006840F47000134916
:1009A00008601348006840F0010011490860002009
:1009B0000F49083108600E4800680E4908400C498C
:1009C00008600D48091D0860081F006820F4802099
:1009D000091F0860002006490C310860FFF762FF1C
:1009E0004FF0006001498039086010BD88ED00E0DB
:1009F00000380240FFFFF6FE1030002410B5012140
:100A00000D4800F031F8A8B101210B4800F01AF8A8
:100A10004FF470410948FFF768FE09480068401C20
:100A200007490860084600680F2801DD00200860BB
:100A300000F090FF10BD000000140040000C0240C8
:100A40002C000020CA430282704721B1028842F084
:100A50000102028004E002884FF6FE731A40028011
:100A600070470146486A704730B5024600200023AF
:100A70000024158A05EA0103958905EA010413B1EA
:100A80000CB1012000E0002030BD1AB183890B4376
:100A9000838102E083898B438381704770B5002492
:100AA00000220023058C4FF6FE7635400584028C2B
:100AB0008388048B4FF68F752C40B51E2C400D8813
:100AC0002C43751E2A408D892A434D882A43104D98
:100AD000A84202D00F4DA84213D14FF6F7752A4015
:100AE000CD892A434FF6FB752A408D882A434FF65D
:100AF000FF652B404FF6FF552B400D8A2B434D8A47
:100B00002B43838004838D684563028470BD00009D
:100B100000000140000401400A460021018B4FF60D
:100B2000F7731940114301837047000070B500242A
:100B300000220023058C4FF6EF7635400584028CA9
:100B40008388048B48F6FF752C404FF6FF452C40F8
:100B50000D884FF6FF7606EA05252C434FF6DF7524
:100B60002A408D8906EA05152A434D8806EA0515AF
:100B70002A43154DA84202D0144DA8421DD14FF66C
:100B80007F752A40CD894FF6FF7606EA05152A4380
:100B90004FF6BF752A408D8806EA05152A434FF6A1
:100BA000FF352B404FF2FF752B400D8A06EA850575
:100BB0002B434D8A06EA85052B43838004838D6889
:100BC0008563028470BD0000000001400004014004
:100BD0000A460021018B4FF2FF7319404FF6FF7355
:100BE00003EA0223194301837047000070B5002413
:100BF00000220023058C4FF6FF6635400584028CE9
:100C00008388848B4FF68F752C404FF6FC752C40F3
:100C10000D882C434FF6FF552A408D894FF6FF76FD
:100C200006EA05252A434D8806EA05252A43154D7F
:100C3000A84202D0144DA8421DD14FF2FF752A40A0
:100C4000CD894FF6FF7606EA05252A434FF6FF3594
:100C50002A408D8806EA05252A434EF6FF752B406B
:100C60004DF6FF752B400D8A06EA05152B434D8A7C
:100C700006EA05152B43838084838D68C56302844F
:100C800070BD000000000140000401400A46002140
:100C9000818B4FF6F7731940114381837047000031
:100CA00070B5002200230024058C4EF6FF763540F7
:100CB0000584038C8488828B48F6FF752A404FF6A2
:100CC000FF452A400D884FF6FF7606EA05252A43A0
:100CD0004DF6FF752B408D8906EA05352B434D886F
:100CE00006EA05352B430A4DA84202D0094DA84219
:100CF00008D14BF6FF752C400D8A4FF6FF7606EAB9
:100D000085152C43848082838D680564038470BDBF
:100D100000000140000401400A460021818B4FF28F
:100D2000FF7319404FF6FF7303EA022319438183CF
:100D300070474163704781637047C1637047416288
:100D40007047000000220288184B98420ED0184BC2
:100D500098420BD0B0F1804F08D0164B984205D086
:100D6000154B984202D0154B984204D14FF68F7321
:100D70001A404B881A43124B984207D0114B9842A5
:100D800004D04FF6FF431A400B891A4302804B6888
:100D9000C3620B880385054B984202D0044B9842EE
:100DA00001D18B7A038601238382704700000140C2
:100DB000000401400004004000080040000C004016
:100DC000001000400014004010B540F2255140488A
:100DD00000F0A5F8012879D13D4800F059F93D49C6
:100DE00008700846007861281BD00BDCA0F1410098
:100DF0000B2864D2DFE800F0101A242E38636363F6
:100E00006342520062380A2859D2DFE800F0141E0B
:100E10002832585858583F4F01212F48FFF763FC9C
:100E20004EE001212C48FFF75CFC49E002212A48F2
:100E3000FFF759FC44E002212748FFF752FC3FE04E
:100E400004212548FFF74FFC3AE004212248FFF730
:100E500048FC35E008212048FFF745FC30E0082138
:100E60001D48FFF73EFC2BE010211B48FFF73BFC21
:100E700026E010211848FFF734FC21E00120174933
:100E800008704B211648FFF754FF19E00020134962
:100E900008701E211248FFF74CFF11E00120114994
:100EA000087023210E48FFF748FF09E000200D4994
:100EB000087050210A48FFF740FF01E006E000BF3C
:100EC00000BF40F22551024800F00EF810BD0000AE
:100ED000004400400C0000200004024016000020E6
:100EE000000400401700002010B50022002340F647
:100EF0006A14A14200D100BF0A1201249440A3B297
:100F0000DC43048010BD21B1828942F40052828109
:100F100004E082894DF6FF731A408281704770B5F4
:100F20000246002400230025002040F66A16B14244
:100F300000D100BFC1F3421501F01F03012606FADC
:100F400003F3012D02D19689334006E0022D02D130
:100F5000168A334001E0968A33400C12012606FAC5
:100F600004F41688344013B10CB1012000E00020D5
:100F700070BDF0B50346002400260025002040F691
:100F80006A17B94200D100BF1846C1F3421401F0FC
:100F90001F06012707FA06F5012C01D10C3004E0E9
:100FA000022C01D1103000E014301AB107682F4331
:100FB000076002E00768AF430760F0BD2DE9FF4717
:100FC00005460E460024A14600BFA046B08900B1E8
:100FD00000BF2C8A24F44054F08804432C82AC894E
:100FE00041F20C608443B088318908437189084319
:100FF0000443AC81AC8A24F44074B0890443AC82CD
:101000006846FFF7D9FB2048854202D01F48854239
:1010100002D1DDF80C9001E0DDF80890A88900F419
:10102000004040B109EBC90000EB091031684900EC
:10103000B0FBF1F707E009EBC90000EB09103168DC
:101040008900B0FBF1F76420B7FBF0F00401200940
:10105000642101FB1078A88900F4004040B13220DF
:1010600000EBC800B0FBF1F000F00700044308E01B
:10107000322000EB08106421B0FBF1F000F00F000B
:1010800004432C81BDE8FF8700100140001401409B
:1010900001468888C0F308007047C1F308028280C7
:1010A000704700BFFEE7000070B50446582C4DD0D5
:1010B000274801782246012000F059F94CF25030BF
:1010C00000F066F8224801782A22012000F04FF94A
:1010D00020481F4991F9001044541D480078401CD5
:1010E00040B21B4908700846007805282ED100251B
:1010F0000FE01848405718494957884208D017A2AE
:101100000021084600F012F900201149087002E0A1
:101110006D1C052DEDDB00BF0D48007805280FD1B3
:1011200013A20021084600F001F928211548FFF715
:1011300002FE154800F02CF85A211248FFF7FBFD7B
:1011400000200349087001201049087070BD00009C
:1011500021000020220000201C0000204D6174208E
:101160006B686175207361692120202000000000F8
:101170004368616F206D756E672062616E2120206B
:10118000000000000004004020A10700280000200B
:1011900070B5044600250AE000210648FFF7CFFDA0
:1011A00000BF0448FFF75DFC0A28FAD36D1CA54276
:1011B000F2D370BD001000401FB501210220FFF7DF
:1011C000DBFA01208DF80C0000208DF80E008DF860
:1011D0000F0003208DF80D0040F2FF70029002A96D
:1011E0000C48FFF701FA01211020FFF7C5FA012092
:1011F0008DF8040000208DF806008DF8070003200C
:101200008DF805003F20009069460348FFF7ECF990
:101210001FBD0000000402400010024070B50546EA
:101220000C46002000E0401C4CF250318842FADBB2
:1012300025B101213C48FFF756FA03E001213A4865
:10124000FFF74FFA04F0800020B120213648FFF765
:101250004AFA03E020213448FFF743FA04F0400043
:1012600020B110213048FFF73EFA03E010212E484C
:10127000FFF737FA04F0200020B108212A48FFF7D1
:1012800032FA03E008212848FFF72BFA04F0100097
:1012900020B104212448FFF726FA03E00421224864
:1012A000FFF71FFA02212048FFF71DFA02211E480E
:1012B000FFF717FA04F0080020B120211A48FFF7C1
:1012C00012FA03E020211848FFF70BFA04F004009B
:1012D00020B110211448FFF706FA03E0102112484C
:1012E000FFF7FFF904F0020020B108210E48FFF7D4
:1012F000FAF903E008210C48FFF7F3F904F00100C4
:1013000020B104210848FFF7EEF903E00421064864
:10131000FFF7E7F902210448FFF7E5F90221024847
:10132000FFF7DFF970BD00000010024070B50646FF
:101330000D46144616B1012E0ED106E005F18000CF
:10134000C1B20020FFF76AFF06E005F1C000C1B29C
:101350000020FFF763FF00BF00BF04E021780120F9
:10136000FFF75CFF641C20780028F7D170BD70B5D2
:1013700005460C46164615B1012D0ED106E004F1C6
:101380008000C1B20020FFF749FF06E004F1C00071
:10139000C1B20020FFF742FF00BF00BFF1B2012041
:1013A000FFF73CFF70BD00001CB501210820FFF7CE
:1013B000E3F901208DF8040000208DF806008DF877
:1013C00007008DF805004FF4704000906946024810
:1013D000FFF70AF91CBD0000000C024000F01AFAE9
:1013E00000F05CFA00F016FAFFF7E6FE00F03CF9B8
:1013F00050210848FFF7A1FC1E210648FFF799FC81
:10140000FFF7D2FF00F01CFA03E044F62060FFF77C
:10141000BFFEFAE70004004010B504219048FFF732
:1014200060F908218E48FFF75EF910218C48FFF71C
:101430005AF920218A48FFF756F901218948FFF718
:101440003EF940B900BF01218648FFF738F900286E
:10145000F9D0312010BD02218248FFF730F940B9A0
:1014600000BF02217F48FFF72AF90028F9D0322077
:10147000F0E704217B48FFF722F940B900BF0421BF
:101480007848FFF71CF90028F9D03320E2E708215B
:101490007448FFF714F940B900BF08217148FFF7FD
:1014A0000EF90028F9D04120D4E708216C48FFF755
:1014B00018F910216A48FFF716F920216848FFF74C
:1014C00012F904216648FFF70EF901216548FFF77C
:1014D000F6F840B900BF01216248FFF7F0F8002894
:1014E000F9D03420B6E702215E48FFF7E8F840B9AA
:1014F00000BF02215B48FFF7E2F80028F9D0352051
:10150000A8E704215748FFF7DAF840B900BF0421E3
:101510005448FFF7D4F80028F9D036209AE708217C
:101520005048FFF7CCF840B900BF08214D48FFF7FD
:10153000C6F80028F9D042208CE710214848FFF770
:10154000D0F820214648FFF7CEF804214448FFF7A1
:10155000CAF808214248FFF7C6F801214148FFF7C1
:10156000AEF840B900BF01213E48FFF7A8F80028B7
:10157000F9D037206EE702213A48FFF7A0F840B9CA
:1015800000BF02213748FFF79AF80028F9D0382029
:1015900060E704213348FFF792F840B900BF042107
:1015A0003048FFF78CF80028F9D0392052E708219D
:1015B0002C48FFF784F840B900BF08212948FFF7FD
:1015C0007EF80028F9D0432044E720212448FFF783
:1015D00088F804212248FFF786F808212048FFF701
:1015E00082F810211E48FFF77EF801211D48FFF701
:1015F00066F840B900BF01211A48FFF760F80028DB
:10160000F9D02A2026E702211648FFF758F840B9FA
:1016100000BF02211348FFF752F80028F9D030200C
:1016200018E704210F48FFF74AF840B900BF04212A
:101630000C48FFF744F80028F9D023200AE70821D6
:101640000848FFF73CF840B900BF08210548FFF7FC
:1016500036F80028F9D04420FCE65820FAE60000CD
:10166000000C02400008024000B58FB001210220AA
:10167000FFF792F801210420FFF77EF8012108020C
:10168000FFF78AF801210846FFF776F8012140208C
:10169000FFF782F801210220FFF76EF802208DF893
:1016A000380000208DF83A008DF83B008DF83900A5
:1016B0004FF470700D900DA95048FEF795FF022071
:1016C0008DF8300000208DF832008DF833008DF851
:1016D000310080200B900BA94948FEF785FF0220BE
:1016E0008DF8280000208DF82A008DF82B008DF849
:1016F00029004FF48040099009A94248FEF774FF81
:1017000040F28F60ADF8180040F2E73007900020FB
:10171000ADF82000ADF81A0006A93B48FFF712FB10
:1017200001213948FFF791F906A93848FFF70AFB6C
:1017300001213648FFF789F906A93548FFF702FB72
:1017400001213348FFF781F96020ADF80400002043
:10175000ADF8100003900120ADF8060001A92A4859
:10176000FFF79CF901A92848FFF7E0F901A92648ED
:10177000FFF73CFA01A92448FFF792FA01A9234890
:10178000FFF78CF901A92248FFF788F908211E48C4
:10179000FFF7C2F908211C48FFF71AFA08211A4876
:1017A000FFF774FA08211848FFF7B6FA082117481E
:1017B000FFF7B2F908211648FFF7AEF90222062119
:1017C0000E48FEF759FF022207210C48FEF754FF8E
:1017D000022208210948FEF74FFF0222092107488B
:1017E000FEF74AFF092207210548FEF745FF0922B7
:1017F0000E210448FEF740FF0FB000BD0008024074
:1018000000000240000402400004004000200040AC
:10181000001800400EB501211020FEF7BDFF532037
:10182000ADF800004FF6FF70019069460348FFF7DE
:1018300089FA01210148FFF708F90EBD00100040A8
:101840001FB501212020FEF7A7FF42F2CF00ADF81F
:10185000040044F61F6002900020ADF8060001A9C4
:101860000D48FFF76FFA012211460B48FFF70DF9FB
:1018700001210948FFF7E9F837208DF80000012021
:101880008DF8010000208DF8020001208DF8030082
:101890006846FEF733FF1FBD0014004000B587B057
:1018A00001214804FEF778FF4FF416500390002002
:1018B000ADF818000C20ADF816000020ADF81400AB
:1018C000ADF81200ADF8100003A92048FFF776FB31
:1018D00001211E48FFF717FB012240F225511B484A
:1018E000FFF747FB01210846FEF746FF02208DF86F
:1018F00008000C20019000208DF80A0001208DF8CE
:101900000B0002208DF8090001A91148FEF76CFEBA
:10191000072202210E48FEF7AFFE072203210C48E2
:10192000FEF7AAFE26208DF8000001208DF80100A8
:101930008DF802008DF803006846FEF7DFFE0121F6
:101940000248FFF7E0FA07B000BD00000044004085
:101950000000024010B5824800780C3081490870C0
:101960007F4800781330804908707E4802787FA154
:101970008048FEF77DFC7C4802787FA18048FEF716
:1019800077FC7748008864307E49088008460288E2
:101990007DA17F48FEF76CFC01217E48FEF798FE92
:1019A0007D4908700846007818B141207B490870CD
:1019B00002E061207949087002217648FEF788FE2E
:1019C000774908700846007818B14220734948707A
:1019D00002E062207149487004216E48FEF778FEEB
:1019E000704908700846007818B143206B49887028
:1019F00002E063206949887008216648FEF768FEA6
:101A0000694908700846007818B144206349C870D5
:101A100002E064206149C87010215E48FEF758FE5C
:101A2000624908700846007818B145205B49087182
:101A300002E065205949087140215648FEF748FEEA
:101A40005B4908700846007818B946205349487128
:101A500002E066205149487120214E48FEF738FEC9
:101A6000544908700846007818B947204B498871D6
:101A700002E067204949887180214648FEF728FE28
:101A80004D4908700846007818B148204349C8718C
:101A900002E068204149C8714848007818B14920DF
:101AA0003E49087202E069203C4908723548408886
:101AB000B0F5FA6F06DA0020414908701E2141484E
:101AC000FFF737F93E48007818B14A203349487289
:101AD00002E06A20314948722A4800886E2806DDF3
:101AE00001203949087023213648FFF726F9364886
:101AF000007818B14B202949887202E06B202749F1
:101B00008872204800886E2803DD01202F49087064
:101B100002E000202D4908702C48007818B14C20B4
:101B20001E49C87202E06C201C49C872284800781F
:101B300018B14D201949087302E06D201749087348
:101B40005F2000F047F80B4800F054F80C4800F014
:101B500051F80F4800F04EF8104800F04BF810BD57
:101B60002C00002003000020010000202325642415
:101B700000000000540000205E25642A00000000E0
:101B800068000020060000202125644000000000BD
:101B90007C000020000402400D00002040000020D6
:101BA0000E0000200F000020100000201100002077
:101BB0001200002013000020140000201500002057
:101BC000160000200004004017000020190000202B
:101BD0001A00002010B5044600BF0548008800F038
:101BE00040000028F9D021460148FFF756FA10BD01
:101BF0000044004010B5044603E02078FFF7EAFFF8
:101C0000641C20780028F8D110BD4FF04070E1EE40
:101C1000100A7047341C000800000020400000003B
:101C2000C4010008741C000840000020B006000039
:101C3000E0010008000000000000000000000000BB
:101C40000000000000000000000000000000000094
:101C50003132333435000000000000000000000085
:101C60000000000000000000010203040102030460
:041C70000607080952
:040000050800018965
:00000001FF
