:020000040800F2
:100000008806002031020008D3050008CB0500084F
:10001000CF050008DF040008030C00080000000002
:100020000000000000000000000000007907000848
:10003000E3040008000000004D06000869080008FD
:100040004B0200084B0200084B0200084B0200085C
:100050004B0200084B0200084B0200084B0200084C
:100060004B0200084B0200084B0200084B0200083C
:100070004B0200084B0200084B0200084B0200082C
:100080004B0200084B0200084B0200084B0200081C
:100090004B0200084B0200084B0200084B0200080C
:1000A0004B0200084B0200084B0200084B020008FC
:1000B0004B0200084B0200084B0200084B020008EC
:1000C0004B0200084B0200084B0200084B020008DC
:1000D0004B0200084B020008CD0900084B02000843
:1000E0004B0200084B0200084B0200084B020008BC
:1000F0004B0200084B0200084B0200084B020008AC
:100100004B0200084B0200084B0200084B0200089B
:100110004B0200084B0200084B020008D5080008FB
:100120004B0200084B0200084B0200084B0200087B
:100130004B0200084B0200084B0200084B0200086B
:100140004B0200084B0200084B0200084B0200085B
:100150004B0200084B0200084B0200084B0200084B
:100160004B0200084B0200084B0200084B0200083B
:100170004B0200084B0200084B0200084B0200082B
:100180004B0200084B02000800F002F800F041F8B2
:100190000AA090E8000C82448344AAF10107DA45E2
:1001A00001D100F036F8AFF2090EBAE80F0013F0F3
:1001B000010F18BFFB1A43F001031847640C00003D
:1001C000840C0000103A24BF78C878C1FAD85207CE
:1001D00024BF30C830C144BF04680C6070470000C1
:1001E0000023002400250026103A28BF78C1FBD840
:1001F000520728BF30C148BF0B607047642900F028
:100200007F80002070471FB500F005FE1FBD10B5B0
:1002100010BD00F02AF91146FFF7F5FF00F03CFD94
:1002200000F048F903B4FFF7F2FF03BC00F050F907
:100230000948804709480047FEE7FEE7FEE7FEE77A
:10024000FEE7FEE7FEE7FEE7FEE7FEE704480549B6
:10025000054A064B704700006D0800088901000838
:1002600088000020880600208802002088020020E4
:100270000FB41CB5074B06AA7B446946009005984D
:1002800000F0DBF80020694600F0EAF81CBC5DF8DD
:1002900014FB0000E50100002DE9F0410E46044684
:1002A000002020622046E168884730B3252805D029
:1002B000D4E901219047206A401CF2E7E16820461A
:1002C00000278847050018D0A5F14100192802D859
:1002D00020354FF400673246294620462760FFF755
:1002E0008DFF40B1012804D0F61D26F00706083620
:1002F000D8E7361DD6E72846DAE7206ABDE8F08160
:100300002DE9F0410646002410687529314616A5EE
:1003100010D0AFF30080002802DA404213A507E0B6
:1003200031688A0701D512A502E0490704D511A555
:10033000012401E0AFF3008000210A2206F1240726
:1003400009E0B0FBF2FCB0FBF2F302FB1C00303022
:1003500078541846491C0028F3D123462A463046D3
:10036000BDE8F04100F00BB8000000002D000000D7
:100370002B000000200000007047704770472DE9F7
:10038000F0470D4699469246044600F1240801685C
:10039000880604D5E06921F01001216000E0012009
:1003A000A84201DD471B00E00027A1697A1902EB92
:1003B0000900081AA0612078C00602D42046AFF3D5
:1003C0000080002608E0D4E901211AF806009047D1
:1003D000206A401C761C20624E45F4DB2078C00663
:1003E0000AD52046AFF3008006E0D4E90121302091
:1003F0009047206A401C2062381EA7F10107F4DCF8
:1004000007E0D4E9012118F805009047206A401C54
:100410002062281EA5F10105F3DC2046AFF3008021
:100420002078000602D50220BDE8F0870120FBE716
:1004300001694A1C02610878704700B58FB0CDE9A8
:1004400001310021059105497944CDE90310114698
:100450006846FFF721FF0FB000BD0000E5FFFFFF7A
:100460000A6802F8010B0A607047754600F02CF824
:10047000AE4605006946534620F00700854618B091
:1004800020B5FFF7E3FEBDE820404FF000064FF037
:1004900000074FF000084FF0000B21F00701AC46B9
:1004A000ACE8C009ACE8C009ACE8C009ACE8C009D8
:1004B0008D46704710B50446AFF300802046BDE876
:1004C0001040FFF7AFBE0000004870472800002032
:1004D00001491820ABBEFEE726000200704700BFAE
:1004E000FEE77047F0B50A4600210023002400BF54
:1004F0003DE0012505FA01F3156805EA03049C4275
:1005000034D105684F000326BE40B5430560157918
:100510004E00B5400668354305601579012D02D0BF
:100520001579022D16D185684F000326BE40B543CC
:10053000856055794E00B5408668354385604568CD
:1005400001268E40B5434560456896798E40B6B227
:1005500035434560C5684F000326BE40B543C560BE
:10056000D5794E00B540C6683543C560491C102991
:10057000BFD3F0BDF0B5002300244D07ED0E02FA05
:1005800005F3CE1000F1200555F826504E07F70E62
:100590000F26BE40B543CF1000F1200646F8275085
:1005A000CE1000F1200555F8265045EA0304CE1080
:1005B00000F1200545F82640F0BD418370470183D6
:1005C000704742694A404261704700BFFEE700BF82
:1005D000FEE7704770B5002100230F22C4781CB3DA
:1005E000174C246804F4E064C4F5E064C4F3072104
:1005F000C1F10404E3B20A4144789C40E1B284783A
:10060000144021430C07210E0E4C057861550478E7
:1006100004F01F050124AC4005786D11AD0005F113
:10062000E025C5F8004109E0047804F01F05012425
:10063000AC40054D0678761145F8264070BD0000A7
:100640000CED00E000E400E080E100E07047000015
:1006500029B1064A12680243044B1A6004E0034AB7
:1006600012688243014B1A60704700003038024024
:1006700029B1064A12680243044B1A6004E0034A97
:1006800012688243014B1A607047000040380240F4
:10069000F0B5002100220024022500260223324F5B
:1006A0003F6807F00C0121B1042905D0082937D192
:1006B00005E02E4F076036E02D4F076033E02A4FEC
:1006C0003F1F3F68C7F38056274F3F1F3F6807F023
:1006D0003F036EB1264FB7FBF3F7DFF88CC0ACF1E8
:1006E000040CDCF800C0CCF3881C07FB0CF40CE015
:1006F0001E4FB7FBF3F7DFF870C0ACF1040CDCF869
:1007000000C0CCF3881C07FB0CF4174F3F1F3F6859
:10071000C7F301477F1C7D00B4FBF5F7076002E0DB
:10072000124F076000BF00BF0F4F3F6807F0F00196
:100730000909104F7A5C0768D74047600A4F3F6845
:1007400007F4E051890A0B4F7A5C4768D74087600D
:10075000054F3F6807F46041490B064F7A5C4768D4
:10076000D740C760F0BD0000083802400024F40004
:1007700000127A0018000020704700000CB500201D
:10078000019000903448006840F48030324908609D
:1007900000BF3148006800F4003000900198401C10
:1007A0000190009818B90198B0F5A04FF1D12A48EE
:1007B000006800F4003010B10120009001E000203A
:1007C00000900098012846D123484030006840F04E
:1007D00080502149403108602048006840F4404082
:1007E0001E4908601C48083000681B490831086031
:1007F0000846006840F4004008600846006840F47D
:10080000A05008601648091F0860081F006840F0E3
:100810008070091F086000BF0F48006800F000707A
:100820000028F9D040F205700E4908600A480830E7
:10083000006820F003000849083108600846006895
:1008400040F00200086000BF03480830006800F074
:100850000C000828F8D10CBD0038024000700040A0
:1008600008544007003C02407047000010B515488E
:10087000006840F47000134908601348006840F0B5
:1008800001001149086000200F49083108600E4836
:1008900000680E4908400C4908600D48091D0860B1
:1008A000081F006820F48020091F08600020064906
:1008B0000C310860FFF762FF4FF00060014980399A
:1008C000086010BD88ED00E000380240FFFFF6FE32
:1008D0001030002410B50121064800F021F840B185
:1008E0000121044800F00AF84FF470410248FFF774
:1008F00068FE10BD00140040000C0240CA43028292
:10090000704721B1028842F00102028004E00288AF
:100910004FF6FE731A40028070470146486A7047DE
:1009200030B50246002000230024158A05EA0103A1
:10093000958905EA010413B10CB1012000E0002003
:1009400030BD41627047000000220288184B984277
:100950000ED0184B98420BD0B0F1804F08D0164BF8
:10096000984205D0154B984202D0154B984204D1BD
:100970004FF68F731A404B881A43124B984207D098
:10098000114B984204D04FF6FF431A400B891A438B
:1009900002804B68C3620B880385054B984202D0E6
:1009A000044B984201D18B7A0386012383827047DE
:1009B0000000014000040140000400400008004025
:1009C000000C0040001000400014004010B540F240
:1009D00025511A4800F053F801282ED1174800F08D
:1009E00007F9174908700846007841280CD04228BA
:1009F00016D0612802D0622818D10BE04FF4805144
:100A00001048FFF7DCFD12E04FF480510D48FFF76E
:100A1000D4FD0CE04FF400510A48FFF7D0FD06E08A
:100A20004FF400510748FFF7C8FD00E000BF00BFCA
:100A300040F22551014800F007F810BD0044004085
:100A40000A000020000C024010B50022002340F6EE
:100A50006A14A14200D100BF0A1201249440A3B23B
:100A6000DC43048010BD21B1828942F400528281AE
:100A700004E082894DF6FF731A408281704770B599
:100A80000246002400230025002040F66A16B142E9
:100A900000D100BFC1F3421501F01F03012606FA81
:100AA00003F3012D02D19689334006E0022D02D1D5
:100AB000168A334001E0968A33400C12012606FA6A
:100AC00004F41688344013B10CB1012000E000207A
:100AD00070BDF0B50346002400260025002040F636
:100AE0006A17B94200D100BF1846C1F3421401F0A1
:100AF0001F06012707FA06F5012C01D10C3004E08E
:100B0000022C01D1103000E014301AB107682F43D5
:100B1000076002E00768AF430760F0BD2DE9FF47BB
:100B200005460E460024A14600BFA046B08900B18C
:100B300000BF2C8A24F44054F08804432C82AC89F2
:100B400041F20C608443B0883189084371890843BD
:100B50000443AC81AC8A24F44074B0890443AC8271
:100B60006846FFF795FD2048854202D01F48854220
:100B700002D1DDF80C9001E0DDF80890A88900F4BE
:100B8000004040B109EBC90000EB09103168490091
:100B9000B0FBF1F707E009EBC90000EB0910316881
:100BA0008900B0FBF1F76420B7FBF0F004012009E5
:100BB000642101FB1078A88900F4004040B1322084
:100BC00000EBC800B0FBF1F000F00700044308E0C0
:100BD000322000EB08106421B0FBF1F000F00F00B0
:100BE00004432C81BDE8FF87001001400014014040
:100BF00001468888C0F308007047C1F3080282806C
:100C0000704700BFFEE7000070B5044600250AE00B
:100C100000210648FFF795FE00BF0448FFF77DFE60
:100C20000A28FAD36D1CA542F2D370BD0010004013
:100C30001CB501210220FFF70BFD01208DF80400F7
:100C400000208DF806008DF8070003208DF80500C0
:100C50000720009069460248FFF744FC1CBD0000D5
:100C6000000402401CB501210820FFF7F1FC01201F
:100C70008DF8040000208DF806008DF807008DF82F
:100C800005004FF47040009069460248FFF72AFCC7
:100C90001CBD0000000C0240FFF7CAFF00F02EF858
:100CA000FFF7E0FF00F040F817E020200B49087044
:100CB0000B4802780BA10D48FFF7DAFA0B4800F059
:100CC0009FF8064802780AA10848FFF7D1FA0748BA
:100CD00000F096F80848FFF797FFE6E701000020CC
:100CE000030000206125647A000000000B00002052
:100CF0006225647900000000400D03000EB501215B
:100D00001020FFF7B5FC5320ADF800004FF6FF7040
:100D1000019069460348FFF717FE01210148FFF7DC
:100D2000F0FD0EBD0010004000B587B00121480461
:100D3000FFF79EFC4FF4165003900020ADF818000A
:100D40000C20ADF816000020ADF81400ADF812002C
:100D5000ADF8100003A92048FFF7E0FE01211E486E
:100D6000FFF781FE012240F225511B48FFF7B1FE3B
:100D700001210846FFF76CFC02208DF808000C20CA
:100D8000019000208DF80A0001208DF80B00022050
:100D90008DF8090001A91148FFF7A4FB07220221E1
:100DA0000E48FFF7E7FB072203210C48FFF7E2FBA1
:100DB00026208DF8000001208DF801008DF802003A
:100DC0008DF803006846FFF705FC01210248FFF794
:100DD0004AFE07B000BD0000004400400000024091
:100DE00010B5044600BF0548008800F04000002808
:100DF000F9D021460148FFF700FF10BD0044004034
:100E000010B5044603E02078FFF7EAFF641C207861
:100E10000028F8D110BD4FF04070E1EE100A704785
:100E2000400E00080000002028000000C401000857
:100E3000680E00082800002060060000E00100089D
:100E400000000000000000000000000000000000A2
:100E50000B00000066E6F6420000000001020304F9
:080E6000010203040607080962
:040000050800018965
:00000001FF
