:020000040800F2
:10000000F006002031020008FB060008F306000895
:10001000F7060008DF0400087B0D00080000000060
:10002000000000000000000000000000A10800081F
:10003000E3040008000000007507000891090008AB
:100040004B0200084B0200084B0200084B0200085C
:100050004B0200084B020008E50400088505000873
:100060004B0200084B0200084B0200084B0200083C
:100070004B0200084B0200084B0200084B0200082C
:100080004B0200084B0200084B0200084B0200081C
:100090004B0200084B0200084B0200084B0200080C
:1000A0004B0200084B0200084B0200084B020008FC
:1000B0004B0200084B0200084B0200084B020008EC
:1000C0004B0200084B0200084B0200084B020008DC
:1000D0004B0200084B020008F90A00084B02000816
:1000E0004B0200084B0200084B0200084B020008BC
:1000F0004B0200084B0200084B0200084B020008AC
:100100004B0200084B0200084B0200084B0200089B
:100110004B0200084B0200084B020008FD090008D2
:100120004B0200084B0200084B0200084B0200087B
:100130004B0200084B0200084B0200084B0200086B
:100140004B0200084B0200084B0200084B0200085B
:100150004B0200084B0200084B0200084B0200084B
:100160004B0200084B0200084B0200084B0200083B
:100170004B0200084B0200084B0200084B0200082B
:100180004B0200084B02000800F002F800F041F8B2
:100190000AA090E8000C82448344AAF10107DA45E2
:1001A00001D100F036F8AFF2090EBAE80F0013F0F3
:1001B000010F18BFFB1A43F001031847C4140000D5
:1001C000E4140000103A24BF78C878C1FAD8520766
:1001D00024BF30C830C144BF04680C6070470000C1
:1001E0000023002400250026103A28BF78C1FBD840
:1001F000520728BF30C148BF0B607047642900F028
:100200007F80002070471FB501F035FA1FBD10B583
:1002100010BD00F02AF91146FFF7F5FF00F030FF9E
:1002200000F048F903B4FFF7F2FF03BC00F050F907
:100230000948804709480047FEE7FEE7FEE7FEE77A
:10024000FEE7FEE7FEE7FEE7FEE7FEE704480549B6
:10025000054A064B7047000095090008890100080F
:10026000F0000020F0060020F0020020F002002044
:100270000FB41CB5074B06AA7B446946009005984D
:1002800000F0DBF80020694600F0EAF81CBC5DF8DD
:1002900014FB0000E50100002DE9F0410E46044684
:1002A000002020622046E168884730B3252805D029
:1002B000D4E901219047206A401CF2E7E16820461A
:1002C00000278847050018D0A5F14100192802D859
:1002D00020354FF400673246294620462760FFF755
:1002E0008DFF40B1012804D0F61D26F00706083620
:1002F000D8E7361DD6E72846DAE7206ABDE8F08160
:100300002DE9F0410646002410687529314616A5EE
:1003100010D0AFF30080002802DA404213A507E0B6
:1003200031688A0701D512A502E0490704D511A555
:10033000012401E0AFF3008000210A2206F1240726
:1003400009E0B0FBF2FCB0FBF2F302FB1C00303022
:1003500078541846491C0028F3D123462A463046D3
:10036000BDE8F04100F00BB8000000002D000000D7
:100370002B000000200000007047704770472DE9F7
:10038000F0470D4699469246044600F1240801685C
:10039000880604D5E06921F01001216000E0012009
:1003A000A84201DD471B00E00027A1697A1902EB92
:1003B0000900081AA0612078C00602D42046AFF3D5
:1003C0000080002608E0D4E901211AF806009047D1
:1003D000206A401C761C20624E45F4DB2078C00663
:1003E0000AD52046AFF3008006E0D4E90121302091
:1003F0009047206A401C2062381EA7F10107F4DCF8
:1004000007E0D4E9012118F805009047206A401C54
:100410002062281EA5F10105F3DC2046AFF3008021
:100420002078000602D50220BDE8F0870120FBE716
:1004300001694A1C02610878704700B58FB0CDE9A8
:1004400001310021059105497944CDE90310114698
:100450006846FFF721FF0FB000BD0000E5FFFFFF7A
:100460000A6802F8010B0A607047754600F02CF824
:10047000AE4605006946534620F00700854618B091
:1004800020B5FFF7E3FEBDE820404FF000064FF037
:1004900000074FF000084FF0000B21F00701AC46B9
:1004A000ACE8C009ACE8C009ACE8C009ACE8C009D8
:1004B0008D46704710B50446AFF300802046BDE876
:1004C0001040FFF7AFBE00000048704790000020CA
:1004D00001491820ABBEFEE726000200704700BFAE
:1004E000FEE7704710B5012000F072F8002831D007
:1004F00042F2107000F0B8FC0121174800F0DFF85C
:1005000028BB16480088401C1449088014A200210A
:10051000084600F077FD17A20021012000F072FDCF
:1005200013E000F0CBFD15490870084690F9000073
:1005300000F026FC42F2107000F096FC10480078A3
:1005400018B100200E49087000E0EAE700BF012062
:1005500000F038F810BD0000000C02400A00002036
:100560004E686170206D6174206B6861753A20205F
:100570000000000020202020202000002700002074
:100580002800002010B5022000F022F890B142F2BD
:10059000107000F069FC0221074800F090F830B9B3
:1005A0000120064908708102054800F09CF80220ED
:1005B00000F008F810BD0000000C02401A000020F6
:1005C000000402400149086070470000143C0140EB
:1005D00001460020034A12680A400AB1012000E0E7
:1005E00000207047143C0140F0B50A46002100236A
:1005F000002400BF3DE0012505FA01F3156805EA76
:1006000003049C4234D105684F000326BE40B54325
:10061000056015794E00B5400668354305601579CB
:10062000012D02D01579022D16D185684F000326C1
:10063000BE40B543856055794E00B5408668354368
:100640008560456801268E40B543456045689679CA
:100650008E40B6B235434560C5684F000326BE40A4
:10066000B543C560D5794E00B540C6683543C56011
:10067000491C1029BFD3F0BDF0B5002300244D075D
:10068000ED0E02FA05F3CE1000F1200555F82650C4
:100690004E07F70E0F26BE40B543CF1000F12006DF
:1006A00046F82750CE1000F1200555F8265045EAAF
:1006B0000304CE1000F1200545F82640F0BD0246A7
:1006C000002013690B400BB1012000E000207047AF
:1006D0000246002053690B400BB1012000E00020CE
:1006E0007047418370470183704742694A404261C5
:1006F000704700BFFEE700BFFEE7704770B50021FE
:1007000000230F22C4781CB3174C246804F4E0645F
:10071000C4F5E064C4F30721C1F10404E3B20A4163
:1007200044789C40E1B28478144021430C07210EA8
:100730000E4C05786155047804F01F050124AC4087
:1007400005786D11AD0005F1E025C5F8004109E01F
:10075000047804F01F050124AC40054D067876119D
:1007600045F8264070BD00000CED00E000E400E01C
:1007700080E100E07047000029B1064A1268024398
:10078000044B1A6004E0034A12688243014B1A606A
:10079000704700003038024029B1064A126802430F
:1007A000044B1A6004E0034A12688243014B1A604A
:1007B0007047000040380240F0B5002100220024BC
:1007C000022500260223324F3F6807F00C0121B1B9
:1007D000042905D0082937D105E02E4F076036E0FF
:1007E0002D4F076033E02A4F3F1F3F68C7F3805605
:1007F000274F3F1F3F6807F03F036EB1264FB7FBFF
:10080000F3F7DFF88CC0ACF1040CDCF800C0CCF3DB
:10081000881C07FB0CF40CE01E4FB7FBF3F7DFF866
:1008200070C0ACF1040CDCF800C0CCF3881C07FBF2
:100830000CF4174F3F1F3F68C7F301477F1C7D0033
:10084000B4FBF5F7076002E0124F076000BF00BF7E
:100850000F4F3F6807F0F0010909104F7A5C0768F5
:10086000D74047600A4F3F6807F4E051890A0B4FB1
:100870007A5C4768D7408760054F3F6807F460415E
:10088000490B064F7A5C4768D740C760F0BD00004F
:10089000083802400024F40000127A0030000020E2
:1008A000704700000CB500200190009034480068AB
:1008B00040F480303249086000BF3148006800F4DD
:1008C000003000900198401C0190009818B90198E0
:1008D000B0F5A04FF1D12A48006800F4003010B103
:1008E0000120009001E0002000900098012846D1EE
:1008F00023484030006840F0805021494031086072
:100900002048006840F440401E4908601C480830F8
:1009100000681B49083108600846006840F4004040
:1009200008600846006840F4A05008601648091F97
:100930000860081F006840F08070091F086000BF51
:100940000F48006800F000700028F9D040F20570F0
:100950000E4908600A480830006820F00300084982
:10096000083108600846006840F00200086000BFD7
:1009700003480830006800F00C000828F8D10CBDCE
:10098000003802400070004008544007003C02401C
:100990007047000010B51548006840F47000134916
:1009A00008601348006840F0010011490860002009
:1009B0000F49083108600E4800680E4908400C498C
:1009C00008600D48091D0860081F006820F4802099
:1009D000091F0860002006490C310860FFF762FF1C
:1009E0004FF0006001498039086010BD88ED00E0DB
:1009F00000380240FFFFF6FE1030002410B5012140
:100A0000064800F021F840B10121044800F00AF83E
:100A10004FF470410248FFF768FE10BD001400401B
:100A2000000C0240CA430282704721B1028842F0A2
:100A30000102028004E002884FF6FE731A40028031
:100A400070470146486A704730B5024600200023CF
:100A50000024158A05EA0103958905EA010413B10A
:100A60000CB1012000E0002030BD8163704741627D
:100A70007047000000220288184B98420ED0184B95
:100A800098420BD0B0F1804F08D0164B984205D059
:100A9000154B984202D0154B984204D14FF68F73F4
:100AA0001A404B881A43124B984207D0114B984278
:100AB00004D04FF6FF431A400B891A4302804B685B
:100AC000C3620B880385054B984202D0044B9842C1
:100AD00001D18B7A03860123838270470000014095
:100AE000000401400004004000080040000C0040E9
:100AF000001000400014004010B540F225512D4870
:100B000000F079F8012854D12A4800F02DF92A493B
:100B1000087008460078612817D008DCA0F1410071
:100B200005283FD2DFE800F00C16202A34006228A6
:100B300015D063281DD0642825D0652832D12CE03B
:100B400001211E48FFF7CFFD2DE001211B48FFF7D3
:100B5000C8FD28E002211948FFF7C5FD23E0022166
:100B60001648FFF7BEFD1EE004211448FFF7BBFD49
:100B700019E004211148FFF7B4FD14E008210F48E3
:100B8000FFF7B1FD0FE008210C48FFF7AAFD0AE0CE
:100B900010210A48FFF7A7FD05E010210748FFF7DD
:100BA000A0FD00E000BF00BF40F22551014800F069
:100BB00007F810BD004400400C0000200004024073
:100BC00010B50022002340F66A14A14200D100BFF4
:100BD0000A1201249440A3B2DC43048010BD21B169
:100BE000828942F40052828104E082894DF6FF73CB
:100BF0001A408281704770B5024600240023002508
:100C0000002040F66A16B14200D100BFC1F3421580
:100C100001F01F03012606FA03F3012D02D1968984
:100C2000334006E0022D02D1168A334001E0968A55
:100C300033400C12012606FA04F41688344013B12E
:100C40000CB1012000E0002070BDF0B50346002487
:100C500000260025002040F66A17B94200D100BFE7
:100C60001846C1F3421401F01F06012707FA06F5E2
:100C7000012C01D10C3004E0022C01D1103000E035
:100C800014301AB107682F43076002E00768AF43CA
:100C90000760F0BD2DE9FF4705460E460024A1463A
:100CA00000BFA046B08900B100BF2C8A24F4405494
:100CB000F08804432C82AC8941F20C608443B088F4
:100CC00031890843718908430443AC81AC8A24F418
:100CD0004074B0890443AC826846FFF76DFD20483C
:100CE000854202D01F48854202D1DDF80C9001E018
:100CF000DDF80890A88900F4004040B109EBC90074
:100D000000EB091031684900B0FBF1F707E009EB8F
:100D1000C90000EB091031688900B0FBF1F76420CD
:100D2000B7FBF0F004012009642101FB1078A889C9
:100D300000F4004040B1322000EBC800B0FBF1F0FD
:100D400000F00700044308E0322000EB08106421A3
:100D5000B0FBF1F000F00F0004432C81BDE8FF87E9
:100D6000001001400014014001468888C0F30800CB
:100D70007047C1F308028280704700BFFEE70000A1
:100D800070B50446582C4DD02748017822460120E2
:100D900000F059F94CF2503000F066F82248017822
:100DA0002A22012000F04FF920481F4991F9001034
:100DB00044541D480078401C40B21B490870084646
:100DC000007805282ED100250FE018484057184913
:100DD0004957884208D017A20021084600F012F9AE
:100DE00000201149087002E06D1C052DEDDB00BFED
:100DF0000D48007805280FD113A20021084600F005
:100E000001F928211548FFF730FE154800F02CF8AD
:100E10005A211248FFF729FE0020034908700120DB
:100E20001049087070BD0000210000202200002041
:100E30001C0000204D6174206B686175207361692E
:100E400021202020000000004368616F206D756E36
:100E5000672062616E212020000000000004004035
:100E600020A107002800002070B5044600250AE0F4
:100E700000210648FFF7FBFD00BF0448FFF7E1FD36
:100E80000A28FAD36D1CA542F2D370BD00100040B1
:100E90001FB501210220FFF76FFC01208DF80C0027
:100EA00000208DF80E008DF80F0003208DF80D0046
:100EB00040F2FF70029002A90C48FFF795FB012158
:100EC0001020FFF759FC01208DF8040000208DF858
:100ED00006008DF8070003208DF805003F200090E4
:100EE00069460348FFF780FB1FBD00000004024075
:100EF0000010024070B505460C46002000E0401C82
:100F00004CF250318842FADB25B101213C48FFF711
:100F1000EAFB03E001213A48FFF7E3FB04F080001D
:100F200020B120213648FFF7DEFB03E020213448C2
:100F3000FFF7D7FB04F0400020B110213048FFF745
:100F4000D2FB03E010212E48FFF7CBFB04F020007A
:100F500020B108212A48FFF7C6FB03E008212848F2
:100F6000FFF7BFFB04F0100020B104212448FFF775
:100F7000BAFB03E004212248FFF7B3FB022120481B
:100F8000FFF7B1FB02211E48FFF7ABFB04F008009E
:100F900020B120211A48FFF7A6FB03E020211848C2
:100FA000FFF79FFB04F0040020B110211448FFF765
:100FB0009AFB03E010211248FFF793FB04F00200B4
:100FC00020B108210E48FFF78EFB03E008210C48F2
:100FD000FFF787FB04F0010020B104210848FFF768
:100FE00082FB03E004210648FFF77BFB0221044853
:100FF000FFF779FB02210248FFF773FB70BD000089
:101000000010024070B506460D46144616B1012E7A
:101010000ED106E005F18000C1B20020FFF76AFFA3
:1010200006E005F1C000C1B20020FFF763FF00BF7A
:1010300000BF04E021780120FFF75CFF641C2078EA
:101040000028F7D170BD70B505460C46164615B19F
:10105000012D0ED106E004F18000C1B20020FFF79F
:1010600049FF06E004F1C000C1B20020FFF742FFD3
:1010700000BF00BFF1B20120FFF73CFF70BD0000D0
:1010800000F044F900F058F900F040F9FFF700FFD4
:101090000FE00848FFF7E8FE07480068401C0649D3
:1010A000086008460068462801DD0020086000F05E
:1010B0009FF9EEE7801A06002C00002010B50421ED
:1010C0009048FFF70EFB08218E48FFF70CFB10211C
:1010D0008C48FFF708FB20218A48FFF704FB012119
:1010E0008948FFF7ECFA40B900BF01218648FFF7B5
:1010F000E6FA0028F9D0312010BD02218248FFF71E
:10110000DEFA40B900BF02217F48FFF7D8FA002875
:10111000F9D03220F0E704217B48FFF7D0FA40B93C
:1011200000BF04217848FFF7CAFA0028F9D033201D
:10113000E2E708217448FFF7C2FA40B900BF08216E
:101140007148FFF7BCFA0028F9D04120D4E7082104
:101150006C48FFF7C6FA10216A48FFF7C4FA20214D
:101160006848FFF7C0FA04216648FFF7BCFA01217E
:101170006548FFF7A4FA40B900BF01216248FFF7B4
:101180009EFA0028F9D03420B6E702215E48FFF726
:1011900096FA40B900BF02215B48FFF790FA002899
:1011A000F9D03520A8E704215748FFF788FA40B95D
:1011B00000BF04215448FFF782FA0028F9D03620F6
:1011C0009AE708215048FFF77AFA40B900BF082192
:1011D0004D48FFF774FA0028F9D042208CE710211F
:1011E0004848FFF77EFA20214648FFF77CFA0421A1
:1011F0004448FFF778FA08214248FFF774FA0121C2
:101200004148FFF75CFA40B900BF01213E48FFF7B3
:1012100056FA0028F9D037206EE702213A48FFF746
:101220004EFA40B900BF02213748FFF748FA0028BC
:10123000F9D0382060E704213348FFF740FA40B97D
:1012400000BF04213048FFF73AFA0028F9D03920CE
:1012500052E708212C48FFF732FA40B900BF0821B5
:101260002948FFF72CFA0028F9D0432044E7202131
:101270002448FFF736FA04212248FFF734FA082100
:101280002048FFF730FA10211E48FFF72CFA012101
:101290001D48FFF714FA40B900BF01211A48FFF7B3
:1012A0000EFA0028F9D02A2026E702211648FFF777
:1012B00006FA40B900BF02211348FFF700FA0028E0
:1012C000F9D0302018E704210F48FFF7F8F940B9AA
:1012D00000BF04210C48FFF7F2F90028F9D02320C1
:1012E0000AE708210848FFF7EAF940B900BF0821DA
:1012F0000548FFF7E4F90028F9D04420FCE658201F
:10130000FAE60000000C0240000802400EB5012180
:101310001020FFF741FA5320ADF800004FF6FF70A0
:10132000019069460348FFF7A5FB01210148FFF73B
:101330007CFB0EBD0010004000B587B001214804C1
:10134000FFF72AFA4FF4165003900020ADF818006A
:101350000C20ADF816000020ADF81400ADF8120016
:10136000ADF8100003A92048FFF794FC01211E48A6
:10137000FFF735FC012240F225511B48FFF765FCC1
:1013800001210846FFF7F8F902208DF808000C202B
:10139000019000208DF80A0001208DF80B0002203A
:1013A0008DF8090001A91148FFF71EF90722022153
:1013B0000E48FFF761F9072203210C48FFF75CF99B
:1013C00026208DF8000001208DF801008DF8020024
:1013D0008DF803006846FFF791F901210248FFF7F5
:1013E000FEFB07B000BD00000044004000000240CA
:1013F00010B5774800780C3076490870744800784A
:101400001330754908707348027874A17548FEF767
:101410002FFF7148027874A17548FEF729FF7B20E1
:10142000744908800846028873A17548FEF720FFBA
:1014300001217448FFF74CF9734908700846007899
:1014400018B14D207149087002E06D206F49087095
:1014500002216C48FFF73CF96D4908700846007896
:1014600018B14E206949487002E06E206749487003
:1014700004216448FFF72CF9664908700846007893
:1014800018B14F206149887002E06F205F49887071
:1014900008215C48FFF71CF95F490870084600788E
:1014A00018B150205949C87002E070205749C870DF
:1014B00010215448FFF70CF9584908700846007885
:1014C00018B151205149087102E071204F4908714B
:1014D00040214C48FFF7FCF8514908700846007855
:1014E00018B952204949487102E0722047494871B1
:1014F00020214448FFF7ECF84A4908700846007874
:1015000018B953204149887102E073203F4988711E
:1015100080213C48FFF7DCF8434908700846007812
:1015200018B154203949C87102E074203749C87194
:101530003E48007818B155203449087202E0752001
:10154000324908723A48007818B156202F4948723B
:1015500002E076202D4948723648007818B15720AD
:101560002A49887202E07720284988722148008839
:1015700040F6C411884203DD01202F49087002E0C3
:1015800000202D4908702C48007818B158201F49B8
:10159000C87202E078201D49C8722848007818B146
:1015A00059201A49087302E07920184908735F200E
:1015B00000F046F80B4800F053F80D4800F050F8E2
:1015C0000F4800F04DF8114800F04AF810BD000037
:1015D0002C000020030000200100002023256424AB
:1015E00000000000540000205E25642A0000000076
:1015F0006800002006000020212564400000000053
:101600007C000020000402400D000020400000206B
:101610000E0000200F00002010000020110000200C
:1016200012000020130000201400002015000020EC
:101630001600002017000020190000201A000020CA
:1016400010B5044600BF0548008800F0400000289F
:10165000F9D021460148FFF78CFB10BD0044004043
:1016600010B5044603E02078FFF7EAFF641C2078F9
:101670000028F8D110BD4FF04070E1EE100A70471D
:10168000A01600080000002040000000C40100086F
:10169000E016000840000020B0060000E00100084D
:1016A000000000000000000000000000000000003A
:1016B0000000000000000000000000003132333460
:1016C00035000000000000000000000000000000E5
:1016D00000000000010203040102030406070809D8
:040000050800018965
:00000001FF
