:020000040800F2
:100000009006002029020008A70400089F040008A9
:10001000A3040008E3020008050A0008000000002D
:10002000000000000000000000000000ED040008D7
:10003000E702000800000000A9040008DD05000830
:10004000430200084302000843020008430200087C
:100050004302000843020008E9020008890300087F
:10006000430200084302000843020008430200085C
:10007000430200084302000843020008430200084C
:10008000430200084302000843020008430200083C
:10009000430200084302000843020008430200082C
:1000A000430200084302000843020008430200081C
:1000B000430200084302000843020008430200080C
:1000C00043020008430200084302000843020008FC
:1000D00043020008430200085107000843020008D9
:1000E00043020008430200084302000843020008DC
:1000F00043020008430200084302000843020008CC
:1001000043020008430200084302000843020008BB
:1001100043020008430200084302000849060008A1
:10012000430200084302000843020008430200089B
:10013000430200084302000843020008430200088B
:10014000430200084302000843020008430200087B
:10015000430200084302000843020008430200086B
:10016000430200084302000843020008430200085B
:10017000430200084302000843020008430200084B
:10018000430200084302000800F002F800F03CF8C7
:100190000AA090E8000C82448344AAF10107DA45E2
:1001A00001D100F031F8AFF2090EBAE80F0013F0F8
:1001B000010F18BFFB1A43F001031847F00D0000B0
:1001C000100E0000103A24BF78C878C1FAD8520740
:1001D00024BF30C830C144BF04680C6070470000C1
:1001E0000023002400250026103A28BF78C1FBD840
:1001F000520728BF30C148BF0B6070471FB500F0E1
:10020000CFFE1FBD10B510BD00F031F81146FFF74D
:10021000F5FF00F077FD00F04FF803B4FFF7F2FFB1
:1002200003BC00F057F80000094880470948004720
:10023000FEE7FEE7FEE7FEE7FEE7FEE7FEE7FEE796
:10024000FEE7FEE704480549054A064B70470000F3
:10025000E1050008890100089000002090060020B8
:10026000900200209002002070477047704775464A
:1002700000F02CF8AE4605006946534620F0070012
:10028000854618B020B5FFF7DDFFBDE820404FF0F0
:1002900000064FF000074FF000084FF0000B21F070
:1002A0000701AC46ACE8C009ACE8C009ACE8C0093D
:1002B000ACE8C0098D46704710B50446AFF3008026
:1002C0002046BDE81040FFF7A8BF00000048704777
:1002D0002C00002001491820ABBEFEE726000200DA
:1002E000704700BFFEE7704710B5012000F072F8BC
:1002F000002831D042F2107000F0FAFB01211748BB
:1003000000F0BCF828BB16480088401C144908803F
:1003100014A20021084600F0B7FC17A2002101201A
:1003200000F0B2FC13E000F0FDFC1549087008462F
:1003300090F9000000F068FB42F2107000F0D8FB6A
:100340001048007818B100200E49087000E0EAE774
:1003500000BF012000F038F810BD0000000C024082
:100360000A0000204E686170206D6174206B686126
:10037000753A2020000000002020202020200000CE
:10038000270000202800002010B5022000F022F8ED
:1003900090B142F2107000F0ABFB0221074800F070
:1003A0006DF830B90120064908708102054800F057
:1003B00070F8022000F008F810BD0000000C0240A8
:1003C0001A00002000040240014908607047000044
:1003D000143C014001460020034A12680A400AB159
:1003E000012000E000207047143C0140F0B50A46AF
:1003F00000210023002400BF3DE0012505FA01F3A0
:10040000156805EA03049C4234D105684F000326B1
:10041000BE40B543056015794E00B54006683543CA
:1004200005601579012D02D01579022D16D1856848
:100430004F000326BE40B543856055794E00B54058
:10044000866835438560456801268E40B543456022
:10045000456896798E40B6B235434560C5684F0011
:100460000326BE40B543C560D5794E00B540C66889
:100470003543C560491C1029BFD3F0BD024600209A
:1004800013690B400BB1012000E00020704741834D
:1004900070470183704742694A404261704700BF1C
:1004A000FEE700BFFEE770477047000029B1064A2B
:1004B00012680243044B1A6004E0034A1268824344
:1004C000014B1A60704700003038024029B1064ADB
:1004D00012680243044B1A6004E0034A1268824324
:1004E000014B1A607047000040380240704700001E
:1004F0000CB50020019000903448006840F4803032
:100500003249086000BF3148006800F400300090B4
:100510000198401C0190009818B90198B0F5A04FBF
:10052000F1D12A48006800F4003010B10120009099
:1005300001E0002000900098012846D12348403077
:10054000006840F080502149403108602048006830
:1005500040F440401E4908601C48083000681B49B0
:10056000083108600846006840F40040086008460A
:10057000006840F4A05008601648091F0860081F72
:10058000006840F08070091F086000BF0F480068D5
:1005900000F000700028F9D040F205700E490860A4
:1005A0000A480830006820F0030008490831086054
:1005B0000846006840F00200086000BF03480830A9
:1005C000006800F00C000828F8D10CBD003802408B
:1005D0000070004008544007003C02407047000093
:1005E00010B51548006840F47000134908601348BE
:1005F000006840F001001149086000200F490831EF
:1006000008600E4800680E4908400C4908600D4813
:10061000091D0860081F006820F48020091F086079
:10062000002006490C310860FFF762FF4FF00060C0
:1006300001498039086010BD88ED00E000380240B3
:10064000FFFFF6FE1030002410B50121064800F02F
:1006500021F840B10121044800F00AF84FF470413C
:100660000248FFF718FF10BD00140040000C0240C4
:10067000CA430282704721B1028842F0010202801F
:1006800004E002884FF6FE731A400280704701466C
:10069000486A704730B50246002000230024158ABE
:1006A00005EA0103958905EA010413B10CB10120A3
:1006B00000E0002030BD4163704781637047C16333
:1006C0007047016470474162704700000022028851
:1006D000184B98420ED0184B98420BD0B0F1804F77
:1006E00008D0164B984205D0154B984202D0154BB6
:1006F000984204D14FF68F731A404B881A43124B1D
:10070000984207D0114B984204D04FF6FF431A404D
:100710000B891A4302804B68C3620B880385054B23
:10072000984202D0044B984201D18B7A0386012370
:100730008382704700000140000401400004004033
:1007400000080040000C0040001000400014004071
:1007500010B540F22551814800F025F901286FD1EC
:100760007E4800F04AF97E490870084600784C2817
:1007700067D019DC462854D00EDC432833D006DC81
:1007800030286ED041281AD042286BD121E044286D
:1007900033D04528F9D13AE04738052862D2DFE85E
:1007A00000F04A566272820061380C28F6D2DFE807
:1007B00000F00B151F29333D4953627282BB0121A2
:1007C0006848FFF766FEC2E001216648FFF75FFE5A
:1007D000BDE002216348FFF75CFEB8E002216148FA
:1007E000FFF755FEB3E004215E48FFF752FEAEE08E
:1007F00004215C48FFF74BFEA9E008215948FFF7A8
:1008000048FEA4E008215748FFF741FE9FE0102171
:100810005448FFF73EFE9AE010215248FFF737FE9A
:1008200095E040214F48FFF732FE90E040214D48CF
:10083000FFF72FFE8BE020214A48FFF728FE86E0D5
:100840008BE049E020214748FFF723FE7FE080212D
:100850004448FFF71EFE7AE080214248FFF717FE6A
:1008600075E030E072E001203F49087023213F48E5
:10087000FFF721FF6BE000203B4908704B213B480C
:10088000FFF719FF63E0012039490870502139480A
:10089000FFF711FF5BE00020354908701E21354845
:1008A000FFF709FF53E00120334908702321314845
:1008B000FFF705FF4BE000202F49087050212D481D
:1008C000FFF7FDFE43E04FF480612648FFF7DFFDB0
:1008D00000202A4908703AE00120294908700024C4
:1008E00009E04FF480711F48FFF7D5FD42F2107008
:1008F00000F0FEF8641C0A2CF3DB2249087800EBB8
:10090000D0714910A0EB410121B137211948FFF7FF
:10091000D8FE03E00F211748FFF7D3FE19480078EF
:10092000401C1849087012E0002015490870002486
:1009300009E04FF400710B48FFF7ADFD42F2107073
:1009400000F0D6F8641C0A2CF3DB00E000BF00BF07
:1009500040F22551014800F017F810BD0044004056
:100960000C00002000040240150000200018004088
:100970001600002000040040170000201A0000208C
:10098000180000201B00002010B50022002340F6B4
:100990006A14A14200D100BF0A1201249440A3B2FC
:1009A000DC43048010BD70B50246002400230025FE
:1009B000002040F66A16B14200D100BFC1F34215D3
:1009C00001F01F03012606FA03F3012D02D19689D7
:1009D000334006E0022D02D1168A334001E0968AA8
:1009E00033400C12012606FA04F41688344013B181
:1009F0000CB1012000E0002070BD01468888C0F3E2
:100A00000800704700BFFEE770B50446582C4DD073
:100A1000274801782246012000F057F94CF2503067
:100A200000F066F8224801782A22012000F04DF9F2
:100A300020481F4991F9001044541D480078401C7B
:100A400040B21B4908700846007805282ED10025C1
:100A50000FE01848405718494957884208D017A254
:100A60000021084600F010F900201149087002E04A
:100A70006D1C052DEDDB00BF0D48007805280FD15A
:100A800013A20021084600F0FFF828211548FFF7BF
:100A900014FE154800F02CF85A211248FFF70DFEFD
:100AA00000200349087001201049087070BD000043
:100AB00021000020220000201C0000204D61742035
:100AC0006B6861752073616921202020000000009F
:100AD0004368616F206D756E672062616E21202012
:100AE000000000000004004020A1070028000020B2
:100AF00070B5044600250AE000210648FFF7E3FD33
:100B000000BF0448FFF7C3FD0A28FAD36D1CA542B5
:100B1000F2D370BD001000401FB501210820FFF77F
:100B2000C5FC01210420FFF7C1FC01208DF80C0059
:100B300000208DF80E008DF80F008DF80D003C2080
:100B4000029002A90A48FFF751FC00208DF804002A
:100B50008DF8060001208DF8070000208DF80500B3
:100B60000F20009069460348FFF740FC1FBD0000BE
:100B7000000C02400008024070B505460C460020FB
:100B800000E0401C4CF250318842FADB25B10121D3
:100B90003C48FFF77EFC03E001213A48FFF777FC71
:100BA00004F0800020B120213648FFF772FC03E0FA
:100BB00020213448FFF76BFC04F0400020B11021E5
:100BC0003048FFF766FC03E010212E48FFF75FFC7A
:100BD00004F0200020B108212A48FFF75AFC03E066
:100BE00008212848FFF753FC04F0100020B104212D
:100BF0002448FFF74EFC03E004212248FFF747FC9E
:100C000002212048FFF745FC02211E48FFF73FFC68
:100C100004F0080020B120211A48FFF73AFC03E055
:100C200020211848FFF733FC04F0040020B1102104
:100C30001448FFF72EFC03E010211248FFF727FCB1
:100C400004F0020020B108210E48FFF722FC03E067
:100C500008210C48FFF71BFC04F0010020B104211F
:100C60000848FFF716FC03E004210648FFF70FFCD5
:100C700002210448FFF70DFC02210248FFF707FCA0
:100C800070BD00000010024070B506460D461446C7
:100C900016B1012E0ED106E005F18000C1B2002090
:100CA000FFF76AFF06E005F1C000C1B20020FFF7C0
:100CB00063FF00BF00BF04E021780120FFF75CFF65
:100CC000641C20780028F7D170BD70B505460C462D
:100CD000164615B1012D0ED106E004F18000C1B217
:100CE0000020FFF749FF06E004F1C000C1B2002078
:100CF000FFF742FF00BF00BFF1B20120FFF73CFF4A
:100D000070BD0000FFF708FF00F034F907E000F0C5
:100D100009F8034908704CF25030FFF7E9FEF6E796
:100D20002700002010B504219048FFF7B0FB0821F0
:100D30008E48FFF7AEFB10218C48FFF7AAFB20215D
:100D40008A48FFF7A6FB01218948FFF797FB40B9C6
:100D500000BF01218648FFF791FB0028F9D0312020
:100D600010BD02218248FFF789FB40B900BF022174
:100D70007F48FFF783FB0028F9D03220F0E70421F9
:100D80007B48FFF77BFB40B900BF04217848FFF7A1
:100D900075FB0028F9D03320E2E708217448FFF7FB
:100DA0006DFB40B900BF08217148FFF767FB0028C1
:100DB000F9D04120D4E708216C48FFF768FB1021E7
:100DC0006A48FFF766FB20216848FFF762FB0421B1
:100DD0006648FFF75EFB01216548FFF74FFB40B90E
:100DE00000BF01216248FFF749FB0028F9D03420F9
:100DF000B6E702215E48FFF741FB40B900BF022180
:100E00005B48FFF73BFB0028F9D03520A8E7042119
:100E10005748FFF733FB40B900BF04215448FFF7A0
:100E20002DFB0028F9D036209AE708215048FFF71B
:100E300025FB40B900BF08214D48FFF71FFB0028E4
:100E4000F9D042208CE710214848FFF720FB2021F1
:100E50004648FFF71EFB04214448FFF71AFB082110
:100E60004248FFF716FB01214148FFF707FB40B955
:100E700000BF01213E48FFF701FB0028F9D03720D1
:100E80006EE702213A48FFF7F9FA40B900BF0221A4
:100E90003748FFF7F3FA0028F9D0382060E704213B
:100EA0003348FFF7EBFA40B900BF04213048FFF7A1
:100EB000E5FA0028F9D0392052E708212C48FFF73D
:100EC000DDFA40B900BF08212948FFF7D7FA00280A
:100ED000F9D0432044E720212448FFF7D8FA042121
:100EE0002248FFF7D6FA08212048FFF7D2FA10214E
:100EF0001E48FFF7CEFA01211D48FFF7BFFA40B99F
:100F000000BF01211A48FFF7B9FA0028F9D02A20BA
:100F100026E702211648FFF7B1FA40B900BF0221C7
:100F20001348FFF7ABFA0028F9D0302018E7042166
:100F30000F48FFF7A3FA40B900BF04210C48FFF7A0
:100F40009DFA0028F9D023200AE708210848FFF776
:100F500095FA40B900BF08210548FFF78FFA00282D
:100F6000F9D04420FCE65820FAE60000000C0240CC
:100F7000000802400EB501211020FFF7A7FA532008
:100F8000ADF800004FF6FF70019069460348FFF787
:100F90009DFB01210148FFF76EFB0EBD00100040D4
:100FA0004FF04070E1EE100A70470000CC0F0008CF
:100FB000000000202C000000C4010008F80F000809
:100FC0002C00002064060000E00100080000000082
:100FD0000000000000000000000000000000000011
:100FE0000000000000000000313233343500000002
:080FF0000000000000000000F9
:040000050800018965
:00000001FF
