:020000040800F2
:100000007806002029020008270400081F040008C1
:1000100023040008E3020008710600080000000045
:100020000000000000000000000000006D04000857
:10003000E702000800000000290400085D05000830
:10004000430200084302000843020008430200087C
:100050004302000843020008E90200081D030008EB
:10006000430200084302000843020008430200085C
:10007000430200084302000843020008430200084C
:10008000430200084302000843020008430200083C
:10009000430200084302000843020008430200082C
:1000A000430200084302000843020008430200081C
:1000B000430200084302000843020008430200080C
:1000C00043020008430200084302000843020008FC
:1000D00043020008430200084302000843020008EC
:1000E00043020008430200084302000843020008DC
:1000F00043020008430200084302000843020008CC
:1001000043020008430200084302000843020008BB
:1001100043020008430200084302000843020008AB
:10012000430200084302000843020008430200089B
:10013000430200084302000843020008430200088B
:10014000430200084302000843020008430200087B
:10015000430200084302000843020008430200086B
:10016000430200084302000843020008430200085B
:10017000430200084302000843020008430200084B
:10018000430200084302000800F002F800F03CF8C7
:100190000AA090E8000C82448344AAF10107DA45E2
:1001A00001D100F031F8AFF2090EBAE80F0013F0F8
:1001B000010F18BFFB1A43F001031847A406000003
:1001C000C4060000103A24BF78C878C1FAD8520794
:1001D00024BF30C830C144BF04680C6070470000C1
:1001E0000023002400250026103A28BF78C1FBD840
:1001F000520728BF30C148BF0B6070471FB500F0E1
:1002000029FB1FBD10B510BD00F031F81146FFF7F6
:10021000F5FF00F043FA00F04FF803B4FFF7F2FFE8
:1002200003BC00F057F80000094880470948004720
:10023000FEE7FEE7FEE7FEE7FEE7FEE7FEE7FEE796
:10024000FEE7FEE704480549054A064B70470000F3
:100250006105000889010008780000207806002068
:10026000780200207802002070477047704775467A
:1002700000F02CF8AE4605006946534620F0070012
:10028000854618B020B5FFF7DDFFBDE820404FF0F0
:1002900000064FF000074FF000084FF0000B21F070
:1002A0000701AC46ACE8C009ACE8C009ACE8C0093D
:1002B000ACE8C0098D46704710B50446AFF3008026
:1002C0002046BDE81040FFF7A8BF00000048704777
:1002D0001800002001491820ABBEFEE726000200EE
:1002E000704700BFFEE7704710B5012000F036F8F8
:1002F00078B11A2000F0BEF90121064800F082F81A
:1003000020B105480068401C03490860012000F046
:100310001FF810BD000002400400002010B50220AC
:1003200000F01CF878B11A2000F0A4F90221064868
:1003300000F068F820B105480068401C03490860D7
:10034000022000F005F810BD00000240000000206F
:100350000149086070470000143C0140014600203C
:10036000034A12680A400AB1012000E000207047E9
:10037000143C0140F0B50A4600210023002400BFD0
:100380003DE0012505FA01F3156805EA03049C42E6
:1003900034D105684F000326BE40B543056015798A
:1003A0004E00B5400668354305601579012D02D031
:1003B0001579022D16D185684F000326BE40B5433E
:1003C000856055794E00B54086683543856045683F
:1003D00001268E40B5434560456896798E40B6B299
:1003E00035434560C5684F000326BE40B543C56030
:1003F000D5794E00B540C6683543C560491C102903
:10040000BFD3F0BD0246002013690B400BB10120A1
:1004100000E000207047418370470183704700BFB0
:10042000FEE700BFFEE770477047000029B1064AAB
:1004300012680243044B1A6004E0034A12688243C4
:10044000014B1A60704700003038024029B1064A5B
:1004500012680243044B1A6004E0034A12688243A4
:10046000014B1A607047000040380240704700009E
:100470000CB50020019000903448006840F48030B2
:100480003249086000BF3148006800F40030009035
:100490000198401C0190009818B90198B0F5A04F40
:1004A000F1D12A48006800F4003010B1012000901A
:1004B00001E0002000900098012846D123484030F8
:1004C000006840F0805021494031086020480068B1
:1004D00040F440401E4908601C48083000681B4931
:1004E000083108600846006840F40040086008468B
:1004F000006840F4A05008601648091F0860081FF3
:10050000006840F08070091F086000BF0F48006855
:1005100000F000700028F9D040F205700E49086024
:100520000A480830006820F00300084908310860D4
:100530000846006840F00200086000BF0348083029
:10054000006800F00C000828F8D10CBD003802400B
:100550000070004008544007003C02407047000013
:1005600010B51548006840F470001349086013483E
:10057000006840F001001149086000200F4908316F
:1005800008600E4800680E4908400C4908600D4894
:10059000091D0860081F006820F48020091F0860FA
:1005A000002006490C310860FFF762FF4FF0006041
:1005B00001498039086010BD88ED00E00038024034
:1005C000FFFFF6FE1030002421B1028842F0010244
:1005D000028004E002884FF6FE731A4002807047E2
:1005E0000146486A70474162704700000022028855
:1005F000184B98420ED0184B98420BD0B0F1804F58
:1006000008D0164B984205D0154B984202D0154B96
:10061000984204D14FF68F731A404B881A43124BFD
:10062000984207D0114B984204D04FF6FF431A402E
:100630000B891A4302804B68C3620B880385054B04
:10064000984202D0044B984201D18B7A0386012351
:100650008382704700000140000401400004004014
:1006600000080040000C0040001000400014004052
:1006700000BFFEE770B5044600250AE000210648E9
:10068000FFF7B1FF00BF0448FFF7AAFF0A28FAD31B
:100690006D1CA542F2D370BD001000400121084638
:1006A000FFF7C4FE00F0C0F833E000F075F800F08A
:1006B00093F800F03FF81749087000F03BF816492E
:1006C000087000F037F81549087000F033F8144945
:1006D000087000F02FF8134908700E4800780E4992
:1006E000097808440D49097808440D4909780844F7
:1006F0000C490978884204D10B480068401C0A491B
:1007000008600A48FFF7B6FF09480068401C08491E
:100710000860CAE71100002012000020130000202A
:10072000140000201500002000000020A086010019
:100730000400002010B5002424E000BF402114482C
:10074000FFF760FE0028F9D00520FFF793FF402156
:100750000F48FFF757FE38B10E480078012101EB32
:1007600040000C49087005E00A4800784006000E79
:100770000849087000BF40210548FFF743FE0028E4
:10078000F9D1641C082CD8DB0248007810BD0000A9
:10079000000002401000002010B501200C49087133
:1007A00000208871C8710320487140200860094802
:1007B000FFF7E0FD40210748FFF72DFE4FF4FA60F8
:1007C000FFF758FF40210348FFF727FE10BD000048
:1007D000080000200000024010B5002010490871F8
:1007E0008871C87103204871402008600D48FFF7E8
:1007F000C1FD00BF40210B48FFF704FE0028F9D1DE
:1008000000BF40210748FFF7FDFD0028F9D000BFD9
:1008100040210448FFF7F6FD0028F9D110BD000083
:1008200008000020000002400EB501211020FFF753
:100830000DFE5320ADF800004FF6FF7001906946A1
:100840000348FFF7D3FE01210148FFF7BDFE0EBDAF
:10085000001000404FF04070E1EE100A70470000B9
:10086000800800080000002018000000C4010008F3
:10087000980800081800002060060000E001000849
:100880000000000000000000000000000000000068
:08089000000000000000000060
:040000050800018965
:00000001FF
