:020000040800F2
:10000000F006002031020008FB060008F306000895
:10001000F7060008DF0400085B100008000000007D
:10002000000000000000000000000000A10800081F
:10003000E3040008000000007507000891090008AB
:100040004B0200084B0200084B0200084B0200085C
:100050004B0200084B020008E50400088505000873
:100060004B0200084B0200084B0200084B0200083C
:100070004B0200084B0200084B0200084B0200082C
:100080004B0200084B0200084B0200084B0200081C
:100090004B0200084B0200084B0200084B0200080C
:1000A0004B0200084B0200084B0200084B020008FC
:1000B0004B0200084B0200084B0200084B020008EC
:1000C0004B0200084B0200084B0200084B020008DC
:1000D0004B0200084B020008950D00084B02000877
:1000E0004B0200084B0200084B0200084B020008BC
:1000F0004B0200084B0200084B0200084B020008AC
:100100004B0200084B0200084B0200084B0200089B
:100110004B0200084B0200084B020008FD090008D2
:100120004B0200084B0200084B0200084B0200087B
:100130004B0200084B0200084B0200084B0200086B
:100140004B0200084B0200084B0200084B0200085B
:100150004B0200084B0200084B0200084B0200084B
:100160004B0200084B0200084B0200084B0200083B
:100170004B0200084B0200084B0200084B0200082B
:100180004B0200084B02000800F002F800F041F8B2
:100190000AA090E8000C82448344AAF10107DA45E2
:1001A00001D100F036F8AFF2090EBAE80F0013F0F3
:1001B000010F18BFFB1A43F001031847881900000C
:1001C000A8190000103A24BF78C878C1FAD852079D
:1001D00024BF30C830C144BF04680C6070470000C1
:1001E0000023002400250026103A28BF78C1FBD840
:1001F000520728BF30C148BF0B607047642900F028
:100200007F80002070471FB501F097FC1FBD10B51F
:1002100010BD00F02AF91146FFF7F5FF01F0A0F834
:1002200000F048F903B4FFF7F2FF03BC00F050F907
:100230000948804709480047FEE7FEE7FEE7FEE77A
:10024000FEE7FEE7FEE7FEE7FEE7FEE704480549B6
:10025000054A064B7047000095090008890100080F
:10026000F0000020F0060020F0020020F002002044
:100270000FB41CB5074B06AA7B446946009005984D
:1002800000F0DBF80020694600F0EAF81CBC5DF8DD
:1002900014FB0000E50100002DE9F0410E46044684
:1002A000002020622046E168884730B3252805D029
:1002B000D4E901219047206A401CF2E7E16820461A
:1002C00000278847050018D0A5F14100192802D859
:1002D00020354FF400673246294620462760FFF755
:1002E0008DFF40B1012804D0F61D26F00706083620
:1002F000D8E7361DD6E72846DAE7206ABDE8F08160
:100300002DE9F0410646002410687529314616A5EE
:1003100010D0AFF30080002802DA404213A507E0B6
:1003200031688A0701D512A502E0490704D511A555
:10033000012401E0AFF3008000210A2206F1240726
:1003400009E0B0FBF2FCB0FBF2F302FB1C00303022
:1003500078541846491C0028F3D123462A463046D3
:10036000BDE8F04100F00BB8000000002D000000D7
:100370002B000000200000007047704770472DE9F7
:10038000F0470D4699469246044600F1240801685C
:10039000880604D5E06921F01001216000E0012009
:1003A000A84201DD471B00E00027A1697A1902EB92
:1003B0000900081AA0612078C00602D42046AFF3D5
:1003C0000080002608E0D4E901211AF806009047D1
:1003D000206A401C761C20624E45F4DB2078C00663
:1003E0000AD52046AFF3008006E0D4E90121302091
:1003F0009047206A401C2062381EA7F10107F4DCF8
:1004000007E0D4E9012118F805009047206A401C54
:100410002062281EA5F10105F3DC2046AFF3008021
:100420002078000602D50220BDE8F0870120FBE716
:1004300001694A1C02610878704700B58FB0CDE9A8
:1004400001310021059105497944CDE90310114698
:100450006846FFF721FF0FB000BD0000E5FFFFFF7A
:100460000A6802F8010B0A607047754600F02CF824
:10047000AE4605006946534620F00700854618B091
:1004800020B5FFF7E3FEBDE820404FF000064FF037
:1004900000074FF000084FF0000B21F00701AC46B9
:1004A000ACE8C009ACE8C009ACE8C009ACE8C009D8
:1004B0008D46704710B50446AFF300802046BDE876
:1004C0001040FFF7AFBE00000048704790000020CA
:1004D00001491820ABBEFEE726000200704700BFAE
:1004E000FEE7704710B5012000F072F8002831D007
:1004F00042F2107000F028FE0121174800F0DFF8EA
:1005000028BB16480088401C1449088014A200210A
:10051000084600F0E7FE17A20021012000F0E2FEED
:1005200013E000F043FF15490870084690F90000F9
:1005300000F096FD42F2107000F006FE10480078C0
:1005400018B100200E49087000E0EAE700BF012062
:1005500000F038F810BD0000000C02400A00002036
:100560004E686170206D6174206B6861753A20205F
:100570000000000020202020202000002700002074
:100580002800002010B5022000F022F890B142F2BD
:10059000107000F0D9FD0221074800F090F830B942
:1005A0000120064908708102054800F09CF80220ED
:1005B00000F008F810BD0000000C02401A000020F6
:1005C000000402400149086070470000143C0140EB
:1005D00001460020034A12680A400AB1012000E0E7
:1005E00000207047143C0140F0B50A46002100236A
:1005F000002400BF3DE0012505FA01F3156805EA76
:1006000003049C4234D105684F000326BE40B54325
:10061000056015794E00B5400668354305601579CB
:10062000012D02D01579022D16D185684F000326C1
:10063000BE40B543856055794E00B5408668354368
:100640008560456801268E40B543456045689679CA
:100650008E40B6B235434560C5684F000326BE40A4
:10066000B543C560D5794E00B540C6683543C56011
:10067000491C1029BFD3F0BDF0B5002300244D075D
:10068000ED0E02FA05F3CE1000F1200555F82650C4
:100690004E07F70E0F26BE40B543CF1000F12006DF
:1006A00046F82750CE1000F1200555F8265045EAAF
:1006B0000304CE1000F1200545F82640F0BD0246A7
:1006C000002013690B400BB1012000E000207047AF
:1006D0000246002053690B400BB1012000E00020CE
:1006E0007047418370470183704742694A404261C5
:1006F000704700BFFEE700BFFEE7704770B50021FE
:1007000000230F22C4781CB3174C246804F4E0645F
:10071000C4F5E064C4F30721C1F10404E3B20A4163
:1007200044789C40E1B28478144021430C07210EA8
:100730000E4C05786155047804F01F050124AC4087
:1007400005786D11AD0005F1E025C5F8004109E01F
:10075000047804F01F050124AC40054D067876119D
:1007600045F8264070BD00000CED00E000E400E01C
:1007700080E100E07047000029B1064A1268024398
:10078000044B1A6004E0034A12688243014B1A606A
:10079000704700003038024029B1064A126802430F
:1007A000044B1A6004E0034A12688243014B1A604A
:1007B0007047000040380240F0B5002100220024BC
:1007C000022500260223324F3F6807F00C0121B1B9
:1007D000042905D0082937D105E02E4F076036E0FF
:1007E0002D4F076033E02A4F3F1F3F68C7F3805605
:1007F000274F3F1F3F6807F03F036EB1264FB7FBFF
:10080000F3F7DFF88CC0ACF1040CDCF800C0CCF3DB
:10081000881C07FB0CF40CE01E4FB7FBF3F7DFF866
:1008200070C0ACF1040CDCF800C0CCF3881C07FBF2
:100830000CF4174F3F1F3F68C7F301477F1C7D0033
:10084000B4FBF5F7076002E0124F076000BF00BF7E
:100850000F4F3F6807F0F0010909104F7A5C0768F5
:10086000D74047600A4F3F6807F4E051890A0B4FB1
:100870007A5C4768D7408760054F3F6807F460415E
:10088000490B064F7A5C4768D740C760F0BD00004F
:10089000083802400024F40000127A0030000020E2
:1008A000704700000CB500200190009034480068AB
:1008B00040F480303249086000BF3148006800F4DD
:1008C000003000900198401C0190009818B90198E0
:1008D000B0F5A04FF1D12A48006800F4003010B103
:1008E0000120009001E0002000900098012846D1EE
:1008F00023484030006840F0805021494031086072
:100900002048006840F440401E4908601C480830F8
:1009100000681B49083108600846006840F4004040
:1009200008600846006840F4A05008601648091F97
:100930000860081F006840F08070091F086000BF51
:100940000F48006800F000700028F9D040F20570F0
:100950000E4908600A480830006820F00300084982
:10096000083108600846006840F00200086000BFD7
:1009700003480830006800F00C000828F8D10CBDCE
:10098000003802400070004008544007003C02401C
:100990007047000010B51548006840F47000134916
:1009A00008601348006840F0010011490860002009
:1009B0000F49083108600E4800680E4908400C498C
:1009C00008600D48091D0860081F006820F4802099
:1009D000091F0860002006490C310860FFF762FF1C
:1009E0004FF0006001498039086010BD88ED00E0DB
:1009F00000380240FFFFF6FE1030002410B5012140
:100A0000064800F021F840B10121044800F00AF83E
:100A10004FF470410248FFF768FE10BD001400401B
:100A2000000C0240CA430282704721B1028842F0A2
:100A30000102028004E002884FF6FE731A40028031
:100A400070470146486A704730B5024600200023CF
:100A50000024158A05EA0103958905EA010413B10A
:100A60000CB1012000E0002030BD000070B5002472
:100A700000220023058C4FF6FE7635400584028C5B
:100A80008388048B4FF68F752C40B51E2C400D8843
:100A90002C43751E2A408D892A434D882A43104DC8
:100AA000A84202D00F4DA84213D14FF6F7752A4045
:100AB000CD892A434FF6FB752A408D882A434FF68D
:100AC000FF652B404FF6FF552B400D8A2B434D8A77
:100AD0002B43838004838D684563028470BD0000CE
:100AE00000000140000401400A460021018B4FF63E
:100AF000F7731940114301837047000070B500245B
:100B000000220023058C4FF6EF7635400584028CD9
:100B10008388048B48F6FF752C404FF6FF452C4028
:100B20000D884FF6FF7606EA05252C434FF6DF7554
:100B30002A408D8906EA05152A434D8806EA0515DF
:100B40002A43154DA84202D0144DA8421DD14FF69C
:100B50007F752A40CD894FF6FF7606EA05152A43B0
:100B60004FF6BF752A408D8806EA05152A434FF6D1
:100B7000FF352B404FF2FF752B400D8A06EA8505A5
:100B80002B434D8A06EA85052B43838004838D68B9
:100B90008563028470BD0000000001400004014034
:100BA0000A460021018B4FF2FF7319404FF6FF7385
:100BB00003EA0223194301837047000070B5002443
:100BC00000220023058C4FF6FF6635400584028C19
:100BD0008388848B4FF68F752C404FF6FC752C4024
:100BE0000D882C434FF6FF552A408D894FF6FF762E
:100BF00006EA05252A434D8806EA05252A43154DB0
:100C0000A84202D0144DA8421DD14FF2FF752A40D0
:100C1000CD894FF6FF7606EA05252A434FF6FF35C4
:100C20002A408D8806EA05252A434EF6FF752B409B
:100C30004DF6FF752B400D8A06EA05152B434D8AAC
:100C400006EA05152B43838084838D68C56302847F
:100C500070BD000000000140000401400A46002170
:100C6000818B4FF6F7731940114381837047000061
:100C700070B5002200230024058C4EF6FF76354027
:100C80000584038C8488828B48F6FF752A404FF6D2
:100C9000FF452A400D884FF6FF7606EA05252A43D0
:100CA0004DF6FF752B408D8906EA05352B434D889F
:100CB00006EA05352B430A4DA84202D0094DA84249
:100CC00008D14BF6FF752C400D8A4FF6FF7606EAE9
:100CD00085152C43848082838D680564038470BDF0
:100CE00000000140000401400A460021818B4FF2C0
:100CF000FF7319404FF6FF7303EA02231943818300
:100D0000704781637047C16370474162704700005C
:100D100000220288184B98420ED0184B98420BD0F4
:100D2000B0F1804F08D0164B984205D0154B984231
:100D300002D0154B984204D14FF68F731A404B885E
:100D40001A43124B984207D0114B984204D04FF6E9
:100D5000FF431A400B891A4302804B68C3620B8819
:100D60000385054B984202D0044B984201D18B7AFF
:100D70000386012383827047000001400004014084
:100D80000004004000080040000C0040001000403B
:100D90000014004010B540F225513B4800F09BF88C
:100DA000012870D1384800F04FF9384908700846DA
:100DB000007861281BD00BDCA0F141000B285BD22E
:100DC000DFE800F0101A242E385A5A5A5A424A00C4
:100DD00062380A2850D2DFE800F0141E28324F4F44
:100DE0004F4F3B4701212A48FFF77DFC45E0012199
:100DF0002748FFF776FC40E002212548FFF773FC07
:100E00003BE002212248FFF76CFC36E00421204839
:100E1000FFF769FC31E004211D48FFF762FC2CE07C
:100E200008211B48FFF75FFC27E008211848FFF75F
:100E300058FC22E010211648FFF755FC1DE0102158
:100E40001348FFF74EFC18E001201249087014E027
:100E500000201049087010E001200F49087023217C
:100E60000E48FFF750FF08E000200B4908705021A2
:100E70000A48FFF748FF00E000BF00BF40F22551DD
:100E8000014800F00DF810BD004400400C000020A7
:100E9000000402401600002017000020000400405B
:100EA00010B50022002340F66A14A14200D100BF11
:100EB0000A1201249440A3B2DC43048010BD21B186
:100EC000828942F40052828104E082894DF6FF73E8
:100ED0001A408281704770B5024600240023002525
:100EE000002040F66A16B14200D100BFC1F342159E
:100EF00001F01F03012606FA03F3012D02D19689A2
:100F0000334006E0022D02D1168A334001E0968A72
:100F100033400C12012606FA04F41688344013B14B
:100F20000CB1012000E0002070BDF0B503460024A4
:100F300000260025002040F66A17B94200D100BF04
:100F40001846C1F3421401F01F06012707FA06F5FF
:100F5000012C01D10C3004E0022C01D1103000E052
:100F600014301AB107682F43076002E00768AF43E7
:100F70000760F0BD2DE9FF4705460E460024A14657
:100F800000BFA046B08900B100BF2C8A24F44054B1
:100F9000F08804432C82AC8941F20C608443B08811
:100FA00031890843718908430443AC81AC8A24F435
:100FB0004074B0890443AC826846FFF7FDFB2048CB
:100FC000854202D01F48854202D1DDF80C9001E035
:100FD000DDF80890A88900F4004040B109EBC90091
:100FE00000EB091031684900B0FBF1F707E009EBAD
:100FF000C90000EB091031688900B0FBF1F76420EB
:10100000B7FBF0F004012009642101FB1078A889E6
:1010100000F4004040B1322000EBC800B0FBF1F01A
:1010200000F00700044308E0322000EB08106421C0
:10103000B0FBF1F000F00F0004432C81BDE8FF8706
:10104000001001400014014001468888C0F30800E8
:101050007047C1F308028280704700BFFEE70000BE
:1010600070B50446582C4DD02748017822460120FF
:1010700000F059F94CF2503000F066F8224801783F
:101080002A22012000F04FF920481F4991F9001051
:1010900044541D480078401C40B21B490870084663
:1010A000007805282ED100250FE018484057184930
:1010B0004957884208D017A20021084600F012F9CB
:1010C00000201149087002E06D1C052DEDDB00BF0A
:1010D0000D48007805280FD113A20021084600F022
:1010E00001F928211548FFF70CFE154800F02CF8EF
:1010F0005A211248FFF705FE00200349087001201D
:101100001049087070BD000021000020220000205E
:101110001C0000204D6174206B686175207361694B
:1011200021202020000000004368616F206D756E53
:10113000672062616E212020000000000004004052
:1011400020A107002800002070B5044600250AE011
:1011500000210648FFF7D9FD00BF0448FFF771FCE6
:101160000A28FAD36D1CA542F2D370BD00100040CE
:101170001FB501210220FFF7FFFA01208DF80C00B6
:1011800000208DF80E008DF80F0003208DF80D0063
:1011900040F2FF70029002A90C48FFF725FA0121E6
:1011A0001020FFF7E9FA01208DF8040000208DF8E7
:1011B00006008DF8070003208DF805003F20009001
:1011C00069460348FFF710FA1FBD00000004024003
:1011D0000010024070B505460C46002000E0401C9F
:1011E0004CF250318842FADB25B101213C48FFF72F
:1011F0007AFA03E001213A48FFF773FA04F080001D
:1012000020B120213648FFF76EFA03E02021344850
:10121000FFF767FA04F0400020B110213048FFF7D3
:1012200062FA03E010212E48FFF75BFA04F0200079
:1012300020B108212A48FFF756FA03E00821284880
:10124000FFF74FFA04F0100020B104212448FFF703
:101250004AFA03E004212248FFF743FA022120481A
:10126000FFF741FA02211E48FFF73BFA04F008009D
:1012700020B120211A48FFF736FA03E02021184850
:10128000FFF72FFA04F0040020B110211448FFF7F3
:101290002AFA03E010211248FFF723FA04F00200B3
:1012A00020B108210E48FFF71EFA03E008210C4880
:1012B000FFF717FA04F0010020B104210848FFF7F6
:1012C00012FA03E004210648FFF70BFA0221044852
:1012D000FFF709FA02210248FFF703FA70BD000088
:1012E0000010024070B506460D46144616B1012E98
:1012F0000ED106E005F18000C1B20020FFF76AFFC1
:1013000006E005F1C000C1B20020FFF763FF00BF97
:1013100000BF04E021780120FFF75CFF641C207807
:101320000028F7D170BD70B505460C46164615B1BC
:10133000012D0ED106E004F18000C1B20020FFF7BC
:1013400049FF06E004F1C000C1B20020FFF742FFF0
:1013500000BF00BFF1B20120FFF73CFF70BD0000ED
:1013600000F022FA00F036FA00F01EFAFFF700FF54
:1013700000F044F950210A48FFF7C5FC0FE0094886
:10138000FFF7E2FE08480068401C0749086008466D
:1013900000680F2801DD0020086000F077FAEEE712
:1013A00000040040400D03002C00002010B5042173
:1013B0009048FFF796F908218E48FFF794F910211D
:1013C0008C48FFF790F920218A48FFF78CF901211A
:1013D0008948FFF774F940B900BF01218648FFF73B
:1013E0006EF90028F9D0312010BD02218248FFF7A4
:1013F00066F940B900BF02217F48FFF760F9002875
:10140000F9D03220F0E704217B48FFF758F940B9C2
:1014100000BF04217848FFF752F90028F9D03320A3
:10142000E2E708217448FFF74AF940B900BF0821F4
:101430007148FFF744F90028F9D04120D4E708218A
:101440006C48FFF74EF910216A48FFF74CF920214C
:101450006848FFF748F904216648FFF744F901217D
:101460006548FFF72CF940B900BF01216248FFF73A
:1014700026F90028F9D03420B6E702215E48FFF7AC
:101480001EF940B900BF02215B48FFF718F9002898
:10149000F9D03520A8E704215748FFF710F940B9E3
:1014A00000BF04215448FFF70AF90028F9D036207C
:1014B0009AE708215048FFF702F940B900BF082118
:1014C0004D48FFF7FCF80028F9D042208CE71021A6
:1014D0004848FFF706F920214648FFF704F90421A0
:1014E0004448FFF700F908214248FFF7FCF80121C2
:1014F0004148FFF7E4F840B900BF01213E48FFF73B
:10150000DEF80028F9D037206EE702213A48FFF7CD
:10151000D6F840B900BF02213748FFF7D0F80028BD
:10152000F9D0382060E704213348FFF7C8F840B904
:1015300000BF04213048FFF7C2F80028F9D0392055
:1015400052E708212C48FFF7BAF840B900BF08213C
:101550002948FFF7B4F80028F9D0432044E72021B8
:101560002448FFF7BEF804212248FFF7BCF8082101
:101570002048FFF7B8F810211E48FFF7B4F8012102
:101580001D48FFF79CF840B900BF01211A48FFF73A
:1015900096F80028F9D02A2026E702211648FFF7FE
:1015A0008EF840B900BF02211348FFF788F80028E1
:1015B000F9D0302018E704210F48FFF780F840B930
:1015C00000BF04210C48FFF77AF80028F9D0232047
:1015D0000AE708210848FFF772F840B900BF082160
:1015E0000548FFF76CF80028F9D04420FCE65820A5
:1015F000FAE60000000C02400008024000B58FB07F
:1016000001210220FFF7C8F801210420FFF7B4F8F8
:1016100001210802FFF7C0F801210846FFF7ACF8E6
:1016200001214020FFF7B8F801210220FFF7A4F8BC
:1016300002208DF8380000208DF83A008DF83B002C
:101640008DF839004FF470700D900DA95048FEF7D9
:10165000CBFF02208DF8300000208DF832008DF88D
:1016600033008DF8310080200B900BA94948FEF71C
:10167000BBFF02208DF8280000208DF82A008DF88D
:101680002B008DF829004FF48040099009A94248A9
:10169000FEF7AAFF40F28F60ADF8180040F2E73085
:1016A00007900020ADF82000ADF81A0006A93B48CD
:1016B000FFF72EFB01213948FFF7B7F906A9384893
:1016C000FFF726FB01213648FFF7AFF906A9354899
:1016D000FFF71EFB01213348FFF7A7F96020ADF8A3
:1016E00004000020ADF8100003900120ADF80600C2
:1016F00001A92A48FFF7BAF901A92848FFF7FEF91E
:1017000001A92648FFF75AFA01A92448FFF7B0FAC1
:1017100001A92348FFF7AAF901A92248FFF7A6F972
:1017200008211E48FFF7E0F908211C48FFF738FAA6
:1017300008211A48FFF792FA08211848FFF7D4FA4F
:1017400008211748FFF7D0F908211648FFF7CCF910
:10175000022206210E48FEF78FFF022207210C48C5
:10176000FEF78AFF022208210948FEF785FF0222C0
:1017700009210748FEF780FF092207210548FEF7E7
:101780007BFF09220E210448FEF776FF0FB000BD53
:101790000008024000000240000402400004004033
:1017A00000200040001800400EB501211020FEF777
:1017B000F3FF5320ADF800004FF6FF70019069462B
:1017C0000348FFF7A5FA01210148FFF72EF90EBDE6
:1017D0000010004000B587B001214804FEF7DCFF8F
:1017E0004FF4165003900020ADF818000C20ADF80F
:1017F00016000020ADF81400ADF81200ADF810008E
:1018000003A92048FFF7B6FB01211E48FFF757FB4D
:10181000012240F225511B48FFF787FB01210846B2
:10182000FEF7AAFF02208DF808000C20019000208E
:101830008DF80A0001208DF80B0002208DF80900B8
:1018400001A91148FEF7D0FE072202210E48FEF73B
:1018500013FF072203210C48FEF70EFF26208DF808
:10186000000001208DF801008DF802008DF80300C2
:101870006846FEF743FF01210248FFF720FB07B04F
:1018800000BD0000004400400000024010B5804848
:1018900000780C307F4908707D48007813307E490D
:1018A00008707C4802787DA17E48FEF7E1FC7A480A
:1018B00002787DA17E48FEF7DBFC75480088643025
:1018C0007C490880084602887BA17D48FEF7D0FC51
:1018D00001217C48FEF7FCFE7B4908700846007831
:1018E00018B141207949087002E0612077490870F9
:1018F00002217448FEF7ECFE75490870084600782E
:1019000018B142207149487002E062206F49487066
:1019100004216C48FEF7DCFE6E490870084600782A
:1019200018B143206949887002E0632067498870D4
:1019300008216448FEF7CCFE674908700846007825
:1019400018B144206149C87002E064205F49C87042
:1019500010215C48FEF7BCFE60490870084600781C
:1019600018B145205949087102E0652057490871AE
:1019700040215448FEF7ACFE5949087008460078EB
:1019800018B946205149487102E066204F49487114
:1019900020214C48FEF79CFE52490870084600780A
:1019A00018B947204949887102E067204749887182
:1019B00080214448FEF78CFE4B49087008460078A9
:1019C00018B148204149C87102E068203F49C871F8
:1019D0004648007818B149203C49087202E0692065
:1019E0003A49087233484088B0F5FA6F02DA0020AD
:1019F0003F4908703E48007818B14A203349487280
:101A000002E06A20314948722A4800886E2806DDC3
:101A100001203849087023213748FFF774F9354809
:101A2000007818B14B202949887202E06B202749C1
:101A30008872204800886E2803DD01202F49087035
:101A400002E000202D4908702C48007818B14C2085
:101A50001E49C87202E06C201C49C87228480078F0
:101A600018B14D201949087302E06D201749087319
:101A70005F2000F047F80B4800F054F80C4800F0E5
:101A800051F80F4800F04EF8104800F04BF810BD28
:101A90002C000020030000200100002023256424E6
:101AA00000000000540000205E25642A00000000B1
:101AB000680000200600002021256440000000008E
:101AC0007C000020000402400D00002040000020A7
:101AD0000E0000200F000020100000201100002048
:101AE0001200002013000020140000201500002028
:101AF00016000020170000200004004019000020FC
:101B00001A00002010B5044600BF0548008800F008
:101B100040000028F9D021460148FFF79AFA10BD8D
:101B20000044004010B5044603E02078FFF7EAFFC8
:101B3000641C20780028F8D110BD4FF04070E1EE11
:101B4000100A7047641B00080000002040000000DD
:101B5000C4010008A41B000840000020B0060000DB
:101B6000E00100080000000000000000000000008C
:101B70000000000000000000000000000000000065
:101B80003132333435000000000000000000000056
:101B90000000000000000000010203040102030431
:041BA0000607080923
:040000050800018965
:00000001FF
