:020000040800F2
:10000000C806002031020008ED070008E5070008D7
:10001000E9070008670600086712000800000000F2
:10002000000000000000000000000000B50900080A
:10003000D90600080000000069080008A50A0008A9
:100040004B0200084B0200084B0200084B0200085C
:100050004B0200084B0200084B0200084B0200084C
:100060004B0200084B0200084B0200084B0200083C
:100070004B0200084B0200084B0200084B0200082C
:100080004B0200084B0200084B0200084B0200081C
:100090004B0200084B0200084B0200084B0200080C
:1000A0004B0200084B0200084B0200084B020008FC
:1000B0004B0200084B0200084B0200084B020008EC
:1000C0004B0200084B0200084B0200084B020008DC
:1000D0004B0200084B020008C10E00084B0200084A
:1000E0004B0200084B0200084B0200084B020008BC
:1000F0004B0200084B0200084B0200084B020008AC
:100100004B0200084B0200084B0200084B0200089B
:100110004B0200084B0200084B020008110B0008BC
:100120004B0200084B0200084B0200084B0200087B
:100130004B0200084B0200084B0200084B0200086B
:100140004B0200084B0200084B0200084B0200085B
:100150004B0200084B0200084B0200084B0200084B
:100160004B0200084B0200084B0200084B0200083B
:100170004B0200084B0200084B0200084B0200082B
:100180004B0200084B02000800F002F800F041F8B2
:100190000AA090E8000C82448344AAF10107DA45E2
:1001A00001D100F036F8AFF2090EBAE80F0013F0F3
:1001B000010F18BFFB1A43F001031847801C000011
:1001C000A01C0000103A24BF78C878C1FAD85207A2
:1001D00024BF30C830C144BF04680C6070470000C1
:1001E0000023002400250026103A28BF78C1FBD840
:1001F000520728BF30C148BF0B607047642900F028
:100200007F80002070471FB501F013FE1FBD10B5A1
:1002100010BD00F02AF91146FFF7F5FF01F040FA92
:1002200000F048F903B4FFF7F2FF03BC00F050F907
:100230000948804709480047FEE7FEE7FEE7FEE77A
:10024000FEE7FEE7FEE7FEE7FEE7FEE704480549B6
:10025000054A064B70470000A90A000889010008FA
:10026000C8000020C8060020C8020020C8020020E4
:100270000FB41CB5074B06AA7B446946009005984D
:1002800000F0DBF80020694600F0EAF81CBC5DF8DD
:1002900014FB0000E50100002DE9F0410E46044684
:1002A000002020622046E168884730B3252805D029
:1002B000D4E901219047206A401CF2E7E16820461A
:1002C00000278847050018D0A5F14100192802D859
:1002D00020354FF400673246294620462760FFF755
:1002E0008DFF40B1012804D0F61D26F00706083620
:1002F000D8E7361DD6E72846DAE7206ABDE8F08160
:100300002DE9F0410646002410687529314616A5EE
:1003100010D0AFF30080002802DA404213A507E0B6
:1003200031688A0701D512A502E0490704D511A555
:10033000012401E0AFF3008000210A2206F1240726
:1003400009E0B0FBF2FCB0FBF2F302FB1C00303022
:1003500078541846491C0028F3D123462A463046D3
:10036000BDE8F04100F00BB8000000002D000000D7
:100370002B000000200000007047704770472DE9F7
:10038000F0470D4699469246044600F1240801685C
:10039000880604D5E06921F01001216000E0012009
:1003A000A84201DD471B00E00027A1697A1902EB92
:1003B0000900081AA0612078C00602D42046AFF3D5
:1003C0000080002608E0D4E901211AF806009047D1
:1003D000206A401C761C20624E45F4DB2078C00663
:1003E0000AD52046AFF3008006E0D4E90121302091
:1003F0009047206A401C2062381EA7F10107F4DCF8
:1004000007E0D4E9012118F805009047206A401C54
:100410002062281EA5F10105F3DC2046AFF3008021
:100420002078000602D50220BDE8F0870120FBE716
:1004300001694A1C02610878704700B58FB0CDE9A8
:1004400001310021059105497944CDE90310114698
:100450006846FFF721FF0FB000BD0000E5FFFFFF7A
:100460000A6802F8010B0A607047754600F02CF824
:10047000AE4605006946534620F00700854618B091
:1004800020B5FFF7E3FEBDE820404FF000064FF037
:1004900000074FF000084FF0000B21F00701AC46B9
:1004A000ACE8C009ACE8C009ACE8C009ACE8C009D8
:1004B0008D46704710B50446AFF300802046BDE876
:1004C0001040FFF7AFBE00000048704764000020F6
:1004D00001491820ABBEFEE726000200704721B19B
:1004E000826842F00102826003E0826822F0010229
:1004F000826070470021084A1168084A1140D0E91B
:1005000000231A4383681A43C3681A431143044AF9
:10051000C2F804137047000004230140E030FCFFE0
:100520000020014021B1826842F48072826003E0C1
:10053000826822F480728260704721B1826842F43E
:100540000072826003E0826822F400728260704769
:1005500030B50246002000235068104C20400D7931
:100560000C6844EA05242043506090680C4C2040FD
:10057000D1E903542C438D682C434D7944EA45045A
:1005800020439060D06A20F470000C7D641EE4B2B9
:10059000234340EA0350D06230BD0000FFFEFFFC61
:1005A000FDF7FFC0F0B504460D4600200021092DDF
:1005B00011DDE068A5F10A0606EB4607072606FAF4
:1005C00007F18843A5F10A0606EB460603FA06F191
:1005D0000843E0600CE0206905EB4507072606FAB2
:1005E00007F1884305EB450603FA06F1084320614D
:1005F000072A0FDA606B561E06EB86071F2606FADF
:1006000007F18843561E06EB860605FA06F10843F5
:10061000606322E00D2A0FDA206BD61F06EB8607F7
:100620001F2606FA07F18843D61F06EB860605FA51
:1006300006F10843206310E0E06AA2F10D0606EB24
:1006400086071F2606FA07F18843A2F10D0606EB7E
:10065000860605FA06F10843E062F0BD816841F0C4
:1006600080418160704700BFFEE721B1026842F01F
:100670000102026003E0026822F00102026070479A
:1006800010B500220268134B1A40CC680B68234354
:100690004C6923438C692343CC6923430C6A23436D
:1006A0004C6A23438C6A23434C6B23438C6B234358
:1006B0001A430260426922F00702D1E90B34234356
:1006C0001A4342610B6943604B6883608B68C36067
:1006D00010BD00003F801CF07047F0B50A460021B5
:1006E0000023002400BF3DE0012505FA01F3156851
:1006F00005EA03049C4234D105684F000326BE403E
:10070000B543056015794E00B54006683543056070
:100710001579012D02D01579022D16D185684F006B
:100720000326BE40B543856055794E00B5408668C6
:1007300035438560456801268E40B5434560456870
:1007400096798E40B6B235434560C5684F000326A2
:10075000BE40B543C560D5794E00B540C668354347
:10076000C560491C1029BFD3F0BDF0B5002300249B
:100770004D07ED0E02FA05F3CE1000F1200555F8F5
:1007800026504E07F70E0F26BE40B543CF1000F19E
:10079000200646F82750CE1000F1200555F82650C7
:1007A00045EA0304CE1000F1200545F82640F0BDCF
:1007B0000246002013690B400BB1012000E000202D
:1007C00070470246002053690B400BB1012000E046
:1007D00000207047418370470183704742694A4057
:1007E0004261704700BFFEE700BFFEE770470000B0
:1007F00070B5002100230F22C4781CB3174C246865
:1008000004F4E064C4F5E064C4F30721C1F1040416
:10081000E3B20A4144789C40E1B284781440214319
:100820000C07210E0E4C05786155047804F01F0565
:100830000124AC4005786D11AD0005F1E025C5F847
:10084000004109E0047804F01F050124AC40054D87
:100850000678761145F8264070BD00000CED00E0EA
:1008600000E400E080E100E07047000029B1064AA2
:1008700012680243044B1A6004E0034A1268824380
:10088000014B1A60704700003038024029B1064A17
:1008900012680243044B1A6004E0034A1268824360
:1008A000014B1A60704700004038024029B1064AE7
:1008B00012680243044B1A6004E0034A1268824340
:1008C000014B1A607047000044380240F0B5002127
:1008D00000220024022500260223324F3F6807F041
:1008E0000C0121B1042905D0082937D105E02E4F8C
:1008F000076036E02D4F076033E02A4F3F1F3F6807
:10090000C7F38056274F3F1F3F6807F03F036EB184
:10091000264FB7FBF3F7DFF88CC0ACF1040CDCF822
:1009200000C0CCF3881C07FB0CF40CE01E4FB7FB97
:10093000F3F7DFF870C0ACF1040CDCF800C0CCF3C6
:10094000881C07FB0CF4174F3F1F3F68C7F3014794
:100950007F1C7D00B4FBF5F7076002E0124F0760D3
:1009600000BF00BF0F4F3F6807F0F0010909104FAB
:100970007A5C0768D74047600A4F3F6807F4E05148
:10098000890A0B4F7A5C4768D7408760054F3F68FC
:1009900007F46041490B064F7A5C4768D740C7604F
:1009A000F0BD0000083802400024F40000127A0074
:1009B00034000020704700000CB50020019000902A
:1009C0003448006840F480303249086000BF314844
:1009D000006800F4003000900198401C01900098DD
:1009E00018B90198B0F5A04FF1D12A48006800F479
:1009F000003010B10120009001E00020009000982C
:100A0000012846D123484030006840F080502149F9
:100A1000403108602048006840F440401E490860AA
:100A20001C48083000681B49083108600846006807
:100A300040F4004008600846006840F4A050086098
:100A40001648091F0860081F006840F08070091FE1
:100A5000086000BF0F48006800F000700028F9D05F
:100A600040F205700E4908600A480830006820F01E
:100A700003000849083108600846006840F0020099
:100A8000086000BF03480830006800F00C00082828
:100A9000F8D10CBD003802400070004008544007F7
:100AA000003C02407047000010B51548006840F453
:100AB0007000134908601348006840F001001149B4
:100AC000086000200F49083108600E4800680E4990
:100AD00008400C4908600D48091D0860081F00689F
:100AE00020F48020091F0860002006490C310860AE
:100AF000FFF762FF4FF0006001498039086010BDC8
:100B000088ED00E000380240FFFFF6FE10300024C0
:100B100010B50121064800F021F840B10121044838
:100B200000F00AF84FF470410248FFF757FE10BD7D
:100B300000140040000C0240CA430282704721B1F9
:100B4000028842F00102028004E002884FF6FE7340
:100B50001A40028070470146486A704730B5024625
:100B6000002000230024158A05EA0103958905EA7F
:100B7000010413B10CB1012000E0002030BD1AB116
:100B800083890B43838102E083898B438381704790
:100B900070B5002400220023058C4FF6FE76354008
:100BA0000584028C8388048B4FF68F752C40B51E0C
:100BB0002C400D882C43751E2A408D892A434D8870
:100BC0002A43104DA84202D00F4DA84213D14FF630
:100BD000F7752A40CD892A434FF6FB752A408D8848
:100BE0002A434FF6FF652B404FF6FF552B400D8AE9
:100BF0002B434D8A2B43838004838D684563028495
:100C000070BD000000000140000401400A460021C0
:100C1000018B4FF6F77319401143018370470000B1
:100C200070B5002400220023058C4FF6EF76354086
:100C30000584028C8388048B48F6FF752C404FF6A0
:100C4000FF452C400D884FF6FF7606EA05252C431C
:100C50004FF6DF752A408D8906EA05152A434D882F
:100C600006EA05152A43154DA84202D0144DA842A4
:100C70001DD14FF67F752A40CD894FF6FF7606EAE3
:100C800005152A434FF6BF752A408D8806EA0515DB
:100C90002A434FF6FF352B404FF2FF752B400D8A4C
:100CA00006EA85052B434D8A06EA85052B4383809A
:100CB00004838D688563028470BD000000000140DC
:100CC000000401400A460021018B4FF2FF731940D6
:100CD0004FF6FF7303EA02231943018370470000B4
:100CE00070B5002400220023058C4FF6FF663540C6
:100CF0000584028C8388848B4FF68F752C404FF6C9
:100D0000FC752C400D882C434FF6FF552A408D89E9
:100D10004FF6FF7606EA05252A434D8806EA0525A3
:100D20002A43154DA84202D0144DA8421DD14FF2BE
:100D3000FF752A40CD894FF6FF7606EA05252A433E
:100D40004FF6FF352A408D8806EA05252A434EF6E0
:100D5000FF752B404DF6FF752B400D8A06EA0515F1
:100D60002B434D8A06EA05152B43838084838D68C7
:100D7000C563028470BD0000000001400004014012
:100D80000A460021818B4FF6F77319401143818386
:100D90007047000070B5002200230024058C4EF639
:100DA000FF7635400584038C8488828B48F6FF7576
:100DB0002A404FF6FF452A400D884FF6FF7606EA97
:100DC00005252A434DF6FF752B408D8906EA05352A
:100DD0002B434D8806EA05352B430A4DA84202D025
:100DE000094DA84208D14BF6FF752C400D8A4FF6ED
:100DF000FF7606EA85152C43848082838D6805641E
:100E0000038470BD00000140000401400A46002137
:100E1000818B4FF2FF7319404FF6FF7303EA0223F1
:100E20001943818370474163704781637047C16391
:100E300070470164704741627047000000220288D9
:100E4000184B98420ED0184B98420BD0B0F1804FFF
:100E500008D0164B984205D0154B984202D0154B3E
:100E6000984204D14FF68F731A404B881A43124BA5
:100E7000984207D0114B984204D04FF6FF431A40D6
:100E80000B891A4302804B68C3620B880385054BAC
:100E9000984202D0044B984201D18B7A03860123F9
:100EA00083827047000001400004014000040040BC
:100EB00000080040000C00400010004000140040FA
:100EC00010B540F22551704800F00BF9012871D19E
:100ED0006D4800F0BFF96D49087008460078413848
:100EE0002C2868D2DFE800F016202A343E48525CF5
:100EF00068788898C7C7C7C7C7C7C7C7C7C7C7C79E
:100F0000C7C7C7C7C7C7C7C71B252F39434D5761B9
:100F1000708090B501215E48FFF75EFCACE00121D6
:100F20005B48FFF757FCA7E002215948FFF754FC44
:100F3000A2E002215648FFF74DFC9DE004215448F1
:100F4000FFF74AFC98E004215148FFF743FC93E087
:100F500008214F48FFF740FC8EE008214C48FFF77E
:100F600039FC89E010214A48FFF736FC84E0102163
:100F70004748FFF72FFC7FE020214548FFF72AFC78
:100F80007AE020214248FFF727FC75E040214048E5
:100F9000FFF720FC70E040213D48FFF71DFC6BE0AF
:100FA00080213B48FFF716FC66E080213848FFF7B8
:100FB00013FC61E066E05EE00120364908708C2198
:100FC0003548FFF732FF57E00020324908705021C2
:100FD0003148FFF72AFF4FE0012030490870872190
:100FE0002D48FFF724FF47E000202C4908705021CE
:100FF0002948FFF71CFF3FE001202949087087219D
:101000002548FFF710FF37E00020254908705021E0
:101010002148FFF708FF2FE0012022490870002433
:1010200009E04FF480711A48FFF7D8FB44F62060BE
:1010300000F0ACF9641C0A2CF3DB87211648FFF79B
:10104000F8FE194800F0A2F950211348FFF7F1FE0D
:1010500012E0002013490870002409E04FF40071E9
:101060000B48FFF7BBFB44F6206000F08FF9641CCF
:101070000A2CF3DB00E000BF00BF40F2255102481C
:1010800000F014F810BD0000004400400E000020E5
:101090000004024017000020000400401800002057
:1010A000190000201A000020801A060010B5002246
:1010B000002340F66A14A14200D100BF0A120124A5
:1010C0009440A3B2DC43048010BD21B1828942F474
:1010D0000052828104E082894DF6FF731A408281BA
:1010E000704770B50246002400230025002040F61A
:1010F0006A16B14200D100BFC1F3421501F01F03CF
:10110000012606FA03F3012D02D19689334006E049
:10111000022D02D1168A334001E0968A33400C1228
:10112000012606FA04F41688344013B10CB10120EC
:1011300000E0002070BDF0B5034600240026002525
:10114000002040F66A17B94200D100BF1846C1F32B
:10115000421401F01F06012707FA06F5012C01D100
:101160000C3004E0022C01D1103000E014301AB130
:1011700007682F43076002E00768AF430760F0BDD0
:101180002DE9FF4705460E460024A14600BFA046B4
:10119000B08900B100BF2C8A24F44054F088044385
:1011A0002C82AC8941F20C608443B08831890843B9
:1011B000718908430443AC81AC8A24F44074B0893B
:1011C0000443AC826846FFF781FB2048854202D089
:1011D0001F48854202D1DDF80C9001E0DDF808904F
:1011E000A88900F4004040B109EBC90000EB0910E8
:1011F00031684900B0FBF1F707E009EBC90000EBEB
:10120000091031688900B0FBF1F76420B7FBF0F0FA
:1012100004012009642101FB1078A88900F4004032
:1012200040B1322000EBC800B0FBF1F000F0070045
:10123000044308E0322000EB08106421B0FBF1F019
:1012400000F00F0004432C81BDE8FF87001001402F
:101250000014014001468888C0F308007047C1F3BC
:1012600008028280704700BFFEE7000000B59BB017
:1012700001210846FFF7FAFA01218805FFF7F6FA7F
:1012800001210802FFF712FB002006903B4807905F
:101290003B48089003200A90002009904FF480708A
:1012A0000F90002011904FF480700F90400210902A
:1012B00000200B904FF480600C9040000D90800057
:1012C0000E900120129000201390149006A92D4832
:1012D000FFF7D6F901212B48FFF7C7F91320049037
:1012E00003208DF8140000208DF8170004A926486B
:1012F000FFF7F3F9002000900190029003906846F8
:10130000FFF7F8F801208DF858008DF859000020FB
:101310001990159003208DF868000020179015A9EA
:1013200016484C38FFF714F907230122002113480F
:101330004C38FFF737F90723022201210F484C38B8
:10134000FFF730F90723032204210C484C38FFF73C
:1013500029F9012109484C38FFF7EFF80121074826
:101360004C38FFF7DFF8012104484C38FFF7B7F895
:1013700002484C38FFF772F91BB000BD4C20014009
:1013800006000020106402400000024070B50446D0
:1013900000250AE000210648FFF74DFD00BF044884
:1013A000FFF7D9FB0A28FAD36D1CA542F2D370BD12
:1013B000001000401FB501210220FFF757FA01205D
:1013C0008DF80C0000208DF80E008DF80F00032022
:1013D0008DF80D0040F2FF70029002A90C48FFF753
:1013E0007CF901211020FFF741FA01208DF804005B
:1013F00000208DF806008DF8070003208DF8050009
:101400003F20009069460348FFF767F91FBD0000C1
:10141000000402400010024000B589B001211020F4
:10142000FFF724FA01208DF8200000208DF822001B
:101430008DF823008DF821003F20079007A921484F
:10144000FFF74BF901210820FFF710FA01210846A8
:10145000FFF70CFA01210420FFF708FA01208DF8AC
:10146000180000208DF81A008DF81B008DF8190067
:101470000F20059005A91448FFF72FF900208DF8DB
:1014800010008DF8120001208DF8130000208DF857
:1014900011000F20039003A90C48FFF71EF901204B
:1014A0008DF8080000208DF80A008DF80B008DF8EB
:1014B00009004FF47040019001A90348FFF70DF9AE
:1014C00009B000BD00100240000C024000080240BC
:1014D00010B52821002000F00DF80C21002000F0AC
:1014E00009F80621002000F005F80121002000F095
:1014F00001F810BD70B505460C46002000E0401C08
:101500004CF250318842FADB25B101213C48FFF70B
:1015100063F903E001213A48FFF75CF904F0800029
:1015200020B120213648FFF757F903E02021344845
:10153000FFF750F904F0400020B110213048FFF7C8
:101540004BF903E010212E48FFF744F904F0200086
:1015500020B108212A48FFF73FF903E00821284875
:10156000FFF738F904F0100020B104212448FFF7F8
:1015700033F903E004212248FFF72CF90221204827
:10158000FFF72AF902211E48FFF724F904F00800AA
:1015900020B120211A48FFF71FF903E02021184845
:1015A000FFF718F904F0040020B110211448FFF7E8
:1015B00013F903E010211248FFF70CF904F00200C0
:1015C00020B108210E48FFF707F903E008210C4875
:1015D000FFF700F904F0010020B104210848FFF7EB
:1015E000FBF803E004210648FFF7F4F80221044861
:1015F000FFF7F2F802210248FFF7ECF870BD000097
:101600000010024070B506460C46154636B1012E54
:101610000BD0022E10D0032E1CD114E004F1800058
:10162000C1B20020FFF766FF14E004F1C000C1B2B0
:101630000020FFF75FFF0DE004F19400C1B200202D
:10164000FFF758FF06E004F1D400C1B20020FFF715
:1016500051FF00BF00BF04E029780120FFF74AFFD7
:101660006D1C28780028F7D170BD00001CB5012141
:101670000820FFF7FBF801208DF8040000208DF80A
:1016800006008DF807008DF805004FF470400090BB
:1016900069460248FFF721F81CBD0000000C02401B
:1016A000FFF788FEFFF7B8FEFFF712FF3DA200210B
:1016B0000846FFF7A7FF3DA204210120FFF7A2FF84
:1016C000FFF7D4FF00F0E8F9FFF774FE2021384857
:1016D000FFF782F840213648FFF77EF88021344832
:1016E000FFF77AF800F0C2F9FFF7C0FD00F002FA48
:1016F00000F018F9FFF7BAFF00F0CEF950212D489D
:10170000FFF797FB4FF4DC712B48FFF78CFB47E0AA
:101710002A48008840F6C411884207DA2848007831
:1017200020B950212348FFF77EFB06E00120244921
:10173000087087211F48FFF776FB2048408840F655
:10174000C411884208DD1F480078012804D1872190
:101750001848FFF76CFB06E000201A49087050217A
:101760001448FFF764FB1548808840F6C41188428E
:1017700007DD01201449087081020D48FFF72CF89D
:1017800007E00020104908704FF480610848FFF717
:1017900021F800F01DF800F009FA0C48FFF7F6FDFB
:1017A000B6E7000041414141414100004E564E0024
:1017B0000004024000040040002000400600002019
:1017C00019000020180000201C00002080841E004A
:1017D00010B500F053F800F077F800F01DF8094953
:1017E000087000F019F80849087000F015F807496A
:1017F000087000F011F80649087000F00DF805496E
:10180000087010BD0100002002000020030000202D
:10181000040000200500002010B5002424E000BFD3
:1018200040211448FEF7C4FF0028F9D00520FFF737
:10183000ADFD40210F48FEF7BBFF38B10E480078E0
:10184000012101EB40000C49087005E00A480078CE
:101850004006000E0849087000BF40210548FEF709
:10186000A7FF0028F9D1641C082CD8DB02480078B7
:1018700010BD000000000240000000201CB5012146
:101880000846FEF7F3FF01208DF8040000208DF8D4
:1018900006008DF8070003208DF805004020009019
:1018A00069460848FEF719FF40210648FEF792FFF7
:1018B0004FF4FA60FFF76AFD40210248FEF78CFF03
:1018C0001CBD0000000002401CB501210846FEF7C7
:1018D000CDFF00208DF804008DF806008DF807007C
:1018E00003208DF805004020009069460C48FEF763
:1018F000F4FE00BF40210A48FEF75AFF0028F9D144
:1019000000BF40210648FEF753FF0028F9D000BF72
:1019100040210348FEF74CFF0028F9D11CBD000010
:101920000000024000B58DB001210220FEF7AEFF9D
:1019300001210420FEF79AFF01210802FEF7A6FF0D
:1019400001210846FEF792FF02208DF830000020AA
:101950008DF832008DF833008DF831004FF470703F
:101960000B900BA93D48FEF7B8FE02208DF8280029
:1019700000208DF82A008DF82B008DF8290080209A
:10198000099009A93648FEF7A8FE40F28F60ADF82D
:10199000180040F2E73007900020ADF82000ADF8C5
:1019A0001A0006A92F48FFF749FA01212D48FFF731
:1019B000C6F806A92C48FFF741FA01212A48FFF78B
:1019C000BEF86020ADF804000020ADF810000390D0
:1019D0000120ADF8060001A92248FFF7D9F801A9B6
:1019E0002048FFF71DF901A91E48FFF779F901A961
:1019F0001C48FFF7CFF901A91B48FFF7C9F80821D8
:101A00001848FFF703F908211648FFF75BF908218A
:101A10001448FFF7B5F908211248FFF7F7F9082134
:101A20001148FFF7F3F8022206210C48FEF79DFE4D
:101A3000022207210948FEF798FE022208210748E2
:101A4000FEF793FE022209210448FEF78EFE0922CA
:101A500007210348FEF789FE0DB000BD00080240D3
:101A60000000024000040040002000400EB50121AB
:101A70001020FEF70BFF5320ADF800004FF6FF706B
:101A8000019069460348FFF7D9F901210148FFF7A2
:101A900056F80EBD001000401FB501212020FEF7B2
:101AA000F5FE42F2CF00ADF8040044F61F6002904C
:101AB0000020ADF8060001A90D48FFF7BFF901228B
:101AC00011460B48FFF75BF801210948FFF737F88B
:101AD00037208DF8000001208DF8010000208DF8DE
:101AE000020001208DF803006846FEF781FE1FBD4D
:101AF0000014004000B587B001214804FEF7C6FE7F
:101B00004FF4165003900020ADF818000C20ADF8EB
:101B100016000020ADF81400ADF81200ADF810006A
:101B200003A92048FFF72CFB01211E48FFF7CDFA3F
:101B3000012240F225511B48FFF7FDFA012108461A
:101B4000FEF794FE02208DF808000C200190002082
:101B50008DF80A0001208DF80B0002208DF8090095
:101B600001A91148FEF7B9FD072202210E48FEF730
:101B7000FCFD072203210C48FEF7F7FD26208DF817
:101B8000000001208DF801008DF802008DF803009F
:101B90006846FEF72DFE01210248FFF796FA07B0CE
:101BA00000BD0000004400400000024010B577482E
:101BB000027877A17848FEF75BFB774800F02EF9B2
:101BC0007648027876A17448FEF752FB724800F01E
:101BD00025F975480088642806DA7348028873A1DD
:101BE0006D48FEF745FB11E06F480088B0F57A7F3D
:101BF00006DA6D4802886FA16748FEF739FB05E0F9
:101C0000694802886DA16448FEF732FB624800F023
:101C100005F928206049087001216A48FEF7D1FDC6
:101C2000694908700846007818B14D205A49487033
:101C300002E06D205849487002216248FEF7C1FD5C
:101C4000624908700846007818B14E2052498870E1
:101C500002E06E205049887004215A48FEF7B1FD19
:101C60005B4908700846007818B14F204A49C8708F
:101C700002E06F204849C87008215248FEF7A1FDD4
:101C8000544908700846007818B15020424908713C
:101C900002E070204049087110214A48FEF791FD8A
:101CA0004D4908700846007818B151203A494871EA
:101CB00002E071203849487120214248FEF781FD39
:101CC000464908700846007818B952203249887190
:101CD00002E072203049887140213A48FEF771FDD8
:101CE0003F4908700846007818B953202A49C8713E
:101CF00002E073202849C87180213248FEF761FD57
:101D0000384908700846007818B9542022490872EA
:101D100002E07420204908723348007818B1552039
:101D20001D49487202E075201B4948722F4800780F
:101D300018B156201849887202E076201649887238
:101D40002B48007818B157201349C87202E0772059
:101D50001149C8722748007818B158200E490873F5
:101D600002E078200C4908732348007818B1592004
:101D70000949487302E07920074948732920064938
:101D80008873084600F04AF810BD000003000020E8
:101D900023256424000000004400002001000020EE
:101DA0005E25642A00000000060000202130302556
:101DB000644000002130256440000000212564407B
:101DC00000000000000402400F000020100000206E
:101DD0001100002012000020130000201400002039
:101DE0001500002016000020170000201800002019
:101DF000190000201B0000201C00002010B5044624
:101E000000BF0548008800F040000028F9D02146B6
:101E10000148FFF724FA10BD0044004010B5044605
:101E200003E02078FFF7EAFF641C20780028F8D14F
:101E300010BD4FF04070E1EE100A70475C1E0008C4
:101E40000000002044000000C4010008A01E00089B
:101E50004400002084060000E001000800000000AB
:101E60000000000000000000000000000000000072
:101E70000000000000000000000000003200000030
:101E8000AE47E13F32333536380000000000000035
:101E90000000000001020304010203040607080910
:040000050800018965
:00000001FF
