:020000040800F2
:100000007806002029020008AD050008A5050008B3
:10001000A90500084B040008A9080008000000001A
:1000200000000000000000000000000011060008B1
:100030004F04000800000000AF0500080107000899
:10004000430200084302000843020008430200087C
:100050004302000843020008510400087504000828
:10006000430200084302000843020008430200085C
:10007000430200084302000843020008430200084C
:10008000430200084302000843020008430200083C
:10009000430200084302000843020008430200082C
:1000A000430200084302000843020008430200081C
:1000B000430200084302000843020008430200080C
:1000C00043020008430200084302000843020008FC
:1000D00043020008430200084302000843020008EC
:1000E00043020008430200084302000843020008DC
:1000F00043020008430200084302000843020008CC
:1001000043020008430200084302000843020008BB
:1001100043020008430200084302000843020008AB
:10012000430200084302000843020008430200089B
:10013000430200084302000843020008430200088B
:10014000430200084302000843020008430200087B
:10015000430200084302000843020008430200086B
:10016000430200084302000843020008430200085B
:10017000430200084302000843020008430200084B
:10018000430200084302000800F002F800F03CF8C7
:100190000AA090E8000C82448344AAF10107DA45E2
:1001A00001D100F031F8AFF2090EBAE80F0013F0F8
:1001B000010F18BFFB1A43F0010318477C09000028
:1001C0009C090000103A24BF78C878C1FAD85207B9
:1001D00024BF30C830C144BF04680C6070470000C1
:1001E0000023002400250026103A28BF78C1FBD840
:1001F000520728BF30C148BF0B6070471FB500F0E1
:1002000095FC1FBD10B510BD00F031F81146FFF789
:10021000F5FF00F09BFB00F04FF803B4FFF7F2FF8F
:1002200003BC00F057F80000094880470948004720
:10023000FEE7FEE7FEE7FEE7FEE7FEE7FEE7FEE796
:10024000FEE7FEE704480549054A064B70470000F3
:1002500005070008890100087800002078060020C2
:10026000780200207802002070477047704775467A
:1002700000F02CF8AE4605006946534620F0070012
:10028000854618B020B5FFF7DDFFBDE820404FF0F0
:1002900000064FF000074FF000084FF0000B21F070
:1002A0000701AC46ACE8C009ACE8C009ACE8C0093D
:1002B000ACE8C0098D46704710B50446AFF3008026
:1002C0002046BDE81040FFF7A8BF00000048704777
:1002D0001400002001491820ABBEFEE726000200F2
:1002E000704721B1826842F00102826003E08268B7
:1002F00022F00102826070470146C86C80B27047EC
:100300000246002013680B400BB1012000E00020E2
:10031000704710B50B460021D9B2012404FA01F14F
:100320001AB144680C43446002E044688C43446062
:1003300010BD000030B50246002000235068104C6C
:1003400020400D790C6844EA0524204350609068F1
:100350000C4C2040D1E903542C438D682C434D793B
:1003600044EA450420439060D06A20F470000C7D7C
:10037000641EE4B2234340EA0350D06230BD000063
:10038000FFFEFFFCFDF7FFC0F0B504460D46002060
:100390000021092D11DDE068A5F10A0606EB4607EC
:1003A000072606FA07F18843A5F10A0606EB46067A
:1003B00003FA06F10843E0600CE0206905EB45070D
:1003C000072606FA07F1884305EB450603FA06F10E
:1003D00008432061072A0FDA606B561E06EB86077A
:1003E0001F2606FA07F18843561E06EB860605FA15
:1003F00006F10843606322E00D2A0FDA206BD61F56
:1004000006EB86071F2606FA07F18843D61F06EB80
:10041000860605FA06F10843206310E0E06AA2F1BF
:100420000D0606EB86071F2606FA07F18843A2F1A0
:100430000D0606EB860605FA06F10843E062F0BDFC
:10044000816841F080418160704700BFFEE77047DE
:1004500010B5012000F026F848B11A2000F026FA65
:100460000121034800F095F8012000F015F810BDB7
:100470000000024010B5022000F014F848B11A2024
:1004800000F014FA0221034800F083F8022000F083
:1004900003F810BD000002400149086070470000E9
:1004A000143C014001460020034A12680A400AB188
:1004B000012000E000207047143C0140F0B50A46DE
:1004C00000210023002400BF3DE0012505FA01F3CF
:1004D000156805EA03049C4234D105684F000326E1
:1004E000BE40B543056015794E00B54006683543FA
:1004F00005601579012D02D01579022D16D1856878
:100500004F000326BE40B543856055794E00B54087
:10051000866835438560456801268E40B543456051
:10052000456896798E40B6B235434560C5684F0040
:100530000326BE40B543C560D5794E00B540C668B8
:100540003543C560491C1029BFD3F0BDF0B5002369
:1005500000244D07ED0E02FA05F3CE1000F1200540
:1005600055F826504E07F70E0F26BE40B543CF1064
:1005700000F1200646F82750CE1000F1200555F86E
:10058000265045EA0304CE1000F1200545F8264028
:10059000F0BD0246002013690B400BB1012000E0C2
:1005A0000020704700BFFEE700BFFEE770477047BE
:1005B00029B1064A12680243044B1A6004E0034A58
:1005C00012688243014B1A607047000030380240C5
:1005D00029B1064A12680243044B1A6004E0034A38
:1005E00012688243014B1A60704700004038024095
:1005F00029B1064A12680243044B1A6004E0034A18
:1006000012688243014B1A60704700004438024070
:10061000704700000CB5002001900090344800683D
:1006200040F480303249086000BF3148006800F46F
:10063000003000900198401C0190009818B9019872
:10064000B0F5A04FF1D12A48006800F4003010B195
:100650000120009001E0002000900098012846D180
:1006600023484030006840F0805021494031086004
:100670002048006840F440401E4908601C4808308B
:1006800000681B49083108600846006840F40040D3
:1006900008600846006840F4A05008601648091F2A
:1006A0000860081F006840F08070091F086000BFE4
:1006B0000F48006800F000700028F9D040F2057083
:1006C0000E4908600A480830006820F00300084915
:1006D000083108600846006840F00200086000BF6A
:1006E00003480830006800F00C000828F8D10CBD61
:1006F000003802400070004008544007003C0240AF
:100700007047000010B51548006840F470001349A8
:1007100008601348006840F001001149086000209B
:100720000F49083108600E4800680E4908400C491E
:1007300008600D48091D0860081F006820F480202B
:10074000091F0860002006490C310860FFF762FFAE
:100750004FF0006001498039086010BD88ED00E06D
:1007600000380240FFFFF6FE1030002421B102885D
:1007700042F00102028004E002884FF6FE731A4044
:10078000028070470146486A7047000070B5002437
:1007900000220023058C4FF6FE7635400584028C3E
:1007A0008388048B4FF68F752C40B51E2C400D8826
:1007B0002C43751E2A408D892A434D882A43104DAB
:1007C000A84202D00F4DA84213D14FF6F7752A4028
:1007D000CD892A434FF6FB752A408D882A434FF670
:1007E000FF652B404FF6FF552B400D8A2B434D8A5A
:1007F0002B43838004838D684563028470BD0000B1
:1008000000000140000401400A460021018B4FF620
:10081000F773194011430183704741637047416288
:100820007047000000220288184B98420ED0184BE7
:1008300098420BD0B0F1804F08D0164B984205D0AB
:10084000154B984202D0154B984204D14FF68F7346
:100850001A404B881A43124B984207D0114B9842CA
:1008600004D04FF6FF431A400B891A4302804B68AD
:10087000C3620B880385054B984202D0044B984213
:1008800001D18B7A038601238382704700000140E7
:10089000000401400004004000080040000C00403B
:1008A000001000400014004000BFFEE770B5044691
:1008B00000250AE000210648FFF7B1FF00BF044809
:1008C000FFF760FF0A28FAD36D1CA542F2D370BD72
:1008D0000010004000B589B001210846FFF768FE0E
:1008E00003208DF8200000208DF822008DF82300D1
:1008F0008DF821008020079007A91248FFF7DEFD40
:1009000001210802FFF774FE00208DF80900059010
:10091000019001208DF8180001A90B48FFF70AFD8E
:100920000623012207210848FFF72EFD012240F28D
:1009300005210548FFF7EDFC01210348FFF7D1FC35
:1009400009B000BD000002400020014000F09AF80C
:10095000FFF7C0FF00F0ACF800F048F819E000F035
:1009600021F80C4908800846008840F6C4118842E6
:1009700004DD8C210848FFF750FF03E050210648B2
:10098000FFF74BFF00F020F8044908800448FFF708
:100990008DFFE4E70E00002000040040100000205E
:1009A000400D030010B50748FFF74AFD00BF0221C4
:1009B0000448FFF7A5FC0028F9D00248FFF79CFC8B
:1009C00010BD00000020014010B50748FFF738FDBA
:1009D00000BF02210448FFF793FC0028F9D0024829
:1009E000FFF78AFC10BD00000020014000B58BB06D
:1009F00001210220FFF7ECFD01210420FFF7D8FDC3
:100A000002208DF8280000208DF82A008DF82B0098
:100A10008DF829004020099009A91848FFF74EFDDC
:100A200040F28F60ADF8180040F2E73007900020E8
:100A3000ADF82000ADF81A0006A91148FFF7F2FE44
:100A400001210F48FFF792FE6020ADF8040000205E
:100A5000ADF8100003900120ADF8060001A9084888
:100A6000FFF794FE08210648FFF7CEFE022206217A
:100A70000248FFF76BFD0BB000BD0000000802400C
:100A8000000400400EB501211020FFF7A1FD532006
:100A9000ADF800004FF6FF70019069460348FFF77C
:100AA000C1FE01210148FFF761FE0EBD00100040AC
:100AB00000B589B001210846FFF77AFD03208DF8C3
:100AC000200000208DF822008DF823008DF82100F1
:100AD0004FF48070079007A91248FFF7EFFC01213F
:100AE0000802FFF785FD00208DF8090005900190B0
:100AF00001208DF8180001A90B48FFF71BFC062305
:100B0000022208210848FFF73FFC012240F205219C
:100B10000548FFF7FEFB01210348FFF7E2FB09B0A0
:100B200000BD000000000240002001404FF0407076
:100B3000E1EE100A70470000580B0008000000208A
:100B400014000000C40100086C0B00081400002011
:100B500064060000E0010008000000000000000042
:0C0B600000000000000000000000000089
:040000050800018965
:00000001FF
