:020000040800F2
:100000008006002029020008930500088B050008DF
:100010008F0500086F040008FD07000800000000BD
:10002000000000000000000000000000F9050008CA
:10003000730400080000000095050008E9060008A8
:10004000430200084302000843020008430200087C
:1000500043020008430200087504000899040008E0
:10006000430200084302000843020008430200085C
:10007000430200084302000843020008430200084C
:10008000430200084302000843020008430200083C
:10009000430200084302000843020008430200082C
:1000A000430200084302000843020008430200081C
:1000B000430200084302000843020008430200080C
:1000C00043020008430200084302000843020008FC
:1000D00043020008430200084302000843020008EC
:1000E00043020008430200084302000843020008DC
:1000F00043020008430200084302000843020008CC
:1001000043020008430200084302000843020008BB
:1001100043020008430200084302000843020008AB
:10012000430200084302000843020008430200089B
:10013000430200084302000843020008430200088B
:10014000430200084302000843020008430200087B
:10015000430200084302000843020008430200086B
:10016000430200084302000843020008430200085B
:10017000430200084302000843020008430200084B
:10018000430200084302000800F002F800F03CF8C7
:100190000AA090E8000C82448344AAF10107DA45E2
:1001A00001D100F031F8AFF2090EBAE80F0013F0F8
:1001B000010F18BFFB1A43F001031847A408000001
:1001C000C4080000103A24BF78C878C1FAD8520792
:1001D00024BF30C830C144BF04680C6070470000C1
:1001E0000023002400250026103A28BF78C1FBD840
:1001F000520728BF30C148BF0B6070471FB500F0E1
:1002000029FC1FBD10B510BD00F031F81146FFF7F5
:10021000F5FF00F045FB00F04FF803B4FFF7F2FFE5
:1002200003BC00F057F80000094880470948004720
:10023000FEE7FEE7FEE7FEE7FEE7FEE7FEE7FEE796
:10024000FEE7FEE704480549054A064B70470000F3
:10025000ED060008890100088000002080060020CB
:10026000800200208002002070477047704775466A
:1002700000F02CF8AE4605006946534620F0070012
:10028000854618B020B5FFF7DDFFBDE820404FF0F0
:1002900000064FF000074FF000084FF0000B21F070
:1002A0000701AC46ACE8C009ACE8C009ACE8C0093D
:1002B000ACE8C0098D46704710B50446AFF3008026
:1002C0002046BDE81040FFF7A8BF00000048704777
:1002D0001C00002001491820ABBEFEE726000200EA
:1002E000704721B1826842F00102826003E08268B7
:1002F00022F00102826070470146C86C80B27047EC
:100300000246002013680B400BB1012000E00020E2
:10031000704710B50B460021D9B2012404FA01F14F
:100320001AB144680C43446002E044688C43446062
:1003300010BD000030B50246002000235068104C6C
:1003400020400D790C6844EA0524204350609068F1
:100350000C4C2040D1E903542C438D682C434D793B
:1003600044EA450420439060D06A20F470000C7D7C
:10037000641EE4B2234340EA0350D06230BD000063
:10038000FFFEFFFCFDF7FFC010B5074800F06AF85C
:1003900000BF02210448FFF7B3FF0028F9D002484C
:1003A000FFF7AAFF10BD000000200140F0B5044691
:1003B0000D4600200021092D11DDE068A5F10A0697
:1003C00006EB4607072606FA07F18843A5F10A0659
:1003D00006EB460603FA06F10843E0600CE02069EC
:1003E00005EB4507072606FA07F1884305EB4506A6
:1003F00003FA06F108432061072A0FDA606B561EE4
:1004000006EB86071F2606FA07F18843561E06EB01
:10041000860605FA06F10843606322E00D2A0FDA2A
:10042000206BD61F06EB86071F2606FA07F18843C6
:10043000D61F06EB860605FA06F10843206310E096
:10044000E06AA2F10D0606EB86071F2606FA07F101
:100450008843A2F10D0606EB860605FA06F108436D
:10046000E062F0BD816841F080418160704700BF6B
:10047000FEE7704710B5012000F026F848B11A20B9
:1004800000F0FAF90121034800F072F8012000F0B1
:1004900015F810BD0000024010B5022000F014F85D
:1004A00048B11A2000F0E8F90221034800F060F892
:1004B000022000F003F810BD00000240014908606E
:1004C00070470000143C014001460020034A1268B6
:1004D0000A400AB1012000E000207047143C0140AE
:1004E000F0B50A4600210023002400BF3DE00125AD
:1004F00005FA01F3156805EA03049C4234D1056846
:100500004F000326BE40B543056015794E00B54047
:100510000668354305601579012D02D01579022D45
:1005200016D185684F000326BE40B54385605579D6
:100530004E00B540866835438560456801268E408B
:10054000B5434560456896798E40B6B235434560FF
:10055000C5684F000326BE40B543C560D5794E003F
:10056000B540C6683543C560491C1029BFD3F0BDEE
:100570000246002013690B400BB1012000E000206F
:100580007047418370470183704700BFFEE700BF9B
:10059000FEE770477047000029B1064A126802431F
:1005A000044B1A6004E0034A12688243014B1A604C
:1005B000704700003038024029B1064A12680243F1
:1005C000044B1A6004E0034A12688243014B1A602C
:1005D000704700004038024029B1064A12680243C1
:1005E000044B1A6004E0034A12688243014B1A600C
:1005F0007047000044380240704700000CB50020EE
:10060000019000903448006840F48030324908601E
:1006100000BF3148006800F4003000900198401C91
:100620000190009818B90198B0F5A04FF1D12A486F
:10063000006800F4003010B10120009001E00020BB
:1006400000900098012846D123484030006840F0CF
:1006500080502149403108602048006840F4404003
:100660001E4908601C48083000681B4908310860B2
:100670000846006840F4004008600846006840F4FE
:10068000A05008601648091F0860081F006840F065
:100690008070091F086000BF0F48006800F00070FC
:1006A0000028F9D040F205700E4908600A48083069
:1006B000006820F003000849083108600846006817
:1006C00040F00200086000BF03480830006800F0F6
:1006D0000C000828F8D10CBD003802400070004022
:1006E00008544007003C02407047000010B5154810
:1006F000006840F47000134908601348006840F037
:1007000001001149086000200F49083108600E48B7
:1007100000680E4908400C4908600D48091D086032
:10072000081F006820F48020091F08600020064987
:100730000C310860FFF762FF4FF00060014980391B
:10074000086010BD88ED00E000380240FFFFF6FEB3
:100750001030002421B1028842F00102028004E03E
:1007600002884FF6FE731A40028070470146486ABD
:10077000704741627047000000220288184B98427F
:100780000ED0184B98420BD0B0F1804F08D0164BCA
:10079000984205D0154B984202D0154B984204D18F
:1007A0004FF68F731A404B881A43124B984207D06A
:1007B000114B984204D04FF6FF431A400B891A435D
:1007C00002804B68C3620B880385054B984202D0B8
:1007D000044B984201D18B7A0386012383827047B0
:1007E00000000140000401400004004000080040F7
:1007F000000C0040001000400014004000BFFEE765
:1008000000B589B001210846FFF7C6FE03208DF828
:10081000200000208DF822008DF823008DF82100A3
:100820008020079007A91248FFF75AFE012108020D
:10083000FFF7D2FE00208DF80900059001900120FD
:100840008DF8180001A90B48FFF774FD062301225B
:1008500007210848FFF7AAFD012240F205210548BB
:10086000FFF757FD01210348FFF73BFD09B000BD2D
:10087000000002400020014070B5044600250AE057
:1008800000210648FFF775FF00BF0448FFF76EFF21
:100890000A28FAD36D1CA542F2D370BD00100040A7
:1008A00000F0C2F8FFF7ACFF0FE000F017F8FFF719
:1008B0006BFD064908804FF480710548FFF758FE2C
:1008C000044908700448FFF7D7FFEEE71600002040
:1008D0000000024018000020400D030010B500F099
:1008E00053F800F075F800F01DF80949087000F0A1
:1008F00019F80849087000F015F80749087000F069
:1009000011F80649087000F00DF80549087010BD8F
:10091000110000201200002013000020140000200D
:100920001500002010B5002424E000BF4021144829
:10093000FFF71EFE0028F9D00520FFF79DFF40219C
:100940000F48FFF715FE38B10E480078012101EB82
:1009500040000C49087005E00A4800784006000E87
:100960000849087000BF40210548FFF701FE002834
:10097000F9D1641C082CD8DB0248007810BD0000B7
:10098000000002401000002010B501210846FFF7CA
:1009900003FE01200C49087100208871C8710320F2
:1009A0004871402008600948FFF79AFD4021074838
:1009B000FFF7E7FD4FF4FA60FFF75EFF40210348C1
:1009C000FFF7E1FD10BD000008000020000002401C
:1009D00010B501210846FFF7DFFD0020104908711E
:1009E0008871C87103204871402008600D48FFF7E6
:1009F00077FD00BF40210B48FFF7BAFD0028F9D171
:100A000000BF40210748FFF7B3FD0028F9D000BF21
:100A100040210448FFF7ACFD0028F9D110BD0000CB
:100A200008000020000002400EB501211020FFF751
:100A3000C3FD5320ADF800004FF6FF7001906946EA
:100A40000348FFF799FE01210148FFF783FE0EBD21
:100A5000001000404FF04070E1EE100A70470000B7
:100A6000800A0008000000201C000000C4010008EB
:100A70009C0A00081C00002064060000E001000839
:100A80000000000000000000000000000000000066
:0C0A90000000000000000000000000005A
:040000050800018965
:00000001FF
