:020000040800F2
:10000000A0060020310200084D070008450700083F
:100010004907000847060008CF0F0008000000004D
:1000200000000000000000000000000015090008AA
:100030004B06000800000000C9070008050A000878
:100040004B0200084B0200084B0200084B0200085C
:100050004B0200084B0200084B0200084B0200084C
:100060004B0200084B0200084B0200084B0200083C
:100070004B0200084B0200084B0200084B0200082C
:100080004B0200084B0200084B0200084B0200081C
:100090004B0200084B0200084B0200084B0200080C
:1000A0004B0200084B0200084B0200084B020008FC
:1000B0004B0200084B0200084B0200084B020008EC
:1000C0004B0200084B0200084B0200084B020008DC
:1000D0004B0200084B020008C50C00084B02000848
:1000E0004B0200084B0200084B0200084B020008BC
:1000F0004B0200084B0200084B0200084B020008AC
:100100004B0200084B0200084B0200084B0200089B
:100110004B0200084B0200084B020008710A00085D
:100120004B0200084B0200084B0200084B0200087B
:100130004B0200084B0200084B0200084B0200086B
:100140004B0200084B0200084B0200084B0200085B
:100150004B0200084B0200084B0200084B0200084B
:100160004B0200084B0200084B0200084B0200083B
:100170004B0200084B0200084B0200084B0200082B
:100180004B0200084B02000800F002F800F041F8B2
:100190000AA090E8000C82448344AAF10107DA45E2
:1001A00001D100F036F8AFF2090EBAE80F0013F0F3
:1001B000010F18BFFB1A43F001031847A0130000FA
:1001C000C0130000103A24BF78C878C1FAD852078B
:1001D00024BF30C830C144BF04680C6070470000C1
:1001E0000023002400250026103A28BF78C1FBD840
:1001F000520728BF30C148BF0B607047642900F028
:100200007F80002070471FB501F0A3F91FBD10B516
:1002100010BD00F02AF91146FFF7F5FF00F066FF68
:1002200000F048F903B4FFF7F2FF03BC00F050F907
:100230000948804709480047FEE7FEE7FEE7FEE77A
:10024000FEE7FEE7FEE7FEE7FEE7FEE704480549B6
:10025000054A064B70470000090A0008890100089A
:10026000A0000020A0060020A0020020A002002084
:100270000FB41CB5074B06AA7B446946009005984D
:1002800000F0DBF80020694600F0EAF81CBC5DF8DD
:1002900014FB0000E50100002DE9F0410E46044684
:1002A000002020622046E168884730B3252805D029
:1002B000D4E901219047206A401CF2E7E16820461A
:1002C00000278847050018D0A5F14100192802D859
:1002D00020354FF400673246294620462760FFF755
:1002E0008DFF40B1012804D0F61D26F00706083620
:1002F000D8E7361DD6E72846DAE7206ABDE8F08160
:100300002DE9F0410646002410687529314616A5EE
:1003100010D0AFF30080002802DA404213A507E0B6
:1003200031688A0701D512A502E0490704D511A555
:10033000012401E0AFF3008000210A2206F1240726
:1003400009E0B0FBF2FCB0FBF2F302FB1C00303022
:1003500078541846491C0028F3D123462A463046D3
:10036000BDE8F04100F00BB8000000002D000000D7
:100370002B000000200000007047704770472DE9F7
:10038000F0470D4699469246044600F1240801685C
:10039000880604D5E06921F01001216000E0012009
:1003A000A84201DD471B00E00027A1697A1902EB92
:1003B0000900081AA0612078C00602D42046AFF3D5
:1003C0000080002608E0D4E901211AF806009047D1
:1003D000206A401C761C20624E45F4DB2078C00663
:1003E0000AD52046AFF3008006E0D4E90121302091
:1003F0009047206A401C2062381EA7F10107F4DCF8
:1004000007E0D4E9012118F805009047206A401C54
:100410002062281EA5F10105F3DC2046AFF3008021
:100420002078000602D50220BDE8F0870120FBE716
:1004300001694A1C02610878704700B58FB0CDE9A8
:1004400001310021059105497944CDE90310114698
:100450006846FFF721FF0FB000BD0000E5FFFFFF7A
:100460000A6802F8010B0A607047754600F02CF824
:10047000AE4605006946534620F00700854618B091
:1004800020B5FFF7E3FEBDE820404FF000064FF037
:1004900000074FF000084FF0000B21F00701AC46B9
:1004A000ACE8C009ACE8C009ACE8C009ACE8C009D8
:1004B0008D46704710B50446AFF300802046BDE876
:1004C0001040FFF7AFBE0000004870473C0000201E
:1004D00001491820ABBEFEE726000200704721B19B
:1004E000826842F00102826003E0826822F0010229
:1004F000826070470146C86C80B270470246002097
:1005000013680B400BB1012000E00020704710B5CC
:100510000B460021D9B2012404FA01F11AB1446852
:100520000C43446002E044688C43446010BD00000A
:1005300030B50246002000235068104C20400D7951
:100540000C6844EA05242043506090680C4C20401D
:10055000D1E903542C438D682C434D7944EA45047A
:1005600020439060D06A20F470000C7D641EE4B2D9
:10057000234340EA0350D06230BD0000FFFEFFFC81
:10058000FDF7FFC0F0B504460D4600200021092DFF
:1005900011DDE068A5F10A0606EB4607072606FA14
:1005A00007F18843A5F10A0606EB460603FA06F1B1
:1005B0000843E0600CE0206905EB4507072606FAD2
:1005C00007F1884305EB450603FA06F1084320616D
:1005D000072A0FDA606B561E06EB86071F2606FAFF
:1005E00007F18843561E06EB860605FA06F1084316
:1005F000606322E00D2A0FDA206BD61F06EB860718
:100600001F2606FA07F18843D61F06EB860605FA71
:1006100006F10843206310E0E06AA2F10D0606EB44
:1006200086071F2606FA07F18843A2F10D0606EB9E
:10063000860605FA06F10843E062F0BD816841F0E4
:1006400080418160704700BFFEE77047F0B50A4601
:1006500000210023002400BF3DE0012505FA01F33D
:10066000156805EA03049C4234D105684F0003264F
:10067000BE40B543056015794E00B5400668354368
:1006800005601579012D02D01579022D16D18568E6
:100690004F000326BE40B543856055794E00B540F6
:1006A000866835438560456801268E40B5434560C0
:1006B000456896798E40B6B235434560C5684F00AF
:1006C0000326BE40B543C560D5794E00B540C66827
:1006D0003543C560491C1029BFD3F0BDF0B50023D8
:1006E00000244D07ED0E02FA05F3CE1000F12005AF
:1006F00055F826504E07F70E0F26BE40B543CF10D3
:1007000000F1200646F82750CE1000F1200555F8DC
:10071000265045EA0304CE1000F1200545F8264096
:10072000F0BD0246002053690B400BB1012000E0F0
:1007300000207047418370470183704742694A40F7
:100740004261704700BFFEE700BFFEE77047000050
:1007500070B5002100230F22C4781CB3174C246805
:1007600004F4E064C4F5E064C4F30721C1F10404B7
:10077000E3B20A4144789C40E1B2847814402143BA
:100780000C07210E0E4C05786155047804F01F0506
:100790000124AC4005786D11AD0005F1E025C5F8E8
:1007A000004109E0047804F01F050124AC40054D28
:1007B0000678761145F8264070BD00000CED00E08B
:1007C00000E400E080E100E07047000029B1064A43
:1007D00012680243044B1A6004E0034A1268824321
:1007E000014B1A60704700003038024029B1064AB8
:1007F00012680243044B1A6004E0034A1268824301
:10080000014B1A60704700004038024029B1064A87
:1008100012680243044B1A6004E0034A12688243E0
:10082000014B1A607047000044380240F0B50021C7
:1008300000220024022500260223324F3F6807F0E1
:100840000C0121B1042905D0082937D105E02E4F2C
:10085000076036E02D4F076033E02A4F3F1F3F68A7
:10086000C7F38056274F3F1F3F6807F03F036EB125
:10087000264FB7FBF3F7DFF88CC0ACF1040CDCF8C3
:1008800000C0CCF3881C07FB0CF40CE01E4FB7FB38
:10089000F3F7DFF870C0ACF1040CDCF800C0CCF367
:1008A000881C07FB0CF4174F3F1F3F68C7F3014735
:1008B0007F1C7D00B4FBF5F7076002E0124F076074
:1008C00000BF00BF0F4F3F6807F0F0010909104F4C
:1008D0007A5C0768D74047600A4F3F6807F4E051E9
:1008E000890A0B4F7A5C4768D7408760054F3F689D
:1008F00007F46041490B064F7A5C4768D740C760F0
:10090000F0BD0000083802400024F40000127A0014
:1009100016000020704700000CB5002001900090E8
:100920003448006840F480303249086000BF3148E4
:10093000006800F4003000900198401C019000987D
:1009400018B90198B0F5A04FF1D12A48006800F419
:10095000003010B10120009001E0002000900098CC
:10096000012846D123484030006840F0805021499A
:10097000403108602048006840F440401E4908604B
:100980001C48083000681B490831086008460068A8
:1009900040F4004008600846006840F4A050086039
:1009A0001648091F0860081F006840F08070091F82
:1009B000086000BF0F48006800F000700028F9D000
:1009C00040F205700E4908600A480830006820F0BF
:1009D00003000849083108600846006840F002003A
:1009E000086000BF03480830006800F00C000828C9
:1009F000F8D10CBD00380240007000400854400798
:100A0000003C02407047000010B51548006840F4F3
:100A10007000134908601348006840F00100114954
:100A2000086000200F49083108600E4800680E4930
:100A300008400C4908600D48091D0860081F00683F
:100A400020F48020091F0860002006490C3108604E
:100A5000FFF762FF4FF0006001498039086010BD68
:100A600088ED00E000380240FFFFF6FE1030002461
:100A700010B50121084800F027F860B101210648AF
:100A800000F010F84FF470410448FFF757FE00F0F3
:100A900057FC0349088010BD00140040000C0240C0
:100AA00006000020CA430282704721B1028842F04A
:100AB0000102028004E002884FF6FE731A400280B1
:100AC00070470146486A704730B50246002000234F
:100AD0000024158A05EA0103958905EA010413B18A
:100AE0000CB1012000E0002030BD000070B50024F2
:100AF00000220023058C4FF6FE7635400584028CDB
:100B00008388048B4FF68F752C40B51E2C400D88C2
:100B10002C43751E2A408D892A434D882A43104D47
:100B2000A84202D00F4DA84213D14FF6F7752A40C4
:100B3000CD892A434FF6FB752A408D882A434FF60C
:100B4000FF652B404FF6FF552B400D8A2B434D8AF6
:100B50002B43838004838D684563028470BD00004D
:100B600000000140000401400A460021018B4FF6BD
:100B7000F7731940114301837047000070B50024DA
:100B800000220023058C4FF6EF7635400584028C59
:100B90008388048B48F6FF752C404FF6FF452C40A8
:100BA0000D884FF6FF7606EA05252C434FF6DF75D4
:100BB0002A408D8906EA05152A434D8806EA05155F
:100BC0002A43154DA84202D0144DA8421DD14FF61C
:100BD0007F752A40CD894FF6FF7606EA05152A4330
:100BE0004FF6BF752A408D8806EA05152A434FF651
:100BF000FF352B404FF2FF752B400D8A06EA850525
:100C00002B434D8A06EA85052B43838004838D6838
:100C10008563028470BD00000000014000040140B3
:100C20000A460021018B4FF2FF7319404FF6FF7304
:100C300003EA0223194301837047416270470000B1
:100C400000220288184B98420ED0184B98420BD0C5
:100C5000B0F1804F08D0164B984205D0154B984202
:100C600002D0154B984204D14FF68F731A404B882F
:100C70001A43124B984207D0114B984204D04FF6BA
:100C8000FF431A400B891A4302804B68C3620B88EA
:100C90000385054B984202D0044B984201D18B7AD0
:100CA0000386012383827047000001400004014055
:100CB0000004004000080040000C0040001000400C
:100CC0000014004010B540F225514C4800F0BDF82A
:100CD000012871D1494800F071F949490870084666
:100CE000007841382B2868D2DFE800F016202A343B
:100CF0003E48525C687078808080808080808080F0
:100D00008080808080808080808080801B252F393B
:100D1000434D57616C747C0001213A48FFF70CFD8C
:100D200065E001213748FFF705FD60E00221354805
:100D3000FFF702FD5BE002213248FFF7FBFC56E0C3
:100D400004213048FFF7F8FC51E004212D48FFF75B
:100D5000F1FC4CE008212B48FFF7EEFC47E00821AE
:100D60002848FFF7E7FC42E010212648FFF7E4FCA3
:100D70003DE010212348FFF7DDFC38E02021214829
:100D8000FFF7DAFC33E020211E48FFF7D3FC2EE00A
:100D900040211C48FFF7D0FC29E040211948FFF70B
:100DA000C9FC24E080211748FFF7C6FC1FE0802122
:100DB0001448FFF7BFFC1AE01FE017E001201249BA
:100DC000087014E000201049087010E001200F495D
:100DD00008700CE000200D49087008E001200C4963
:100DE000087004E000200A49087000E000BF00BF5E
:100DF00040F22551014800F00DF810BD00440040BC
:100E00000A0000200004024013000020140000200B
:100E10001500002010B50022002340F66A14A142FC
:100E200000D100BF0A1201249440A3B2DC43048025
:100E300010BD21B1828942F40052828104E082898E
:100E40004DF6FF731A408281704770B50246002448
:100E500000230025002040F66A16B14200D100BFF1
:100E6000C1F3421501F01F03012606FA03F3012D19
:100E700002D19689334006E0022D02D1168A334012
:100E800001E0968A33400C12012606FA04F4168813
:100E9000344013B10CB1012000E0002070BDF0B56A
:100EA0000346002400260025002040F66A17B942B8
:100EB00000D100BF1846C1F3421401F01F060127FC
:100EC00007FA06F5012C01D10C3004E0022C01D107
:100ED000103000E014301AB107682F43076002E0B9
:100EE0000768AF430760F0BD2DE9FF4705460E4692
:100EF0000024A14600BFA046B08900B100BF2C8AE3
:100F000024F44054F08804432C82AC8941F20C60F4
:100F10008443B08831890843718908430443AC8114
:100F2000AC8A24F44074B0890443AC826846FFF76D
:100F30007DFC2048854202D01F48854202D1DDF861
:100F40000C9001E0DDF80890A88900F4004040B161
:100F500009EBC90000EB091031684900B0FBF1F75B
:100F600007E009EBC90000EB091031688900B0FB0C
:100F7000F1F76420B7FBF0F004012009642101FBC4
:100F80001078A88900F4004040B1322000EBC8007E
:100F9000B0FBF1F000F00700044308E0322000EB62
:100FA00008106421B0FBF1F000F00F0004432C8125
:100FB000BDE8FF8700100140001401400146888809
:100FC000C0F308007047C1F308028280704700BF79
:100FD000FEE7000070B5044600250AE0002106483F
:100FE000FFF72BFE00BF0448FFF76BFD0A28FAD37A
:100FF0006D1CA542F2D370BD0010004000B589B051
:1010000001210846FFF7E2FB03208DF820000020B5
:101010008DF822008DF823008DF821004FF4C07068
:10102000079007A91548FFF711FB01210802FFF7F8
:10103000EDFB00208DF809000590019002208DF84D
:10104000180001A90E48FFF773FA062301220721B1
:101050000B48FFF797FA0623022208210848FFF7FA
:1010600091FA012240F205210548FFF750FA0121CB
:101070000348FFF734FA09B000BD00000000024049
:10108000002001401CB501210220FFF79FFB012039
:101090008DF8040000208DF806008DF8070003206D
:1010A0008DF80500FF20009069460248FFF7CEFA50
:1010B0001CBD0000000402401CB501210820FFF700
:1010C00085FB01208DF8040000208DF806008DF8C6
:1010D00007008DF805004FF4704000906946024803
:1010E000FFF7B4FA1CBD0000000C024044207C490C
:1010F000087020207B490870FFF7C4FF00F09CF9BE
:10110000FFF77CFF00F040F9FFF7D6FF00F0AAF9E7
:10111000E4E000F015F9744908800846028873A1DC
:101120007448FFF7A5F8734800F008FA00F01AF9C0
:10113000714908806A480078401C6949087069480C
:101140000078401C6749087065480078FF2802DD78
:1011500000206349087063480078FF2802DD002002
:101160005F4908705F48027864A16248FFF780F821
:10117000604800F0E3F95A48027862A15D48FFF741
:1011800077F85C4800F0DAF928205A490870012104
:101190005E48FFF7C6FA5E4908700846007818B145
:1011A0004D205449487002E06D2052494870022198
:1011B0005648FFF7B6FA574908700846007818B144
:1011C0004E204C49887002E06E204A498870042104
:1011D0004E48FFF7A6FA504908700846007818B143
:1011E0004F204449C87002E06F204249C87008216E
:1011F0004648FFF796FA494908700846007818B142
:1012000050203C49087102E070203A4908711021D1
:101210003E48FFF786FA424908700846007818B140
:1012200051203449487102E071203249487120212F
:101230003648FFF776FA3B4908700846007818B13F
:1012400052202C49887102E072202A49887140217D
:101250002E48FFF766FA344908700846007818B13E
:1012600053202449C87102E073202249C8718021AB
:101270002648FFF756FA2D4908700846007818B13D
:1012800054201C49087202E074201A490872284848
:10129000007818B155201749487202E075201549A9
:1012A00048722448007818B156201249887202E02A
:1012B0007620104988722048007818B157200D49CF
:1012C000C87202E077200B49C872292009490873C7
:1012D000084600F033F91948FFF77CFE19E70000D3
:1012E00001000020030000200600002021256440AA
:1012F00000000000280000200800002023256424AE
:10130000000000005E25642A000000000004024086
:101310000B0000200C0000200D0000200E0000201B
:101320000F000020100000201100002012000020FB
:10133000130000201400002015000020A0BB0D00A9
:1013400010B50748FFF77AF900BF02210448FFF7FC
:10135000D5F80028F9D00248FFF7CCF810BD0000FE
:101360000020014010B50748FFF768F900BF0221CF
:101370000448FFF7C3F80028F9D00248FFF7BAF88D
:1013800010BD00000020014000B58BB001210220FB
:10139000FFF72CFA01210420FFF718FA02208DF83C
:1013A000280000208DF82A008DF82B008DF82900E8
:1013B000C020099009A91E48FFF748F940F28F6044
:1013C000ADF8180040F2E73007900020ADF820009B
:1013D000ADF81A0006A91748FFF732FC012115489D
:1013E000FFF763FB6020ADF804000020ADF81000AB
:1013F00003900120ADF8060001A90E48FFF776FB27
:1014000001A90C48FFF7BAFB08210A48FFF7ACFB1B
:1014100008210848FFF704FC022206210448FFF7D0
:101420005DF9022207210248FFF758F90BB000BD11
:1014300000080240000400400EB501211020FFF713
:10144000D5F95320ADF800004FF6FF7001906946C2
:101450000348FFF7F5FB01210148FFF726FB0EBD0E
:101460000010004000B587B001214804FFF7BEF925
:101470004FF4165003900020ADF818000C20ADF882
:1014800016000020ADF81400ADF81200ADF8100001
:1014900003A92048FFF728FD01211E48FFF7C9FCDA
:1014A000012240F225511B48FFF7F9FC01210846B3
:1014B000FFF78CF902208DF808000C200190002025
:1014C0008DF80A0001208DF80B0002208DF809002C
:1014D00001A91148FFF7BAF8072202210E48FFF7C9
:1014E000FDF8072203210C48FFF7F8F826208DF8B5
:1014F000000001208DF801008DF802008DF8030036
:101500006846FFF725F901210248FFF792FC07B072
:1015100000BD0000004400400000024010B5044639
:1015200000BF0548008800F040000028F9D021469F
:101530000148FFF748FD10BD0044004010B50446C7
:1015400003E02078FFF7EAFF641C20780028F8D138
:1015500010BD4FF04070E1EE100A70477C15000896
:101560000000002028000000C4010008A4150008A5
:101570002800002078060000E001000800000000BC
:10158000000000000000000000000000000000005B
:10159000000000000000010203040102030406072A
:0415A0000809000036
:040000050800018965
:00000001FF
