:020000040800F2
:10000000D006002029020008D5090008B105000823
:10001000D1090008FB020008571500080000000085
:100020000000000000000000000000001D0D00089E
:10003000A903000800000000510A0008290E00086A
:10004000430200084302000843020008430200087C
:100050004302000843020008AD0300084D040008F5
:10006000430200084302000843020008430200085C
:10007000430200084302000843020008430200084C
:10008000430200084302000843020008430200083C
:10009000430200084302000843020008430200082C
:1000A000430200084302000843020008430200081C
:1000B000430200084302000843020008430200080C
:1000C00043020008430200084302000843020008FC
:1000D00043020008430200085112000843020008CE
:1000E00043020008430200084302000843020008DC
:1000F00043020008430200084302000843020008CC
:1001000043020008430200084302000843020008BB
:10011000430200084302000843020008950E00084D
:10012000430200084302000843020008430200089B
:10013000430200084302000843020008430200088B
:10014000430200084302000843020008430200087B
:10015000430200084302000843020008430200086B
:10016000430200084302000843020008430200085B
:10017000430200084302000843020008430200084B
:10018000430200084302000800F002F800F03CF8C7
:100190000AA090E8000C82448344AAF10107DA45E2
:1001A00001D100F031F8AFF2090EBAE80F0013F0F8
:1001B000010F18BFFB1A43F001031847F01C0000A1
:1001C000101D0000103A24BF78C878C1FAD8520731
:1001D00024BF30C830C144BF04680C6070470000C1
:1001E0000023002400250026103A28BF78C1FBD840
:1001F000520728BF30C148BF0B6070471FB501F0E0
:100200004FFE1FBD10B510BD00F03DF81146FFF7C1
:10021000F5FF01F0A3FB00F05BF803B4FFF7F2FF7A
:1002200003BC00F063F80000094880470948004714
:10023000FEE7FEE7FEE7FEE7FEE7FEE7FEE7FEE796
:10024000FEE7FEE704480549054A064B70470000F3
:100250002D0E000889010008D0000020D0060020E3
:10026000D0020020D0020020421E12F8013F002BD5
:10027000FBD111F8013B002B02F8013BF9D170478B
:10028000704770477047754600F02CF8AE46050081
:100290006946534620F00700854618B020B5FFF7A1
:1002A000D1FFBDE820404FF000064FF000074FF0AF
:1002B00000084FF0000B21F00701AC46ACE8C00984
:1002C000ACE8C009ACE8C009ACE8C0098D4670478D
:1002D00010B50446AFF300802046BDE81040FFF79C
:1002E0009CBF0000004870476C00002001491820A6
:1002F000ABBEFEE726000200704700BFFEE72DE917
:10030000F0410746884615460421052000F02DF8E7
:100310000021012000F040FB80210A2000F0FFFCBA
:10032000002405E0395D092000F036FB601CC4B2F2
:100330004445F7DB0321012000F02EFBFF2400BF22
:10034000052000F0A5FA0646601EC4B21CB106F0F6
:1003500004000028F4D0222000F09AFA287021200E
:1003600000F096FA6870BDE8F08170B505460C465D
:100370000026284600F08CFA064626EA04012846A4
:1003800000F00AFB70BD10B502460B46002107E0E5
:10039000505C5C5CA04201D0022010BD481CC1B280
:1003A0000429F5DB0020F8E77047000010B50120B4
:1003B00000F076F8002831D042F2107001F0AAF96E
:1003C0000121174800F0E3F828BB16480088401CBC
:1003D0001449088014A20021084601F067FA17A208
:1003E0000021012001F062FA13E001F0DFFA154963
:1003F0000870084690F9000001F018F942F21070F8
:1004000001F088F91048007818B100200E490870F2
:1004100000E0EAE700BF012000F03CF810BD00005A
:10042000000C02402A0000204E686170206D61744B
:10043000206B6861753A20200000000020202020F9
:1004400020200000380000203900002010B50220D4
:1004500000F026F8A0B142F2107001F05BF9022121
:10046000084800F094F840B94FF48061064800F065
:1004700099F806A10648FFF7F7FE022000F00AF8F7
:1004800010BD0000000C0240000402404D000000BE
:10049000600000200149086070470000143C0140E2
:1004A00001460020034A12680A400AB1012000E018
:1004B00000207047143C0140F0B50A46002100239B
:1004C000002400BF3DE0012505FA01F3156805EAA7
:1004D00003049C4234D105684F000326BE40B54357
:1004E000056015794E00B5400668354305601579FD
:1004F000012D02D01579022D16D185684F000326F3
:10050000BE40B543856055794E00B5408668354399
:100510008560456801268E40B543456045689679FB
:100520008E40B6B235434560C5684F000326BE40D5
:10053000B543C560D5794E00B540C6683543C56042
:10054000491C1029BFD3F0BDF0B5002300244D078E
:10055000ED0E02FA05F3CE1000F1200555F82650F5
:100560004E07F70E0F26BE40B543CF1000F1200610
:1005700046F82750CE1000F1200555F8265045EAE0
:100580000304CE1000F1200545F82640F0BD0246D8
:10059000002013690B400BB1012000E000207047E0
:1005A000418370470183704742694A404261704706
:1005B00000BFFEE700B587B00121084600F04AFA07
:1005C000052211463248FFF7BFFF052206213048B9
:1005D000FFF7BAFF052207212D48FFF7B5FF0220DC
:1005E0008DF8180000208DF81A0001208DF81B00EE
:1005F00002208DF819002020059005A92448FFF756
:100600005BFF8020059005A92148FFF755FF40209A
:10061000059005A91E48FFF74FFF0C20059001200B
:100620008DF8180000208DF81A0002208DF81900AE
:1006300005A91748FFF740FF0121080300F03AFA27
:10064000144800F0D7FA0020ADF80000ADF804001F
:10065000ADF80600ADF808004FF40070ADF80A00E0
:100660001020ADF80C000020ADF80E000720ADF80A
:1006700010004FF48270ADF802006946054800F0A2
:1006800011FB0121034800F0A9FA07B000BD0000EA
:10069000000002400030014010B5142000F0F8F8CE
:1006A000044604F0030018B90321142000F037FBBE
:1006B00010BDF0B587B00546002708210846FFF7B2
:1006C00054FE00210D2000F067F980210E20FFF775
:1006D0004CFE93208DF8040020208DF8050006A81C
:1006E00001AB022201A900900C2000F01AF8064686
:1006F00086B9002407E001A8005D285501A8005D27
:100700004740601CC4B2042CF5DB01A8005DB84270
:1007100000D0022680210E2000F001FB304607B0F9
:10072000F0BD2DE9FE4F0646884691469A46DDF813
:1007300030B0022002900020019000900C2E06D0D4
:100740000E2E09D1122001901020009005E0772094
:1007500001903020009000E000BF00BF019840F001
:100760008001022000F018F980210420FFF7FDFD30
:100770000021012000F010F980210A2000F0CFFABA
:10078000002506E018F80510092000F005F9681C9E
:1007900085B24D45F6DB3146012000F0FDF80C2E08
:1007A00003D180210D2000F0BAFA4FF4167500BF76
:1007B000042000F06DF80446681E85B235B104F0DF
:1007C000010018B9009820400028F1D080210D20A8
:1007D000FFF7CBFD002D36D0062000F059F800F0D1
:1007E0001B0070BB002002900198204000F0010027
:1007F00008B1012002900C2E25D10A2000F048F803
:1008000004460C2000F044F800F007072FB1601EEA
:1008100007EBC000ABF8000002E0E000ABF800001E
:1008200004B90124122C00DD1224002506E0092061
:1008300000F02EF80AF80500681C85B2A542F6DB28
:1008400001E00220029080210C2000F068FA0021D3
:10085000012000F0A1F80298BDE8FE8F10B588B025
:1008600050208DF8080000208DF809000DF10A02D3
:10087000022102A8FFF743FD07A802AB042202A948
:1008800000900C20FFF74DFF0446002008B010BD7B
:1008900070B5044604210D48FFF782FE012000F0E8
:1008A00039FF7E2101EA440141F0800000F018FA8E
:1008B000002000F015FA054604210448FFF772FEF7
:1008C000012000F027FF284670BD00000000024014
:1008D00070B588B005460C46022608210846FFF789
:1008E00044FD07210D2000F057F80321142000F0EB
:1008F00016FA8DF8085007A802AB012202A9009051
:100900000C20FFF70EFF06464EB9BDF81C0010285C
:1009100005D19DF8080020709DF8090060703046F0
:1009200008B070BD10B504211A48FFF73BFE08203F
:1009300000F004FF08211748FFF732FE012000F005
:10094000FDFE08211348FFF72DFE012000F0F6FE02
:100950000F21012000F020F8012000F0EFFE2921F6
:10096000112000F019F800212C2000F015F81E21AC
:100970002D2000F011F88D212A2000F00DF83E21E5
:100980002B2000F009F84021152000F005F8002088
:1009900010BD00000000024070B504460D46042161
:1009A0000A48FFF7FDFD012000F0B4FE7E2101EAB8
:1009B000440000F095F9284600F092F9042103481C
:1009C000FFF7F0FD012000F0A5FE70BD0000024021
:1009D00000BFFEE77047000070B5002100230F2222
:1009E000C4781CB3174C246804F4E064C4F5E064D4
:1009F000C4F30721C1F10404E3B20A4144789C40E6
:100A0000E1B28478144021430C07210E0E4C057886
:100A10006155047804F01F050124AC4005786D1180
:100A2000AD0005F1E025C5F8004109E0047804F0C7
:100A30001F050124AC40054D0678761145F8264087
:100A400070BD00000CED00E000E400E080E100E09B
:100A50007047000029B1064A12680243044B1A602D
:100A600004E0034A12688243014B1A607047000099
:100A70003038024029B1064A12680243044B1A601A
:100A800004E0034A12688243014B1A607047000079
:100A90004038024029B1064A12680243044B1A60EA
:100AA00004E0034A12688243014B1A607047000059
:100AB0002038024029B1064A12680243044B1A60EA
:100AC00004E0034A12688243014B1A607047000039
:100AD0004438024029B1064A12680243044B1A60A6
:100AE00004E0034A12688243014B1A607047000019
:100AF00024380240F0B500210022002402250026FF
:100B00000223324F3F6807F00C0121B1042905D0C0
:100B1000082937D105E02E4F076036E02D4F0760DA
:100B200033E02A4F3F1F3F68C7F38056274F3F1FD0
:100B30003F6807F03F036EB1264FB7FBF3F7DFF8CE
:100B40008CC0ACF1040CDCF800C0CCF3881C07FBB3
:100B50000CF40CE01E4FB7FBF3F7DFF870C0ACF1FC
:100B6000040CDCF800C0CCF3881C07FB0CF4174F16
:100B70003F1F3F68C7F301477F1C7D00B4FBF5F7BB
:100B8000076002E0124F076000BF00BF0F4F3F68D1
:100B900007F0F0010909104F7A5C0768D7404760F9
:100BA0000A4F3F6807F4E051890A0B4F7A5C4768A7
:100BB000D7408760054F3F6807F46041490B064FF7
:100BC0007A5C4768D740C760F0BD00000838024033
:100BD0000024F40000127A003B00002021B10288BA
:100BE00042F04002028004E002884FF6BF731A40D0
:100BF0000280704710B504462448844208D1012180
:100C00008014FFF767FF0021A014FFF763FF3CE0AB
:100C10001F48844208D101210014FFF73BFF002147
:100C20002014FFF737FF30E01A48844208D1012131
:100C3000C013FFF72FFF0021E013FFF72BFF24E085
:100C40001548844208D101214014FFF743FF0021D9
:100C50006014FFF73FFF18E01048844209D10121DA
:100C60000805FFF737FF00214FF48010FFF732FF30
:100C70000BE00B48844208D101214805FFF72AFF09
:100C800000214FF40010FFF725FF10BD0030014098
:100C900000380040003C004000340140005001405A
:100CA0000054014010B50022028802F441520B8822
:100CB0004C8823438C882343CC8823430C892343CB
:100CC0004C8923438C892343CC8923431A430280D4
:100CD000838B4FF2FF74234083830B8A038210BD02
:100CE00001460D48818100BF0B48008900F00200D9
:100CF0000028F9D000BF0848008900F00100002852
:100D0000F9D000BF0448008900F080000028F9D124
:100D100001488089C0B2704700300140704770B50B
:100D200005460C4600262846FFF7B2FD064646EA71
:100D300004012846FFF730FE70BD00000CB500200E
:100D4000019000903448006840F4803032490860D7
:100D500000BF3148006800F4003000900198401C4A
:100D60000190009818B90198B0F5A04FF1D12A4828
:100D7000006800F4003010B10120009001E0002074
:100D800000900098012846D123484030006840F088
:100D900080502149403108602048006840F44040BC
:100DA0001E4908601C48083000681B49083108606B
:100DB0000846006840F4004008600846006840F4B7
:100DC000A05008601648091F0860081F006840F01E
:100DD0008070091F086000BF0F48006800F00070B5
:100DE0000028F9D040F205700E4908600A48083022
:100DF000006820F0030008490831086008460068D0
:100E000040F00200086000BF03480830006800F0AE
:100E10000C000828F8D10CBD0038024000700040DA
:100E200008544007003C02407047000010B51548C8
:100E3000006840F47000134908601348006840F0EF
:100E400001001149086000200F49083108600E4870
:100E500000680E4908400C4908600D48091D0860EB
:100E6000081F006820F48020091F08600020064940
:100E70000C310860FFF762FF4FF0006001498039D4
:100E8000086010BD88ED00E000380240FFFFF6FE6C
:100E90001030002410B50121084800F027F858B19F
:100EA0000121064800F010F84FF470410448FFF7A4
:100EB0007BFB01200349087010BD000000140040B6
:100EC000000C024024000020CA430282704721B176
:100ED000028842F00102028004E002884FF6FE73AD
:100EE0001A40028070470146486A704730B5024692
:100EF000002000230024158A05EA0103958905EAEC
:100F0000010413B10CB1012000E0002030BD1AB182
:100F100083890B43838102E083898B4383817047FC
:100F200070B5002400220023058C4FF6FE76354074
:100F30000584028C8388048B4FF68F752C40B51E78
:100F40002C400D882C43751E2A408D892A434D88DC
:100F50002A43104DA84202D00F4DA84213D14FF69C
:100F6000F7752A40CD892A434FF6FB752A408D88B4
:100F70002A434FF6FF652B404FF6FF552B400D8A55
:100F80002B434D8A2B43838004838D684563028401
:100F900070BD000000000140000401400A4600212D
:100FA000018B4FF6F773194011430183704700001E
:100FB00070B5002400220023058C4FF6EF763540F3
:100FC0000584028C8388048B48F6FF752C404FF60D
:100FD000FF452C400D884FF6FF7606EA05252C4389
:100FE0004FF6DF752A408D8906EA05152A434D889C
:100FF00006EA05152A43154DA84202D0144DA84211
:101000001DD14FF67F752A40CD894FF6FF7606EA4F
:1010100005152A434FF6BF752A408D8806EA051547
:101020002A434FF6FF352B404FF2FF752B400D8AB8
:1010300006EA85052B434D8A06EA85052B43838006
:1010400004838D688563028470BD00000000014048
:10105000000401400A460021018B4FF2FF73194042
:101060004FF6FF7303EA0223194301837047000020
:1010700070B5002400220023058C4FF6FF66354032
:101080000584028C8388848B4FF68F752C404FF635
:10109000FC752C400D882C434FF6FF552A408D8956
:1010A0004FF6FF7606EA05252A434D8806EA052510
:1010B0002A43154DA84202D0144DA8421DD14FF22B
:1010C000FF752A40CD894FF6FF7606EA05252A43AB
:1010D0004FF6FF352A408D8806EA05252A434EF64D
:1010E000FF752B404DF6FF752B400D8A06EA05155E
:1010F0002B434D8A06EA05152B43838084838D6834
:10110000C563028470BD000000000140000401407E
:101110000A460021818B4FF6F773194011438183F2
:101120007047000070B5002200230024058C4EF6A5
:10113000FF7635400584038C8488828B48F6FF75E2
:101140002A404FF6FF452A400D884FF6FF7606EA03
:1011500005252A434DF6FF752B408D8906EA053596
:101160002B434D8806EA05352B430A4DA84202D091
:10117000094DA84208D14BF6FF752C400D8A4FF659
:10118000FF7606EA85152C43848082838D6805648A
:10119000038470BD00000140000401400A460021A4
:1011A000818B4FF2FF7319404FF6FF7303EA02235E
:1011B0001943818370474163704781637047C163FE
:1011C0007047016470474162704700000022028846
:1011D000184B98420ED0184B98420BD0B0F1804F6C
:1011E00008D0164B984205D0154B984202D0154BAB
:1011F000984204D14FF68F731A404B881A43124B12
:10120000984207D0114B984204D04FF6FF431A4042
:101210000B891A4302804B68C3620B880385054B18
:10122000984202D0044B984201D18B7A0386012365
:101230008382704700000140000401400004004028
:1012400000080040000C0040001000400014004066
:1012500008B540F225514D4800F0BFF8012871D182
:101260004A4800F073F94A4908700846007800902F
:1012700069464848FEF7F8FF4548007861281BD0CA
:101280000BDCA0F141000B2877D2DFE800F0101A48
:10129000242E38424C567661670062380A286CD298
:1012A000DFE800F0141E28323C46516B57610121E3
:1012B0003948FFF777F961E001213748FFF770F906
:1012C0005CE002213448FFF76DF957E00221324813
:1012D000FFF766F952E004212F48FFF763F94DE06C
:1012E00004212D48FFF75CF948E008212A48FFF760
:1012F00059F943E008212848FFF752F93EE0102150
:101300002548FFF74FF939E010212348FFF748F946
:1013100034E040212048FFF745F92FE040211E48E6
:10132000FFF740F92AE020211B48FFF73BF925E0B1
:1013300020211948FFF736F920E080211648FFF7F1
:1013400031F91BE021E080211348FFF729F915E06E
:1013500014E01E211148FFF72EFF0FE023210F4854
:10136000FFF72DFF0AE00E4800886E2803DD5021AC
:101370000A48FFF724FF01E0FFE700BF00BF40F28B
:101380002551024800F00EF800BF08BD004400409F
:101390002C000020600000200004024000040040F7
:1013A0002600002010B50022002340F66A14A14256
:1013B00000D100BF0A1201249440A3B2DC43048090
:1013C00010BD21B1828942F40052828104E08289F9
:1013D0004DF6FF731A408281704770B502460024B3
:1013E00000230025002040F66A16B14200D100BF5C
:1013F000C1F3421501F01F03012606FA03F3012D84
:1014000002D19689334006E0022D02D1168A33407C
:1014100001E0968A33400C12012606FA04F416887D
:10142000344013B10CB1012000E0002070BDF0B5D4
:101430000346002400260025002040F66A17B94222
:1014400000D100BF1846C1F3421401F01F06012766
:1014500007FA06F5012C01D10C3004E0022C01D171
:10146000103000E014301AB107682F43076002E023
:101470000768AF430760F0BD2DE9FF4705460E46FC
:101480000024A14600BFA046B08900B100BF2C8A4D
:1014900024F44054F08804432C82AC8941F20C605F
:1014A0008443B08831890843718908430443AC817F
:1014B000AC8A24F44074B0890443AC826846FFF7D8
:1014C00019FB2048854202D01F48854202D1DDF831
:1014D0000C9001E0DDF80890A88900F4004040B1CC
:1014E00009EBC90000EB091031684900B0FBF1F7C6
:1014F00007E009EBC90000EB091031688900B0FB77
:10150000F1F76420B7FBF0F004012009642101FB2E
:101510001078A88900F4004040B1322000EBC800E8
:10152000B0FBF1F000F00700044308E0322000EBCC
:1015300008106421B0FBF1F000F00F0004432C818F
:10154000BDE8FF8700100140001401400146888873
:10155000C0F30800704700BFFEE7000010B52C493B
:101560005220FFF7B5F92B4908700846007818B1EA
:1015700000202949087010BD2548FFF79AF8254931
:1015800008700846007818B1002023490870F2E777
:1015900021480078012802D1FFF760F9EBE701202C
:1015A0001D490870FFF75AF91C491948FEF7EBFE70
:1015B000F8B9002408E04FF480711948FEF7F4FFF1
:1015C000962000F0BBF8641C062CF4DB154800786C
:1015D00038B901201349087028211348FFF7F1FD9D
:1015E00014E000200F49087050210F48FFF7E9FD73
:1015F0000CE0002408E04FF400710948FEF7D4FF26
:10160000962000F09BF8641C062CF4DB00BFB2E7C8
:10161000010000200000002005000020160000202E
:10162000000402403A0000200004004070B5044667
:10163000582C4DD0274801782246012000F057F958
:101640004CF2503000F066F8224801782A2201203E
:1016500000F04DF920481F4991F9001044541D48ED
:101660000078401C40B21B490870084600780528E5
:101670002ED100250FE01848405718494957884295
:1016800008D017A20021084600F010F900201149E7
:10169000087002E06D1C052DEDDB00BF0D480078E1
:1016A00005280FD113A20021084600F0FFF82821D9
:1016B0001548FFF782FD154800F02CF85A21124812
:1016C000FFF77BFD002003490870012010490870D6
:1016D00070BD000032000020330000202D000020EB
:1016E0004D6174206B686175207361692120202031
:1016F000000000004368616F206D756E67206261B5
:101700006E212020000000000004004020A10700FE
:101710003900002070B5044600250AE00021064883
:10172000FFF751FD00BF0448FFF7DDFB0A28FAD39D
:101730006D1CA542F2D370BD0010004070B5044688
:1017400000250BE000210748FFF73DFD00BF0548DD
:10175000FFF7C9FBB0F57A7FF9D36D1CA542F1D331
:1017600070BD0000001000401CB501210220FFF7F1
:1017700071F901208DF8040000208DF806008DF825
:10178000070003208DF8050040F2FF7000906946C5
:101790000148FEF791FE1CBD0004024070B50546ED
:1017A0000C46002000E0401C4CF250318842FADB2D
:1017B00025B101213C48FEF7F5FE03E001213A483E
:1017C000FEF7EEFE04F0800020B120213648FEF73F
:1017D000E9FE03E020213448FEF7E2FE04F0400079
:1017E00020B110213048FEF7DDFE03E010212E4825
:1017F000FEF7D6FE04F0200020B108212A48FEF7AB
:10180000D1FE03E008212848FEF7CAFE04F01000CC
:1018100020B104212448FEF7C5FE03E0042122483C
:10182000FEF7BEFE02212048FEF7BCFE02211E4844
:10183000FEF7B6FE04F0080020B120211A48FEF79A
:10184000B1FE03E020211848FEF7AAFE04F00400D0
:1018500020B110211448FEF7A5FE03E01021124824
:10186000FEF79EFE04F0020020B108210E48FEF7AC
:1018700099FE03E008210C48FEF792FE04F00100F7
:1018800020B104210848FEF78DFE03E0042106483C
:10189000FEF786FE02210448FEF784FE022102487C
:1018A000FEF77EFE70BD00000010024070B50646D7
:1018B0000D46144616B1012E0ED106E005F180004A
:1018C000C1B20020FFF76AFF06E005F1C000C1B217
:1018D0000020FFF763FF00BF00BF04E02178012074
:1018E000FFF75CFF641C20780028F7D170BD70B54D
:1018F00005460C46164615B1012D0ED106E004F141
:101900008000C1B20020FFF749FF06E004F1C000EB
:10191000C1B20020FFF742FF00BF00BFF1B20120BB
:10192000FFF73CFF70BD00001CB501210820FFF748
:1019300091F801208DF8040000208DF806008DF844
:1019400007008DF805004FF470400090694602488A
:10195000FEF7B2FD1CBD0000000C0240FFF7E4FFE3
:10196000FFF702FF00F012FA00F0FAF900F046F972
:1019700000F03AFAFEF71EFEFEF7D4FFFEF78CFEEB
:1019800050210848FFF71DFC0AE00748007810B115
:10199000002005490870FFF7E1FD3220FFF7CEFE79
:1019A000F3E70000000400402400002010B50421EB
:1019B0009048FEF7F5FD08218E48FEF7F3FD102153
:1019C0008C48FEF7EFFD80218A48FEF7EBFD0121F0
:1019D0008948FEF7DCFD40B900BF01218648FEF7CB
:1019E000D6FD0028F9D0312010BD02218248FEF733
:1019F000CEFD40B900BF02217F48FEF7C8FD002898
:101A0000F9D03220F0E704217B48FEF7C0FD40B951
:101A100000BF04217848FEF7BAFD0028F9D0332032
:101A2000E2E708217448FEF7B2FD40B900BF082183
:101A30007148FEF7ACFD0028F9D04120D4E704211D
:101A40006C48FEF7AFFD08216A48FEF7A9FD10219A
:101A50006848FEF7A7FD80216648FEF7A3FD012137
:101A60006548FEF794FD40B900BF01216248FEF7CA
:101A70008EFD0028F9D03420B6E702215E48FEF73B
:101A800086FD40B900BF02215B48FEF780FD0028BB
:101A9000F9D03520A8E704215748FEF778FD40B972
:101AA00000BF04215448FEF772FD0028F9D036200B
:101AB0009AE708215048FEF76AFD40B900BF0821A7
:101AC0004D48FEF764FD0028F9D042208CE7042140
:101AD0004848FEF767FD08214648FEF763FD1021E0
:101AE0004448FEF75DFD80214248FEF75BFD012181
:101AF0004148FEF74CFD40B900BF01213E48FEF7CA
:101B000046FD0028F9D037206EE702213A48FEF75B
:101B10003EFD40B900BF02213748FEF738FD0028DE
:101B2000F9D0382060E704213348FEF730FD40B992
:101B300000BF04213048FEF72AFD0028F9D03920E3
:101B400052E708212C48FEF722FD40B900BF0821CA
:101B50002948FEF71CFD0028F9D0432044E7042162
:101B60002448FEF71FFD08212248FEF71BFD102127
:101B70002048FEF717FD80211E48FEF711FD0121C8
:101B80001D48FEF704FD40B900BF01211A48FEF7C9
:101B9000FEFC0028F9D02A2026E702211648FEF78D
:101BA000F6FC40B900BF02211348FEF7F0FC002804
:101BB000F9D0302018E704210F48FEF7E8FC40B9BF
:101BC00000BF04210C48FEF7E2FC0028F9D02320D6
:101BD0000AE708210848FEF7DAFC40B900BF0821EF
:101BE0000548FEF7D4FC0028F9D04420FCE6582034
:101BF000FAE60000000C02400008024000B58DB07B
:101C000001210220FEF736FF01210420FEF722FF0A
:101C100001214020FEF72EFF01210220FEF71AFFCE
:101C200002208DF8300000208DF832008DF833004E
:101C30008DF831004FF470700B900BA94448FEF7FB
:101C40003BFC02208DF8280000208DF82A008DF83A
:101C50002B008DF829004FF44040099009A93D4818
:101C6000FEF72AFC40F28F60ADF8180040F2E73032
:101C700007900020ADF82000ADF81A0006A93648FC
:101C8000FFF7A4FA01213448FFF721F906A93348E8
:101C9000FFF79CFA01213148FFF719F96020ADF8F0
:101CA00004000020ADF8100003900120ADF80600FC
:101CB00001A92948FFF734F901A92748FFF778F966
:101CC00001A92548FFF7D4F901A92348FFF72AFA0B
:101CD00001A92248FFF724F901A92048FFF768F974
:101CE00008211D48FFF75AF908211B48FFF7B2F9F0
:101CF00008211948FFF70CFA08211748FFF74EFA98
:101D000008211648FFF74AF908211448FFF7A2F9FD
:101D1000022206210E48FEF717FC022207210C487A
:101D2000FEF712FC022208210948FEF70DFC0222F0
:101D300009210748FEF708FC09220E210548FEF795
:101D400003FC09220F210348FEF7FEFB0DB000BD86
:101D50000008024000040240000400400018004057
:101D60000EB501211020FEF785FE5320ADF80000CE
:101D70004FF6FF70019069460348FFF727FA0121EB
:101D80000148FFF7A4F80EBD001000401FB5012167
:101D90002020FEF76FFE42F2CF00ADF8040047F2BC
:101DA0002F5002900020ADF8060001A90D48FFF762
:101DB0000DFA012211460B48FFF7A9F80121094845
:101DC000FFF785F837208DF8000001208DF801001D
:101DD00000208DF8020001208DF803006846FEF710
:101DE000FBFD1FBD0014004000B587B00121480471
:101DF000FEF740FE4FF4165003900020ADF8180097
:101E00000C20ADF816000020ADF81400ADF812005B
:101E1000ADF8100003A92048FFF72EFB01211E4852
:101E2000FFF7CFFA012240F225511B48FFF7FFFAD6
:101E300001210820FEF70EFE02208DF80800602028
:101E4000019000208DF80A0001208DF80B0002207F
:101E50008DF8090001A91148FEF72EFB0722052184
:101E60000E48FEF771FB072206210C48FEF76CFBBB
:101E700026208DF8000001208DF801008DF8020069
:101E80008DF803006846FEF7A7FD01210248FFF721
:101E900098FA07B000BD000000440040000C02406A
:101EA0004FF04070E1EE100A70470000CC1E0008B1
:101EB000000000204C000000C4010008181F0008AA
:101EC0004C00002084060000E00100080000000033
:101ED0000000FFFFFFFFFFFF000000000000000008
:101EE00000008146EC090000000000000000000036
:101EF00000000000000000000031323334350000E3
:101F000000000000000000000000000102030401C6
:081F10000203040607080900A2
:040000050800018965
:00000001FF
